{"contracts/core/TokenCafeFactory.sol":{"TokenCafeFactory":{"abi":[{"inputs":[{"internalType":"address","name":"_platformWallet","type":"address"},{"internalType":"uint256","name":"_basePrice","type":"uint256"}],"stateMutability":"nonpayable","type":"constructor"},{"anonymous":false,"inputs":[{"indexed":false,"internalType":"uint256","name":"oldPrice","type":"uint256"},{"indexed":false,"internalType":"uint256","name":"newPrice","type":"uint256"}],"name":"BasePriceUpdated","type":"event"},{"anonymous":false,"inputs":[{"indexed":true,"internalType":"address","name":"currency","type":"address"},{"indexed":false,"internalType":"uint256","name":"price","type":"uint256"}],"name":"CurrencyPriceSet","type":"event"},{"anonymous":false,"inputs":[{"indexed":true,"internalType":"address","name":"previousOwner","type":"address"},{"indexed":true,"internalType":"address","name":"newOwner","type":"address"}],"name":"OwnershipTransferStarted","type":"event"},{"anonymous":false,"inputs":[{"indexed":true,"internalType":"address","name":"previousOwner","type":"address"},{"indexed":true,"internalType":"address","name":"newOwner","type":"address"}],"name":"OwnershipTransferred","type":"event"},{"anonymous":false,"inputs":[{"indexed":true,"internalType":"address","name":"oldWallet","type":"address"},{"indexed":true,"internalType":"address","name":"newWallet","type":"address"}],"name":"PlatformWalletUpdated","type":"event"},{"anonymous":false,"inputs":[{"indexed":true,"internalType":"address","name":"token","type":"address"},{"indexed":true,"internalType":"address","name":"creator","type":"address"},{"indexed":true,"internalType":"address","name":"referrer","type":"address"},{"indexed":false,"internalType":"string","name":"name","type":"string"},{"indexed":false,"internalType":"string","name":"symbol","type":"string"},{"indexed":false,"internalType":"uint256","name":"feePaid","type":"uint256"},{"indexed":false,"internalType":"address","name":"currency","type":"address"}],"name":"TokenCreated","type":"event"},{"anonymous":false,"inputs":[{"indexed":true,"internalType":"address","name":"to","type":"address"},{"indexed":false,"internalType":"uint256","name":"amount","type":"uint256"}],"name":"Withdrawn","type":"event"},{"inputs":[],"name":"acceptOwnership","outputs":[],"stateMutability":"nonpayable","type":"function"},{"inputs":[],"name":"basePrice","outputs":[{"internalType":"uint256","name":"","type":"uint256"}],"stateMutability":"view","type":"function"},{"inputs":[{"components":[{"internalType":"string","name":"name","type":"string"},{"internalType":"string","name":"symbol","type":"string"},{"internalType":"uint8","name":"decimals","type":"uint8"},{"internalType":"uint256","name":"initialSupply","type":"uint256"},{"internalType":"address","name":"initialOwner","type":"address"},{"internalType":"bool","name":"mintable","type":"bool"},{"internalType":"bool","name":"burnable","type":"bool"},{"internalType":"bool","name":"pausable","type":"bool"}],"internalType":"struct TokenCafeFactory.TokenParams","name":"params","type":"tuple"}],"name":"createToken","outputs":[{"internalType":"address","name":"token","type":"address"}],"stateMutability":"payable","type":"function"},{"inputs":[{"components":[{"internalType":"string","name":"name","type":"string"},{"internalType":"string","name":"symbol","type":"string"},{"internalType":"uint8","name":"decimals","type":"uint8"},{"internalType":"uint256","name":"initialSupply","type":"uint256"},{"internalType":"address","name":"initialOwner","type":"address"},{"internalType":"bool","name":"mintable","type":"bool"},{"internalType":"bool","name":"burnable","type":"bool"},{"internalType":"bool","name":"pausable","type":"bool"}],"internalType":"struct TokenCafeFactory.TokenParams","name":"params","type":"tuple"},{"internalType":"address","name":"currency","type":"address"}],"name":"createTokenWithERC20","outputs":[{"internalType":"address","name":"token","type":"address"}],"stateMutability":"nonpayable","type":"function"},{"inputs":[{"components":[{"internalType":"string","name":"name","type":"string"},{"internalType":"string","name":"symbol","type":"string"},{"internalType":"uint8","name":"decimals","type":"uint8"},{"internalType":"uint256","name":"initialSupply","type":"uint256"},{"internalType":"address","name":"initialOwner","type":"address"},{"internalType":"bool","name":"mintable","type":"bool"},{"internalType":"bool","name":"burnable","type":"bool"},{"internalType":"bool","name":"pausable","type":"bool"}],"internalType":"struct TokenCafeFactory.TokenParams","name":"params","type":"tuple"},{"internalType":"address","name":"currency","type":"address"},{"internalType":"address","name":"referrer","type":"address"}],"name":"createTokenWithERC20AndReferral","outputs":[{"internalType":"address","name":"token","type":"address"}],"stateMutability":"nonpayable","type":"function"},{"inputs":[{"components":[{"internalType":"string","name":"name","type":"string"},{"internalType":"string","name":"symbol","type":"string"},{"internalType":"uint8","name":"decimals","type":"uint8"},{"internalType":"uint256","name":"initialSupply","type":"uint256"},{"internalType":"address","name":"initialOwner","type":"address"},{"internalType":"bool","name":"mintable","type":"bool"},{"internalType":"bool","name":"burnable","type":"bool"},{"internalType":"bool","name":"pausable","type":"bool"}],"internalType":"struct TokenCafeFactory.TokenParams","name":"params","type":"tuple"},{"internalType":"address","name":"referrer","type":"address"}],"name":"createTokenWithReferral","outputs":[{"internalType":"address","name":"token","type":"address"}],"stateMutability":"payable","type":"function"},{"inputs":[{"internalType":"address","name":"","type":"address"}],"name":"currencyPrice","outputs":[{"internalType":"uint256","name":"","type":"uint256"}],"stateMutability":"view","type":"function"},{"inputs":[],"name":"discountedPrice","outputs":[{"internalType":"uint256","name":"","type":"uint256"}],"stateMutability":"view","type":"function"},{"inputs":[{"internalType":"address","name":"currency","type":"address"}],"name":"discountedPriceERC20","outputs":[{"internalType":"uint256","name":"","type":"uint256"}],"stateMutability":"view","type":"function"},{"inputs":[],"name":"owner","outputs":[{"internalType":"address","name":"","type":"address"}],"stateMutability":"view","type":"function"},{"inputs":[],"name":"paused","outputs":[{"internalType":"bool","name":"","type":"bool"}],"stateMutability":"view","type":"function"},{"inputs":[],"name":"pendingOwner","outputs":[{"internalType":"address","name":"","type":"address"}],"stateMutability":"view","type":"function"},{"inputs":[],"name":"platformWallet","outputs":[{"internalType":"address","name":"","type":"address"}],"stateMutability":"view","type":"function"},{"inputs":[],"name":"renounceOwnership","outputs":[],"stateMutability":"nonpayable","type":"function"},{"inputs":[{"internalType":"uint256","name":"newPrice","type":"uint256"}],"name":"setBasePrice","outputs":[],"stateMutability":"nonpayable","type":"function"},{"inputs":[{"internalType":"address","name":"currency","type":"address"},{"internalType":"uint256","name":"price","type":"uint256"}],"name":"setCurrencyPrice","outputs":[],"stateMutability":"nonpayable","type":"function"},{"inputs":[{"internalType":"bool","name":"_paused","type":"bool"}],"name":"setPaused","outputs":[],"stateMutability":"nonpayable","type":"function"},{"inputs":[{"internalType":"address","name":"newWallet","type":"address"}],"name":"setPlatformWallet","outputs":[],"stateMutability":"nonpayable","type":"function"},{"inputs":[{"internalType":"address","name":"newOwner","type":"address"}],"name":"transferOwnership","outputs":[],"stateMutability":"nonpayable","type":"function"},{"inputs":[],"name":"withdraw","outputs":[],"stateMutability":"nonpayable","type":"function"},{"stateMutability":"payable","type":"receive"}],"evm":{"bytecode":{"linkReferences":{},"object":"6080604052600160005534801561001557600080fd5b50604051613284380380613284833981016040819052610034916100b8565b6001600160a01b0382166100815760405162461bcd60e51b815260206004820152601060248201526f1510d18e881e995c9bc81dd85b1b195d60821b604482015260640160405180910390fd5b60018054336001600160a01b031991821617909155600380549091166001600160a01b0393909316929092179091556004556100f2565b600080604083850312156100cb57600080fd5b82516001600160a01b03811681146100e257600080fd5b6020939093015192949293505050565b613183806101016000396000f3fe6080604052600436106200013b5760003560e01c8063932ebf2d11620000ad578063e30c3978116200006c578063e30c39781462000357578063edb12d8a1462000379578063f2fde38b14620003aa578063f9ca78b614620003cf578063fa2af9da14620003e657600080fd5b8063932ebf2d14620002a9578063c00fa4bd14620002ce578063c7876ea41462000302578063c8788134146200031a578063de4b3262146200033257600080fd5b8063715018a611620000fa578063715018a6146200020d57806374aba253146200022557806379ba5097146200024a5780638831e9cf14620002625780638da5cb5b146200028757600080fd5b8063090376c2146200014857806316c38b3c146200016f5780632bc6dedb14620001945780633ccfd60b14620001c85780635c975abb14620001e057600080fd5b366200014357005b600080fd5b3480156200015557600080fd5b506200016d62000167366004620013e4565b62000408565b005b3480156200017c57600080fd5b506200016d6200018e36600462001423565b620004e5565b620001ab620001a53660046200145d565b62000525565b6040516001600160a01b0390911681526020015b60405180910390f35b348015620001d557600080fd5b506200016d62000647565b348015620001ed57600080fd5b50600554620001fc9060ff1681565b6040519015158152602001620001bf565b3480156200021a57600080fd5b506200016d62000741565b3480156200023257600080fd5b50620001ab620002443660046200149e565b620007c4565b3480156200025757600080fd5b506200016d62000ad5565b3480156200026f57600080fd5b506200016d6200028136600462001504565b62000b90565b3480156200029457600080fd5b50600154620001ab906001600160a01b031681565b348015620002b657600080fd5b50620001ab620002c836600462001522565b62000c65565b348015620002db57600080fd5b50620002f3620002ed36600462001504565b62000df9565b604051908152602001620001bf565b3480156200030f57600080fd5b50620002f360045481565b3480156200032757600080fd5b50620002f362000e7e565b3480156200033f57600080fd5b506200016d6200035136600462001576565b62000e8f565b3480156200036457600080fd5b50600254620001ab906001600160a01b031681565b3480156200038657600080fd5b50620002f36200039836600462001504565b60066020526000908152604090205481565b348015620003b757600080fd5b506200016d620003c936600462001504565b62000efd565b620001ab620003e036600462001522565b62000fc8565b348015620003f357600080fd5b50600354620001ab906001600160a01b031681565b6001546001600160a01b031633146200043e5760405162461bcd60e51b8152600401620004359062001590565b60405180910390fd5b6001600160a01b0382166200048b5760405162461bcd60e51b81526020600482015260126024820152715443463a207a65726f2063757272656e637960701b604482015260640162000435565b6001600160a01b03821660008181526006602052604090819020839055517fe7012f76ce1a8904f23971a02c0dd6e315fa1ada78f5a8054f4e35e9edc9d57f90620004d99084815260200190565b60405180910390a25050565b6001546001600160a01b03163314620005125760405162461bcd60e51b8152600401620004359062001590565b6005805460ff1916911515919091179055565b600080546001146200054b5760405162461bcd60e51b81526004016200043590620015b8565b600260005560055460ff1615620005765760405162461bcd60e51b81526004016200043590620015e5565b6004543414620005c05760405162461bcd60e51b81526020600482015260146024820152735443463a2076616c6f7220696e636f727265746f60601b604482015260640162000435565b620005cb8262001196565b600354909150620005e6906001600160a01b03163462001289565b6000336001600160a01b0383166000805160206200312e8339815191526200060f86806200160a565b6200061e60208901896200160a565b346000604051620006359695949392919062001684565b60405180910390a46001600055919050565b6001546001600160a01b03163314620006745760405162461bcd60e51b8152600401620004359062001590565b600054600114620006995760405162461bcd60e51b81526004016200043590620015b8565b60026000554780620006df5760405162461bcd60e51b815260206004820152600e60248201526d5443463a2073656d2073616c646f60901b604482015260640162000435565b600154620006f7906001600160a01b03168262001289565b6001546040518281526001600160a01b03909116907f7084f5476618d8e60b11ef0d7d3f06914655adb8793e28ff7f018d4c76d505d59060200160405180910390a2506001600055565b6001546001600160a01b031633146200076e5760405162461bcd60e51b8152600401620004359062001590565b6001546040516000916001600160a01b0316907f8be0079c531659141344cd1fd0a4f28419497f9722a3daafe3b4186f6b6457e0908390a3600180546001600160a01b0319908116909155600280549091169055565b60008054600114620007ea5760405162461bcd60e51b81526004016200043590620015b8565b600260005560055460ff1615620008155760405162461bcd60e51b81526004016200043590620015e5565b6001600160a01b038216158015906200083757506001600160a01b0382163314155b6200087e5760405162461bcd60e51b81526020600482015260166024820152755443463a20726566657272657220696e76616c69646f60501b604482015260640162000435565b60006200088b8462001335565b905060006200089c600a83620016e9565b905060006005620008af8460046200170c565b620008bb9190620016e9565b9050620008c88762001196565b6003546040516323b872dd60e01b81523360048201526001600160a01b039182166024820152604481018490529195508716906323b872dd906064016020604051808303816000875af115801562000924573d6000803e3d6000fd5b505050506040513d601f19601f820116820180604052508101906200094a91906200172c565b620009985760405162461bcd60e51b815260206004820152601f60248201527f5443463a207472616e7366657220706c617461666f726d612066616c686f7500604482015260640162000435565b6040516323b872dd60e01b81523360048201526001600160a01b038681166024830152604482018490528716906323b872dd906064016020604051808303816000875af1158015620009ee573d6000803e3d6000fd5b505050506040513d601f19601f8201168201806040525081019062000a1491906200172c565b62000a625760405162461bcd60e51b815260206004820152601e60248201527f5443463a207472616e7366657220696e64696361646f722066616c686f750000604482015260640162000435565b6001600160a01b0380861690339086166000805160206200312e83398151915262000a8e8b806200160a565b62000a9d60208e018e6200160a565b62000aa98a8a6200174c565b8e60405162000abe9695949392919062001684565b60405180910390a450506001600055509392505050565b6002546001600160a01b0316331462000b2a5760405162461bcd60e51b81526020600482015260166024820152752a21a31d103737ba103832b73234b7339037bbb732b960511b604482015260640162000435565b6002546001546040516001600160a01b0392831692909116907f8be0079c531659141344cd1fd0a4f28419497f9722a3daafe3b4186f6b6457e090600090a360028054600180546001600160a01b03199081166001600160a01b03841617909155169055565b6001546001600160a01b0316331462000bbd5760405162461bcd60e51b8152600401620004359062001590565b6001600160a01b03811662000c095760405162461bcd60e51b81526020600482015260116024820152705443463a207a65726f206164647265737360781b604482015260640162000435565b6003546040516001600160a01b038084169216907ff84f6b525c89a18c80bbbc0c62a7eb5390956d6b8432ab067b49963a98f8c38f90600090a3600380546001600160a01b0319166001600160a01b0392909216919091179055565b6000805460011462000c8b5760405162461bcd60e51b81526004016200043590620015b8565b600260005560055460ff161562000cb65760405162461bcd60e51b81526004016200043590620015e5565b600062000cc38362001335565b905062000cd08462001196565b6003546040516323b872dd60e01b81523360048201526001600160a01b039182166024820152604481018490529193508416906323b872dd906064016020604051808303816000875af115801562000d2c573d6000803e3d6000fd5b505050506040513d601f19601f8201168201806040525081019062000d5291906200172c565b62000d975760405162461bcd60e51b81526020600482015260146024820152735443463a207472616e736665722066616c686f7560601b604482015260640162000435565b6000336001600160a01b0384166000805160206200312e83398151915262000dc088806200160a565b62000dcf60208b018b6200160a565b888b60405162000de59695949392919062001684565b60405180910390a450600160005592915050565b6001600160a01b0381166000908152600660205260408120548062000e5c5760405162461bcd60e51b81526020600482015260186024820152775443463a206d6f656461206e616f207375706f727461646160401b604482015260640162000435565b600a62000e6b8260096200170c565b62000e779190620016e9565b9392505050565b600062000e8a6200139d565b905090565b6001546001600160a01b0316331462000ebc5760405162461bcd60e51b8152600401620004359062001590565b60045460408051918252602082018390527f25de84a545fa2e920c87ed61608c1a1e73712c6f83720133126e05145a028cc4910160405180910390a1600455565b6001546001600160a01b0316331462000f2a5760405162461bcd60e51b8152600401620004359062001590565b6001600160a01b03811662000f765760405162461bcd60e51b81526020600482015260116024820152705443463a207a65726f206164647265737360781b604482015260640162000435565b600280546001600160a01b0319166001600160a01b03838116918217909255600154604051919216907f38d16b8cac22d99fc7c124b9cd0de2d3fa1faef420bfe791d8c362d765e2270090600090a350565b6000805460011462000fee5760405162461bcd60e51b81526004016200043590620015b8565b600260005560055460ff1615620010195760405162461bcd60e51b81526004016200043590620015e5565b6001600160a01b038216158015906200103b57506001600160a01b0382163314155b620010825760405162461bcd60e51b81526020600482015260166024820152755443463a20726566657272657220696e76616c69646f60501b604482015260640162000435565b60006200108e6200139d565b9050803414620010d85760405162461bcd60e51b81526020600482015260146024820152735443463a2076616c6f7220696e636f727265746f60601b604482015260640162000435565b620010e38462001196565b91506000600a600454620010f89190620016e9565b9050600062001108823462001762565b905062001116858362001289565b6003546200112e906001600160a01b03168262001289565b6001600160a01b0380861690339086166000805160206200312e8339815191526200115a8a806200160a565b6200116960208d018d6200160a565b346000604051620011809695949392919062001684565b60405180910390a4505060016000555092915050565b60008080620011ac60a085016080860162001504565b6001600160a01b031614620011d357620011cd60a084016080850162001504565b620011d5565b335b9050620011e383806200160a565b620011f260208601866200160a565b62001204606088016040890162001778565b6060880135866200121c60c08b0160a08c0162001423565b6200122e60e08c0160c08d0162001423565b620012416101008d0160e08e0162001423565b6040516200124f90620013be565b620012649a999897969594939291906200179d565b604051809103906000f08015801562001281573d6000803e3d6000fd5b509392505050565b6000826001600160a01b03168260405160006040518083038185875af1925050503d8060008114620012d8576040519150601f19603f3d011682016040523d82523d6000602084013e620012dd565b606091505b5050905080620013305760405162461bcd60e51b815260206004820152601960248201527f5443463a207472616e73666572656e6369612066616c686f7500000000000000604482015260640162000435565b505050565b6001600160a01b03811660009081526006602052604090205480620013985760405162461bcd60e51b81526020600482015260186024820152775443463a206d6f656461206e616f207375706f727461646160401b604482015260640162000435565b919050565b6000600a6004546009620013b291906200170c565b62000e8a9190620016e9565b61191d806200181183390190565b80356001600160a01b03811681146200139857600080fd5b60008060408385031215620013f857600080fd5b6200140383620013cc565b946020939093013593505050565b80151581146200142057600080fd5b50565b6000602082840312156200143657600080fd5b813562000e778162001411565b600061010082840312156200145757600080fd5b50919050565b6000602082840312156200147057600080fd5b813567ffffffffffffffff8111156200148857600080fd5b620014968482850162001443565b949350505050565b600080600060608486031215620014b457600080fd5b833567ffffffffffffffff811115620014cc57600080fd5b620014da8682870162001443565b935050620014eb60208501620013cc565b9150620014fb60408501620013cc565b90509250925092565b6000602082840312156200151757600080fd5b62000e7782620013cc565b600080604083850312156200153657600080fd5b823567ffffffffffffffff8111156200154e57600080fd5b6200155c8582860162001443565b9250506200156d60208401620013cc565b90509250929050565b6000602082840312156200158957600080fd5b5035919050565b6020808252600e908201526d2a21a31d103737ba1037bbb732b960911b604082015260600190565b6020808252601390820152721510d18e881c99595b9d1c985b9d0818d85b1b606a1b604082015260600190565b6020808252600b908201526a1510d18e881c185d5cd95960aa1b604082015260600190565b6000808335601e198436030181126200162257600080fd5b83018035915067ffffffffffffffff8211156200163e57600080fd5b6020019150368190038213156200165457600080fd5b9250929050565b81835281816020850137506000828201602090810191909152601f909101601f19169091010190565b6080815260006200169a60808301888a6200165b565b8281036020840152620016af8187896200165b565b604084019590955250506001600160a01b0391909116606090910152949350505050565b634e487b7160e01b600052601160045260246000fd5b6000826200170757634e487b7160e01b600052601260045260246000fd5b500490565b8082028115828204841417620017265762001726620016d3565b92915050565b6000602082840312156200173f57600080fd5b815162000e778162001411565b80820180821115620017265762001726620016d3565b81810381811115620017265762001726620016d3565b6000602082840312156200178b57600080fd5b813560ff8116811462000e7757600080fd5b6000610100808352620017b48184018d8f6200165b565b90508281036020840152620017cb818b8d6200165b565b60ff999099166040840152505060608101959095526001600160a01b0393909316608085015290151560a0840152151560c0830152151560e09091015294935050505056fe60806040523480156200001157600080fd5b506040516200191d3803806200191d833981016040819052620000349162000400565b6001600160a01b038416620000845760405162461bcd60e51b81526020600482015260116024820152702a21a299181d103d32b9379037bbb732b960791b60448201526064015b60405180910390fd5b6000885111620000cb5760405162461bcd60e51b815260206004820152601160248201527054434532303a20656d707479206e616d6560781b60448201526064016200007b565b60008751116200011e5760405162461bcd60e51b815260206004820152601360248201527f54434532303a20656d7074792073796d626f6c0000000000000000000000000060448201526064016200007b565b60128660ff161115620001745760405162461bcd60e51b815260206004820152601460248201527f54434532303a20646563696d616c73203e20313800000000000000000000000060448201526064016200007b565b600062000182898262000568565b50600162000191888262000568565b506002805460ff881661ffff1990911617610100851515021763ffff00001916620100008415150263ff00000019161763010000008315150217600160201b600160c01b0319166401000000006001600160a01b0387160217905584156200021a576200021a846200020860ff8916600a62000749565b6200021490886200075e565b62000228565b50505050505050506200078e565b6001600160a01b038216620002805760405162461bcd60e51b815260206004820152601360248201527f54434532303a206d696e7420746f207a65726f0000000000000000000000000060448201526064016200007b565b806004600082825462000294919062000778565b90915550506001600160a01b03821660009081526005602052604081208054839290620002c390849062000778565b90915550506040518181526001600160a01b038316906000907fddf252ad1be2c89b69c2b068fc378daa952ba7f163c4a11628f55a4df523b3ef9060200160405180910390a35050565b634e487b7160e01b600052604160045260246000fd5b600082601f8301126200033557600080fd5b81516001600160401b03808211156200035257620003526200030d565b604051601f8301601f19908116603f011681019082821181831017156200037d576200037d6200030d565b816040528381526020925086838588010111156200039a57600080fd5b600091505b83821015620003be57858201830151818301840152908201906200039f565b600093810190920192909252949350505050565b80516001600160a01b0381168114620003ea57600080fd5b919050565b80518015158114620003ea57600080fd5b600080600080600080600080610100898b0312156200041e57600080fd5b88516001600160401b03808211156200043657600080fd5b620004448c838d0162000323565b995060208b01519150808211156200045b57600080fd5b506200046a8b828c0162000323565b975050604089015160ff811681146200048257600080fd5b60608a015190965094506200049a60808a01620003d2565b9350620004aa60a08a01620003ef565b9250620004ba60c08a01620003ef565b9150620004ca60e08a01620003ef565b90509295985092959890939650565b600181811c90821680620004ee57607f821691505b6020821081036200050f57634e487b7160e01b600052602260045260246000fd5b50919050565b601f8211156200056357600081815260208120601f850160051c810160208610156200053e5750805b601f850160051c820191505b818110156200055f578281556001016200054a565b5050505b505050565b81516001600160401b038111156200058457620005846200030d565b6200059c81620005958454620004d9565b8462000515565b602080601f831160018114620005d45760008415620005bb5750858301515b600019600386901b1c1916600185901b1785556200055f565b600085815260208120601f198616915b828110156200060557888601518255948401946001909101908401620005e4565b5085821015620006245787850151600019600388901b60f8161c191681555b5050505050600190811b01905550565b634e487b7160e01b600052601160045260246000fd5b600181815b808511156200068b5781600019048211156200066f576200066f62000634565b808516156200067d57918102915b93841c93908002906200064f565b509250929050565b600082620006a45750600162000743565b81620006b35750600062000743565b8160018114620006cc5760028114620006d757620006f7565b600191505062000743565b60ff841115620006eb57620006eb62000634565b50506001821b62000743565b5060208310610133831016604e8410600b84101617156200071c575081810a62000743565b6200072883836200064a565b80600019048211156200073f576200073f62000634565b0290505b92915050565b600062000757838362000693565b9392505050565b808202811582820484141762000743576200074362000634565b8082018082111562000743576200074362000634565b61117f806200079e6000396000f3fe608060405234801561001057600080fd5b506004361061014d5760003560e01c806370a08231116100c357806395d89b411161007c57806395d89b41146102b5578063a07c7ce4146102bd578063a9059cbb146102d0578063dd62ed3e146102e3578063e30c39781461031c578063f2fde38b1461032d57600080fd5b806370a0823114610235578063715018a61461025e57806379ba50971461026657806379cc67901461026e5780638456cb59146102815780638da5cb5b1461028957600080fd5b8063367758471161011557806336775847146101cd5780633f4ba83a146101e157806340c10f19146101eb57806342966c68146101fe5780634bf365df146102115780635c975abb1461022357600080fd5b806306fdde0314610152578063095ea7b31461017057806318160ddd1461019357806323b872dd146101a5578063313ce567146101b8575b600080fd5b61015a610340565b6040516101679190610f6b565b60405180910390f35b61018361017e366004610fd5565b6103d2565b6040519015158152602001610167565b6004545b604051908152602001610167565b6101836101b3366004610fff565b61043f565b60025460405160ff9091168152602001610167565b600254610183906301000000900460ff1681565b6101e9610543565b005b6101e96101f9366004610fd5565b610655565b6101e961020c36600461103b565b6106eb565b60025461018390610100900460ff1681565b600354600160a01b900460ff16610183565b610197610243366004611054565b6001600160a01b031660009081526005602052604090205490565b6101e961074a565b6101e96107e0565b6101e961027c366004610fd5565b6108b8565b6101e96109b5565b600254600160201b90046001600160a01b03165b6040516001600160a01b039091168152602001610167565b61015a610acc565b6002546101839062010000900460ff1681565b6101836102de366004610fd5565b610adb565b6101976102f1366004611076565b6001600160a01b03918216600090815260066020908152604080832093909416825291909152205490565b6003546001600160a01b031661029d565b6101e961033b366004611054565b610b3c565b60606000805461034f906110a9565b80601f016020809104026020016040519081016040528092919081815260200182805461037b906110a9565b80156103c85780601f1061039d576101008083540402835291602001916103c8565b820191906000526020600020905b8154815290600101906020018083116103ab57829003601f168201915b5050505050905090565b3360008181526006602090815260408083206001600160a01b038716808552925280832085905551919290917f8c5be1e5ebec7d5bd14f71427d1e84f3dd0314c0f7b2291e5b200ac8c7c3b9259061042d9086815260200190565b60405180910390a35060015b92915050565b600354600090600160a01b900460ff16156104915760405162461bcd60e51b815260206004820152600d60248201526c1510d14c8c0e881c185d5cd959609a1b60448201526064015b60405180910390fd5b6001600160a01b0384166000908152600660209081526040808320338452909152902054828110156105055760405162461bcd60e51b815260206004820152601d60248201527f54434532303a20696e73756666696369656e7420616c6c6f77616e63650000006044820152606401610488565b6001600160a01b038516600090815260066020908152604080832033845290915290208382039055610538858585610c13565b506001949350505050565b600254600160201b90046001600160a01b031633146105745760405162461bcd60e51b8152600401610488906110e3565b6002546301000000900460ff166105c55760405162461bcd60e51b81526020600482015260156024820152741510d14c8c0e881c185d5cd948191a5cd8589b1959605a1b6044820152606401610488565b600354600160a01b900460ff166106125760405162461bcd60e51b81526020600482015260116024820152701510d14c8c0e881b9bdd081c185d5cd959607a1b6044820152606401610488565b6003805460ff60a01b191690556040513381527f5db9ee0a495bf2e6ff9c91a7834c1ba4fdd244a5e8aa4e537bd38aeae4b073aa906020015b60405180910390a1565b600254600160201b90046001600160a01b031633146106865760405162461bcd60e51b8152600401610488906110e3565b600254610100900460ff166106dd5760405162461bcd60e51b815260206004820152601760248201527f54434532303a206d696e74696e672064697361626c65640000000000000000006044820152606401610488565b6106e78282610db9565b5050565b60025462010000900460ff1661073d5760405162461bcd60e51b81526020600482015260176024820152761510d14c8c0e88189d5c9b9a5b99c8191a5cd8589b1959604a1b6044820152606401610488565b6107473382610e8f565b50565b600254600160201b90046001600160a01b0316331461077b5760405162461bcd60e51b8152600401610488906110e3565b600254604051600091600160201b90046001600160a01b0316907f8be0079c531659141344cd1fd0a4f28419497f9722a3daafe3b4186f6b6457e0908390a360028054640100000000600160c01b0319169055600380546001600160a01b0319169055565b6003546001600160a01b0316331461083a5760405162461bcd60e51b815260206004820152601860248201527f54434532303a206e6f742070656e64696e67206f776e657200000000000000006044820152606401610488565b6003546002546040516001600160a01b0392831692600160201b909204909116907f8be0079c531659141344cd1fd0a4f28419497f9722a3daafe3b4186f6b6457e090600090a36003805460028054640100000000600160c01b0319166001600160a01b038316600160201b021790556001600160a01b0319169055565b60025462010000900460ff1661090a5760405162461bcd60e51b81526020600482015260176024820152761510d14c8c0e88189d5c9b9a5b99c8191a5cd8589b1959604a1b6044820152606401610488565b6001600160a01b03821660009081526006602090815260408083203384529091529020548181101561097e5760405162461bcd60e51b815260206004820152601d60248201527f54434532303a20696e73756666696369656e7420616c6c6f77616e63650000006044820152606401610488565b6001600160a01b0383166000908152600660209081526040808320338452909152902082820390556109b08383610e8f565b505050565b600254600160201b90046001600160a01b031633146109e65760405162461bcd60e51b8152600401610488906110e3565b6002546301000000900460ff16610a375760405162461bcd60e51b81526020600482015260156024820152741510d14c8c0e881c185d5cd948191a5cd8589b1959605a1b6044820152606401610488565b600354600160a01b900460ff1615610a895760405162461bcd60e51b81526020600482015260156024820152741510d14c8c0e88185b1c9958591e481c185d5cd959605a1b6044820152606401610488565b6003805460ff60a01b1916600160a01b1790556040513381527f62e78cea01bee320cd4e420270b5ea74000d11b0c9f74754ebdbfc544b05a2589060200161064b565b60606001805461034f906110a9565b600354600090600160a01b900460ff1615610b285760405162461bcd60e51b815260206004820152600d60248201526c1510d14c8c0e881c185d5cd959609a1b6044820152606401610488565b610b33338484610c13565b50600192915050565b600254600160201b90046001600160a01b03163314610b6d5760405162461bcd60e51b8152600401610488906110e3565b6001600160a01b038116610bb95760405162461bcd60e51b815260206004820152601360248201527254434532303a207a65726f206164647265737360681b6044820152606401610488565b600380546001600160a01b0319166001600160a01b038381169182179092556002546040519192600160201b90910416907f38d16b8cac22d99fc7c124b9cd0de2d3fa1faef420bfe791d8c362d765e2270090600090a350565b6001600160a01b038316610c695760405162461bcd60e51b815260206004820152601960248201527f54434532303a207472616e736665722066726f6d207a65726f000000000000006044820152606401610488565b6001600160a01b038216610cbf5760405162461bcd60e51b815260206004820152601760248201527f54434532303a207472616e7366657220746f207a65726f0000000000000000006044820152606401610488565b6001600160a01b038316600090815260056020526040902054811115610d275760405162461bcd60e51b815260206004820152601b60248201527f54434532303a20696e73756666696369656e742062616c616e636500000000006044820152606401610488565b6001600160a01b038084166000908152600560205260408082208054859003905591841681529081208054839290610d60908490611123565b92505081905550816001600160a01b0316836001600160a01b03167fddf252ad1be2c89b69c2b068fc378daa952ba7f163c4a11628f55a4df523b3ef83604051610dac91815260200190565b60405180910390a3505050565b6001600160a01b038216610e055760405162461bcd60e51b815260206004820152601360248201527254434532303a206d696e7420746f207a65726f60681b6044820152606401610488565b8060046000828254610e179190611123565b90915550506001600160a01b03821660009081526005602052604081208054839290610e44908490611123565b90915550506040518181526001600160a01b038316906000907fddf252ad1be2c89b69c2b068fc378daa952ba7f163c4a11628f55a4df523b3ef906020015b60405180910390a35050565b6001600160a01b038216600090815260056020526040902054811115610ef75760405162461bcd60e51b815260206004820152601b60248201527f54434532303a206275726e20657863656564732062616c616e636500000000006044820152606401610488565b6001600160a01b03821660009081526005602052604081208054839003905560048054839290610f28908490611136565b90915550506040518181526000906001600160a01b038416907fddf252ad1be2c89b69c2b068fc378daa952ba7f163c4a11628f55a4df523b3ef90602001610e83565b600060208083528351808285015260005b81811015610f9857858101830151858201604001528201610f7c565b506000604082860101526040601f19601f8301168501019250505092915050565b80356001600160a01b0381168114610fd057600080fd5b919050565b60008060408385031215610fe857600080fd5b610ff183610fb9565b946020939093013593505050565b60008060006060848603121561101457600080fd5b61101d84610fb9565b925061102b60208501610fb9565b9150604084013590509250925092565b60006020828403121561104d57600080fd5b5035919050565b60006020828403121561106657600080fd5b61106f82610fb9565b9392505050565b6000806040838503121561108957600080fd5b61109283610fb9565b91506110a060208401610fb9565b90509250929050565b600181811c908216806110bd57607f821691505b6020821081036110dd57634e487b7160e01b600052602260045260246000fd5b50919050565b60208082526010908201526f2a21a299181d103737ba1037bbb732b960811b604082015260600190565b634e487b7160e01b600052601160045260246000fd5b808201808211156104395761043961110d565b818103818111156104395761043961110d56fea2646970667358221220c647b0bc1403dfa720af2aa871388302892a61cd1f440cdf9031bc9b1a8f7a4c64736f6c63430008140033d646a91d1f5a49d7c5a8de17b74f1f455ae7fdafeafc0d8621daaaef060f8594a2646970667358221220d3547b63510710d4643fbd1b338a15d7a1418bf0915fdde3844c81ebfe79c4cc64736f6c63430008140033","opcodes":"PUSH1 0x80 PUSH1 0x40 MSTORE PUSH1 0x1 PUSH1 0x0 SSTORE CALLVALUE DUP1 ISZERO PUSH2 0x15 JUMPI PUSH1 0x0 DUP1 REVERT JUMPDEST POP PUSH1 0x40 MLOAD PUSH2 0x3284 CODESIZE SUB DUP1 PUSH2 0x3284 DUP4 CODECOPY DUP2 ADD PUSH1 0x40 DUP2 SWAP1 MSTORE PUSH2 0x34 SWAP2 PUSH2 0xB8 JUMP JUMPDEST PUSH1 0x1 PUSH1 0x1 PUSH1 0xA0 SHL SUB DUP3 AND PUSH2 0x81 JUMPI PUSH1 0x40 MLOAD PUSH3 0x461BCD PUSH1 0xE5 SHL DUP2 MSTORE PUSH1 0x20 PUSH1 0x4 DUP3 ADD MSTORE PUSH1 0x10 PUSH1 0x24 DUP3 ADD MSTORE PUSH16 0x1510D18E881E995C9BC81DD85B1B195D PUSH1 0x82 SHL PUSH1 0x44 DUP3 ADD MSTORE PUSH1 0x64 ADD PUSH1 0x40 MLOAD DUP1 SWAP2 SUB SWAP1 REVERT JUMPDEST PUSH1 0x1 DUP1 SLOAD CALLER PUSH1 0x1 PUSH1 0x1 PUSH1 0xA0 SHL SUB NOT SWAP2 DUP3 AND OR SWAP1 SWAP2 SSTORE PUSH1 0x3 DUP1 SLOAD SWAP1 SWAP2 AND PUSH1 0x1 PUSH1 0x1 PUSH1 0xA0 SHL SUB SWAP4 SWAP1 SWAP4 AND SWAP3 SWAP1 SWAP3 OR SWAP1 SWAP2 SSTORE PUSH1 0x4 SSTORE PUSH2 0xF2 JUMP JUMPDEST PUSH1 0x0 DUP1 PUSH1 0x40 DUP4 DUP6 SUB SLT ISZERO PUSH2 0xCB JUMPI PUSH1 0x0 DUP1 REVERT JUMPDEST DUP3 MLOAD PUSH1 0x1 PUSH1 0x1 PUSH1 0xA0 SHL SUB DUP2 AND DUP2 EQ PUSH2 0xE2 JUMPI PUSH1 0x0 DUP1 REVERT JUMPDEST PUSH1 0x20 SWAP4 SWAP1 SWAP4 ADD MLOAD SWAP3 SWAP5 SWAP3 SWAP4 POP POP POP JUMP JUMPDEST PUSH2 0x3183 DUP1 PUSH2 0x101 PUSH1 0x0 CODECOPY PUSH1 0x0 RETURN INVALID PUSH1 0x80 PUSH1 0x40 MSTORE PUSH1 0x4 CALLDATASIZE LT PUSH3 0x13B JUMPI PUSH1 0x0 CALLDATALOAD PUSH1 0xE0 SHR DUP1 PUSH4 0x932EBF2D GT PUSH3 0xAD JUMPI DUP1 PUSH4 0xE30C3978 GT PUSH3 0x6C JUMPI DUP1 PUSH4 0xE30C3978 EQ PUSH3 0x357 JUMPI DUP1 PUSH4 0xEDB12D8A EQ PUSH3 0x379 JUMPI DUP1 PUSH4 0xF2FDE38B EQ PUSH3 0x3AA JUMPI DUP1 PUSH4 0xF9CA78B6 EQ PUSH3 0x3CF JUMPI DUP1 PUSH4 0xFA2AF9DA EQ PUSH3 0x3E6 JUMPI PUSH1 0x0 DUP1 REVERT JUMPDEST DUP1 PUSH4 0x932EBF2D EQ PUSH3 0x2A9 JUMPI DUP1 PUSH4 0xC00FA4BD EQ PUSH3 0x2CE JUMPI DUP1 PUSH4 0xC7876EA4 EQ PUSH3 0x302 JUMPI DUP1 PUSH4 0xC8788134 EQ PUSH3 0x31A JUMPI DUP1 PUSH4 0xDE4B3262 EQ PUSH3 0x332 JUMPI PUSH1 0x0 DUP1 REVERT JUMPDEST DUP1 PUSH4 0x715018A6 GT PUSH3 0xFA JUMPI DUP1 PUSH4 0x715018A6 EQ PUSH3 0x20D JUMPI DUP1 PUSH4 0x74ABA253 EQ PUSH3 0x225 JUMPI DUP1 PUSH4 0x79BA5097 EQ PUSH3 0x24A JUMPI DUP1 PUSH4 0x8831E9CF EQ PUSH3 0x262 JUMPI DUP1 PUSH4 0x8DA5CB5B EQ PUSH3 0x287 JUMPI PUSH1 0x0 DUP1 REVERT JUMPDEST DUP1 PUSH4 0x90376C2 EQ PUSH3 0x148 JUMPI DUP1 PUSH4 0x16C38B3C EQ PUSH3 0x16F JUMPI DUP1 PUSH4 0x2BC6DEDB EQ PUSH3 0x194 JUMPI DUP1 PUSH4 0x3CCFD60B EQ PUSH3 0x1C8 JUMPI DUP1 PUSH4 0x5C975ABB EQ PUSH3 0x1E0 JUMPI PUSH1 0x0 DUP1 REVERT JUMPDEST CALLDATASIZE PUSH3 0x143 JUMPI STOP JUMPDEST PUSH1 0x0 DUP1 REVERT JUMPDEST CALLVALUE DUP1 ISZERO PUSH3 0x155 JUMPI PUSH1 0x0 DUP1 REVERT JUMPDEST POP PUSH3 0x16D PUSH3 0x167 CALLDATASIZE PUSH1 0x4 PUSH3 0x13E4 JUMP JUMPDEST PUSH3 0x408 JUMP JUMPDEST STOP JUMPDEST CALLVALUE DUP1 ISZERO PUSH3 0x17C JUMPI PUSH1 0x0 DUP1 REVERT JUMPDEST POP PUSH3 0x16D PUSH3 0x18E CALLDATASIZE PUSH1 0x4 PUSH3 0x1423 JUMP JUMPDEST PUSH3 0x4E5 JUMP JUMPDEST PUSH3 0x1AB PUSH3 0x1A5 CALLDATASIZE PUSH1 0x4 PUSH3 0x145D JUMP JUMPDEST PUSH3 0x525 JUMP JUMPDEST PUSH1 0x40 MLOAD PUSH1 0x1 PUSH1 0x1 PUSH1 0xA0 SHL SUB SWAP1 SWAP2 AND DUP2 MSTORE PUSH1 0x20 ADD JUMPDEST PUSH1 0x40 MLOAD DUP1 SWAP2 SUB SWAP1 RETURN JUMPDEST CALLVALUE DUP1 ISZERO PUSH3 0x1D5 JUMPI PUSH1 0x0 DUP1 REVERT JUMPDEST POP PUSH3 0x16D PUSH3 0x647 JUMP JUMPDEST CALLVALUE DUP1 ISZERO PUSH3 0x1ED JUMPI PUSH1 0x0 DUP1 REVERT JUMPDEST POP PUSH1 0x5 SLOAD PUSH3 0x1FC SWAP1 PUSH1 0xFF AND DUP2 JUMP JUMPDEST PUSH1 0x40 MLOAD SWAP1 ISZERO ISZERO DUP2 MSTORE PUSH1 0x20 ADD PUSH3 0x1BF JUMP JUMPDEST CALLVALUE DUP1 ISZERO PUSH3 0x21A JUMPI PUSH1 0x0 DUP1 REVERT JUMPDEST POP PUSH3 0x16D PUSH3 0x741 JUMP JUMPDEST CALLVALUE DUP1 ISZERO PUSH3 0x232 JUMPI PUSH1 0x0 DUP1 REVERT JUMPDEST POP PUSH3 0x1AB PUSH3 0x244 CALLDATASIZE PUSH1 0x4 PUSH3 0x149E JUMP JUMPDEST PUSH3 0x7C4 JUMP JUMPDEST CALLVALUE DUP1 ISZERO PUSH3 0x257 JUMPI PUSH1 0x0 DUP1 REVERT JUMPDEST POP PUSH3 0x16D PUSH3 0xAD5 JUMP JUMPDEST CALLVALUE DUP1 ISZERO PUSH3 0x26F JUMPI PUSH1 0x0 DUP1 REVERT JUMPDEST POP PUSH3 0x16D PUSH3 0x281 CALLDATASIZE PUSH1 0x4 PUSH3 0x1504 JUMP JUMPDEST PUSH3 0xB90 JUMP JUMPDEST CALLVALUE DUP1 ISZERO PUSH3 0x294 JUMPI PUSH1 0x0 DUP1 REVERT JUMPDEST POP PUSH1 0x1 SLOAD PUSH3 0x1AB SWAP1 PUSH1 0x1 PUSH1 0x1 PUSH1 0xA0 SHL SUB AND DUP2 JUMP JUMPDEST CALLVALUE DUP1 ISZERO PUSH3 0x2B6 JUMPI PUSH1 0x0 DUP1 REVERT JUMPDEST POP PUSH3 0x1AB PUSH3 0x2C8 CALLDATASIZE PUSH1 0x4 PUSH3 0x1522 JUMP JUMPDEST PUSH3 0xC65 JUMP JUMPDEST CALLVALUE DUP1 ISZERO PUSH3 0x2DB JUMPI PUSH1 0x0 DUP1 REVERT JUMPDEST POP PUSH3 0x2F3 PUSH3 0x2ED CALLDATASIZE PUSH1 0x4 PUSH3 0x1504 JUMP JUMPDEST PUSH3 0xDF9 JUMP JUMPDEST PUSH1 0x40 MLOAD SWAP1 DUP2 MSTORE PUSH1 0x20 ADD PUSH3 0x1BF JUMP JUMPDEST CALLVALUE DUP1 ISZERO PUSH3 0x30F JUMPI PUSH1 0x0 DUP1 REVERT JUMPDEST POP PUSH3 0x2F3 PUSH1 0x4 SLOAD DUP2 JUMP JUMPDEST CALLVALUE DUP1 ISZERO PUSH3 0x327 JUMPI PUSH1 0x0 DUP1 REVERT JUMPDEST POP PUSH3 0x2F3 PUSH3 0xE7E JUMP JUMPDEST CALLVALUE DUP1 ISZERO PUSH3 0x33F JUMPI PUSH1 0x0 DUP1 REVERT JUMPDEST POP PUSH3 0x16D PUSH3 0x351 CALLDATASIZE PUSH1 0x4 PUSH3 0x1576 JUMP JUMPDEST PUSH3 0xE8F JUMP JUMPDEST CALLVALUE DUP1 ISZERO PUSH3 0x364 JUMPI PUSH1 0x0 DUP1 REVERT JUMPDEST POP PUSH1 0x2 SLOAD PUSH3 0x1AB SWAP1 PUSH1 0x1 PUSH1 0x1 PUSH1 0xA0 SHL SUB AND DUP2 JUMP JUMPDEST CALLVALUE DUP1 ISZERO PUSH3 0x386 JUMPI PUSH1 0x0 DUP1 REVERT JUMPDEST POP PUSH3 0x2F3 PUSH3 0x398 CALLDATASIZE PUSH1 0x4 PUSH3 0x1504 JUMP JUMPDEST PUSH1 0x6 PUSH1 0x20 MSTORE PUSH1 0x0 SWAP1 DUP2 MSTORE PUSH1 0x40 SWAP1 KECCAK256 SLOAD DUP2 JUMP JUMPDEST CALLVALUE DUP1 ISZERO PUSH3 0x3B7 JUMPI PUSH1 0x0 DUP1 REVERT JUMPDEST POP PUSH3 0x16D PUSH3 0x3C9 CALLDATASIZE PUSH1 0x4 PUSH3 0x1504 JUMP JUMPDEST PUSH3 0xEFD JUMP JUMPDEST PUSH3 0x1AB PUSH3 0x3E0 CALLDATASIZE PUSH1 0x4 PUSH3 0x1522 JUMP JUMPDEST PUSH3 0xFC8 JUMP JUMPDEST CALLVALUE DUP1 ISZERO PUSH3 0x3F3 JUMPI PUSH1 0x0 DUP1 REVERT JUMPDEST POP PUSH1 0x3 SLOAD PUSH3 0x1AB SWAP1 PUSH1 0x1 PUSH1 0x1 PUSH1 0xA0 SHL SUB AND DUP2 JUMP JUMPDEST PUSH1 0x1 SLOAD PUSH1 0x1 PUSH1 0x1 PUSH1 0xA0 SHL SUB AND CALLER EQ PUSH3 0x43E JUMPI PUSH1 0x40 MLOAD PUSH3 0x461BCD PUSH1 0xE5 SHL DUP2 MSTORE PUSH1 0x4 ADD PUSH3 0x435 SWAP1 PUSH3 0x1590 JUMP JUMPDEST PUSH1 0x40 MLOAD DUP1 SWAP2 SUB SWAP1 REVERT JUMPDEST PUSH1 0x1 PUSH1 0x1 PUSH1 0xA0 SHL SUB DUP3 AND PUSH3 0x48B JUMPI PUSH1 0x40 MLOAD PUSH3 0x461BCD PUSH1 0xE5 SHL DUP2 MSTORE PUSH1 0x20 PUSH1 0x4 DUP3 ADD MSTORE PUSH1 0x12 PUSH1 0x24 DUP3 ADD MSTORE PUSH18 0x5443463A207A65726F2063757272656E6379 PUSH1 0x70 SHL PUSH1 0x44 DUP3 ADD MSTORE PUSH1 0x64 ADD PUSH3 0x435 JUMP JUMPDEST PUSH1 0x1 PUSH1 0x1 PUSH1 0xA0 SHL SUB DUP3 AND PUSH1 0x0 DUP2 DUP2 MSTORE PUSH1 0x6 PUSH1 0x20 MSTORE PUSH1 0x40 SWAP1 DUP2 SWAP1 KECCAK256 DUP4 SWAP1 SSTORE MLOAD PUSH32 0xE7012F76CE1A8904F23971A02C0DD6E315FA1ADA78F5A8054F4E35E9EDC9D57F SWAP1 PUSH3 0x4D9 SWAP1 DUP5 DUP2 MSTORE PUSH1 0x20 ADD SWAP1 JUMP JUMPDEST PUSH1 0x40 MLOAD DUP1 SWAP2 SUB SWAP1 LOG2 POP POP JUMP JUMPDEST PUSH1 0x1 SLOAD PUSH1 0x1 PUSH1 0x1 PUSH1 0xA0 SHL SUB AND CALLER EQ PUSH3 0x512 JUMPI PUSH1 0x40 MLOAD PUSH3 0x461BCD PUSH1 0xE5 SHL DUP2 MSTORE PUSH1 0x4 ADD PUSH3 0x435 SWAP1 PUSH3 0x1590 JUMP JUMPDEST PUSH1 0x5 DUP1 SLOAD PUSH1 0xFF NOT AND SWAP2 ISZERO ISZERO SWAP2 SWAP1 SWAP2 OR SWAP1 SSTORE JUMP JUMPDEST PUSH1 0x0 DUP1 SLOAD PUSH1 0x1 EQ PUSH3 0x54B JUMPI PUSH1 0x40 MLOAD PUSH3 0x461BCD PUSH1 0xE5 SHL DUP2 MSTORE PUSH1 0x4 ADD PUSH3 0x435 SWAP1 PUSH3 0x15B8 JUMP JUMPDEST PUSH1 0x2 PUSH1 0x0 SSTORE PUSH1 0x5 SLOAD PUSH1 0xFF AND ISZERO PUSH3 0x576 JUMPI PUSH1 0x40 MLOAD PUSH3 0x461BCD PUSH1 0xE5 SHL DUP2 MSTORE PUSH1 0x4 ADD PUSH3 0x435 SWAP1 PUSH3 0x15E5 JUMP JUMPDEST PUSH1 0x4 SLOAD CALLVALUE EQ PUSH3 0x5C0 JUMPI PUSH1 0x40 MLOAD PUSH3 0x461BCD PUSH1 0xE5 SHL DUP2 MSTORE PUSH1 0x20 PUSH1 0x4 DUP3 ADD MSTORE PUSH1 0x14 PUSH1 0x24 DUP3 ADD MSTORE PUSH20 0x5443463A2076616C6F7220696E636F727265746F PUSH1 0x60 SHL PUSH1 0x44 DUP3 ADD MSTORE PUSH1 0x64 ADD PUSH3 0x435 JUMP JUMPDEST PUSH3 0x5CB DUP3 PUSH3 0x1196 JUMP JUMPDEST PUSH1 0x3 SLOAD SWAP1 SWAP2 POP PUSH3 0x5E6 SWAP1 PUSH1 0x1 PUSH1 0x1 PUSH1 0xA0 SHL SUB AND CALLVALUE PUSH3 0x1289 JUMP JUMPDEST PUSH1 0x0 CALLER PUSH1 0x1 PUSH1 0x1 PUSH1 0xA0 SHL SUB DUP4 AND PUSH1 0x0 DUP1 MLOAD PUSH1 0x20 PUSH3 0x312E DUP4 CODECOPY DUP2 MLOAD SWAP2 MSTORE PUSH3 0x60F DUP7 DUP1 PUSH3 0x160A JUMP JUMPDEST PUSH3 0x61E PUSH1 0x20 DUP10 ADD DUP10 PUSH3 0x160A JUMP JUMPDEST CALLVALUE PUSH1 0x0 PUSH1 0x40 MLOAD PUSH3 0x635 SWAP7 SWAP6 SWAP5 SWAP4 SWAP3 SWAP2 SWAP1 PUSH3 0x1684 JUMP JUMPDEST PUSH1 0x40 MLOAD DUP1 SWAP2 SUB SWAP1 LOG4 PUSH1 0x1 PUSH1 0x0 SSTORE SWAP2 SWAP1 POP JUMP JUMPDEST PUSH1 0x1 SLOAD PUSH1 0x1 PUSH1 0x1 PUSH1 0xA0 SHL SUB AND CALLER EQ PUSH3 0x674 JUMPI PUSH1 0x40 MLOAD PUSH3 0x461BCD PUSH1 0xE5 SHL DUP2 MSTORE PUSH1 0x4 ADD PUSH3 0x435 SWAP1 PUSH3 0x1590 JUMP JUMPDEST PUSH1 0x0 SLOAD PUSH1 0x1 EQ PUSH3 0x699 JUMPI PUSH1 0x40 MLOAD PUSH3 0x461BCD PUSH1 0xE5 SHL DUP2 MSTORE PUSH1 0x4 ADD PUSH3 0x435 SWAP1 PUSH3 0x15B8 JUMP JUMPDEST PUSH1 0x2 PUSH1 0x0 SSTORE SELFBALANCE DUP1 PUSH3 0x6DF JUMPI PUSH1 0x40 MLOAD PUSH3 0x461BCD PUSH1 0xE5 SHL DUP2 MSTORE PUSH1 0x20 PUSH1 0x4 DUP3 ADD MSTORE PUSH1 0xE PUSH1 0x24 DUP3 ADD MSTORE PUSH14 0x5443463A2073656D2073616C646F PUSH1 0x90 SHL PUSH1 0x44 DUP3 ADD MSTORE PUSH1 0x64 ADD PUSH3 0x435 JUMP JUMPDEST PUSH1 0x1 SLOAD PUSH3 0x6F7 SWAP1 PUSH1 0x1 PUSH1 0x1 PUSH1 0xA0 SHL SUB AND DUP3 PUSH3 0x1289 JUMP JUMPDEST PUSH1 0x1 SLOAD PUSH1 0x40 MLOAD DUP3 DUP2 MSTORE PUSH1 0x1 PUSH1 0x1 PUSH1 0xA0 SHL SUB SWAP1 SWAP2 AND SWAP1 PUSH32 0x7084F5476618D8E60B11EF0D7D3F06914655ADB8793E28FF7F018D4C76D505D5 SWAP1 PUSH1 0x20 ADD PUSH1 0x40 MLOAD DUP1 SWAP2 SUB SWAP1 LOG2 POP PUSH1 0x1 PUSH1 0x0 SSTORE JUMP JUMPDEST PUSH1 0x1 SLOAD PUSH1 0x1 PUSH1 0x1 PUSH1 0xA0 SHL SUB AND CALLER EQ PUSH3 0x76E JUMPI PUSH1 0x40 MLOAD PUSH3 0x461BCD PUSH1 0xE5 SHL DUP2 MSTORE PUSH1 0x4 ADD PUSH3 0x435 SWAP1 PUSH3 0x1590 JUMP JUMPDEST PUSH1 0x1 SLOAD PUSH1 0x40 MLOAD PUSH1 0x0 SWAP2 PUSH1 0x1 PUSH1 0x1 PUSH1 0xA0 SHL SUB AND SWAP1 PUSH32 0x8BE0079C531659141344CD1FD0A4F28419497F9722A3DAAFE3B4186F6B6457E0 SWAP1 DUP4 SWAP1 LOG3 PUSH1 0x1 DUP1 SLOAD PUSH1 0x1 PUSH1 0x1 PUSH1 0xA0 SHL SUB NOT SWAP1 DUP2 AND SWAP1 SWAP2 SSTORE PUSH1 0x2 DUP1 SLOAD SWAP1 SWAP2 AND SWAP1 SSTORE JUMP JUMPDEST PUSH1 0x0 DUP1 SLOAD PUSH1 0x1 EQ PUSH3 0x7EA JUMPI PUSH1 0x40 MLOAD PUSH3 0x461BCD PUSH1 0xE5 SHL DUP2 MSTORE PUSH1 0x4 ADD PUSH3 0x435 SWAP1 PUSH3 0x15B8 JUMP JUMPDEST PUSH1 0x2 PUSH1 0x0 SSTORE PUSH1 0x5 SLOAD PUSH1 0xFF AND ISZERO PUSH3 0x815 JUMPI PUSH1 0x40 MLOAD PUSH3 0x461BCD PUSH1 0xE5 SHL DUP2 MSTORE PUSH1 0x4 ADD PUSH3 0x435 SWAP1 PUSH3 0x15E5 JUMP JUMPDEST PUSH1 0x1 PUSH1 0x1 PUSH1 0xA0 SHL SUB DUP3 AND ISZERO DUP1 ISZERO SWAP1 PUSH3 0x837 JUMPI POP PUSH1 0x1 PUSH1 0x1 PUSH1 0xA0 SHL SUB DUP3 AND CALLER EQ ISZERO JUMPDEST PUSH3 0x87E JUMPI PUSH1 0x40 MLOAD PUSH3 0x461BCD PUSH1 0xE5 SHL DUP2 MSTORE PUSH1 0x20 PUSH1 0x4 DUP3 ADD MSTORE PUSH1 0x16 PUSH1 0x24 DUP3 ADD MSTORE PUSH22 0x5443463A20726566657272657220696E76616C69646F PUSH1 0x50 SHL PUSH1 0x44 DUP3 ADD MSTORE PUSH1 0x64 ADD PUSH3 0x435 JUMP JUMPDEST PUSH1 0x0 PUSH3 0x88B DUP5 PUSH3 0x1335 JUMP JUMPDEST SWAP1 POP PUSH1 0x0 PUSH3 0x89C PUSH1 0xA DUP4 PUSH3 0x16E9 JUMP JUMPDEST SWAP1 POP PUSH1 0x0 PUSH1 0x5 PUSH3 0x8AF DUP5 PUSH1 0x4 PUSH3 0x170C JUMP JUMPDEST PUSH3 0x8BB SWAP2 SWAP1 PUSH3 0x16E9 JUMP JUMPDEST SWAP1 POP PUSH3 0x8C8 DUP8 PUSH3 0x1196 JUMP JUMPDEST PUSH1 0x3 SLOAD PUSH1 0x40 MLOAD PUSH4 0x23B872DD PUSH1 0xE0 SHL DUP2 MSTORE CALLER PUSH1 0x4 DUP3 ADD MSTORE PUSH1 0x1 PUSH1 0x1 PUSH1 0xA0 SHL SUB SWAP2 DUP3 AND PUSH1 0x24 DUP3 ADD MSTORE PUSH1 0x44 DUP2 ADD DUP5 SWAP1 MSTORE SWAP2 SWAP6 POP DUP8 AND SWAP1 PUSH4 0x23B872DD SWAP1 PUSH1 0x64 ADD PUSH1 0x20 PUSH1 0x40 MLOAD DUP1 DUP4 SUB DUP2 PUSH1 0x0 DUP8 GAS CALL ISZERO DUP1 ISZERO PUSH3 0x924 JUMPI RETURNDATASIZE PUSH1 0x0 DUP1 RETURNDATACOPY RETURNDATASIZE PUSH1 0x0 REVERT JUMPDEST POP POP POP POP PUSH1 0x40 MLOAD RETURNDATASIZE PUSH1 0x1F NOT PUSH1 0x1F DUP3 ADD AND DUP3 ADD DUP1 PUSH1 0x40 MSTORE POP DUP2 ADD SWAP1 PUSH3 0x94A SWAP2 SWAP1 PUSH3 0x172C JUMP JUMPDEST PUSH3 0x998 JUMPI PUSH1 0x40 MLOAD PUSH3 0x461BCD PUSH1 0xE5 SHL DUP2 MSTORE PUSH1 0x20 PUSH1 0x4 DUP3 ADD MSTORE PUSH1 0x1F PUSH1 0x24 DUP3 ADD MSTORE PUSH32 0x5443463A207472616E7366657220706C617461666F726D612066616C686F7500 PUSH1 0x44 DUP3 ADD MSTORE PUSH1 0x64 ADD PUSH3 0x435 JUMP JUMPDEST PUSH1 0x40 MLOAD PUSH4 0x23B872DD PUSH1 0xE0 SHL DUP2 MSTORE CALLER PUSH1 0x4 DUP3 ADD MSTORE PUSH1 0x1 PUSH1 0x1 PUSH1 0xA0 SHL SUB DUP7 DUP2 AND PUSH1 0x24 DUP4 ADD MSTORE PUSH1 0x44 DUP3 ADD DUP5 SWAP1 MSTORE DUP8 AND SWAP1 PUSH4 0x23B872DD SWAP1 PUSH1 0x64 ADD PUSH1 0x20 PUSH1 0x40 MLOAD DUP1 DUP4 SUB DUP2 PUSH1 0x0 DUP8 GAS CALL ISZERO DUP1 ISZERO PUSH3 0x9EE JUMPI RETURNDATASIZE PUSH1 0x0 DUP1 RETURNDATACOPY RETURNDATASIZE PUSH1 0x0 REVERT JUMPDEST POP POP POP POP PUSH1 0x40 MLOAD RETURNDATASIZE PUSH1 0x1F NOT PUSH1 0x1F DUP3 ADD AND DUP3 ADD DUP1 PUSH1 0x40 MSTORE POP DUP2 ADD SWAP1 PUSH3 0xA14 SWAP2 SWAP1 PUSH3 0x172C JUMP JUMPDEST PUSH3 0xA62 JUMPI PUSH1 0x40 MLOAD PUSH3 0x461BCD PUSH1 0xE5 SHL DUP2 MSTORE PUSH1 0x20 PUSH1 0x4 DUP3 ADD MSTORE PUSH1 0x1E PUSH1 0x24 DUP3 ADD MSTORE PUSH32 0x5443463A207472616E7366657220696E64696361646F722066616C686F750000 PUSH1 0x44 DUP3 ADD MSTORE PUSH1 0x64 ADD PUSH3 0x435 JUMP JUMPDEST PUSH1 0x1 PUSH1 0x1 PUSH1 0xA0 SHL SUB DUP1 DUP7 AND SWAP1 CALLER SWAP1 DUP7 AND PUSH1 0x0 DUP1 MLOAD PUSH1 0x20 PUSH3 0x312E DUP4 CODECOPY DUP2 MLOAD SWAP2 MSTORE PUSH3 0xA8E DUP12 DUP1 PUSH3 0x160A JUMP JUMPDEST PUSH3 0xA9D PUSH1 0x20 DUP15 ADD DUP15 PUSH3 0x160A JUMP JUMPDEST PUSH3 0xAA9 DUP11 DUP11 PUSH3 0x174C JUMP JUMPDEST DUP15 PUSH1 0x40 MLOAD PUSH3 0xABE SWAP7 SWAP6 SWAP5 SWAP4 SWAP3 SWAP2 SWAP1 PUSH3 0x1684 JUMP JUMPDEST PUSH1 0x40 MLOAD DUP1 SWAP2 SUB SWAP1 LOG4 POP POP PUSH1 0x1 PUSH1 0x0 SSTORE POP SWAP4 SWAP3 POP POP POP JUMP JUMPDEST PUSH1 0x2 SLOAD PUSH1 0x1 PUSH1 0x1 PUSH1 0xA0 SHL SUB AND CALLER EQ PUSH3 0xB2A JUMPI PUSH1 0x40 MLOAD PUSH3 0x461BCD PUSH1 0xE5 SHL DUP2 MSTORE PUSH1 0x20 PUSH1 0x4 DUP3 ADD MSTORE PUSH1 0x16 PUSH1 0x24 DUP3 ADD MSTORE PUSH22 0x2A21A31D103737BA103832B73234B7339037BBB732B9 PUSH1 0x51 SHL PUSH1 0x44 DUP3 ADD MSTORE PUSH1 0x64 ADD PUSH3 0x435 JUMP JUMPDEST PUSH1 0x2 SLOAD PUSH1 0x1 SLOAD PUSH1 0x40 MLOAD PUSH1 0x1 PUSH1 0x1 PUSH1 0xA0 SHL SUB SWAP3 DUP4 AND SWAP3 SWAP1 SWAP2 AND SWAP1 PUSH32 0x8BE0079C531659141344CD1FD0A4F28419497F9722A3DAAFE3B4186F6B6457E0 SWAP1 PUSH1 0x0 SWAP1 LOG3 PUSH1 0x2 DUP1 SLOAD PUSH1 0x1 DUP1 SLOAD PUSH1 0x1 PUSH1 0x1 PUSH1 0xA0 SHL SUB NOT SWAP1 DUP2 AND PUSH1 0x1 PUSH1 0x1 PUSH1 0xA0 SHL SUB DUP5 AND OR SWAP1 SWAP2 SSTORE AND SWAP1 SSTORE JUMP JUMPDEST PUSH1 0x1 SLOAD PUSH1 0x1 PUSH1 0x1 PUSH1 0xA0 SHL SUB AND CALLER EQ PUSH3 0xBBD JUMPI PUSH1 0x40 MLOAD PUSH3 0x461BCD PUSH1 0xE5 SHL DUP2 MSTORE PUSH1 0x4 ADD PUSH3 0x435 SWAP1 PUSH3 0x1590 JUMP JUMPDEST PUSH1 0x1 PUSH1 0x1 PUSH1 0xA0 SHL SUB DUP2 AND PUSH3 0xC09 JUMPI PUSH1 0x40 MLOAD PUSH3 0x461BCD PUSH1 0xE5 SHL DUP2 MSTORE PUSH1 0x20 PUSH1 0x4 DUP3 ADD MSTORE PUSH1 0x11 PUSH1 0x24 DUP3 ADD MSTORE PUSH17 0x5443463A207A65726F2061646472657373 PUSH1 0x78 SHL PUSH1 0x44 DUP3 ADD MSTORE PUSH1 0x64 ADD PUSH3 0x435 JUMP JUMPDEST PUSH1 0x3 SLOAD PUSH1 0x40 MLOAD PUSH1 0x1 PUSH1 0x1 PUSH1 0xA0 SHL SUB DUP1 DUP5 AND SWAP3 AND SWAP1 PUSH32 0xF84F6B525C89A18C80BBBC0C62A7EB5390956D6B8432AB067B49963A98F8C38F SWAP1 PUSH1 0x0 SWAP1 LOG3 PUSH1 0x3 DUP1 SLOAD PUSH1 0x1 PUSH1 0x1 PUSH1 0xA0 SHL SUB NOT AND PUSH1 0x1 PUSH1 0x1 PUSH1 0xA0 SHL SUB SWAP3 SWAP1 SWAP3 AND SWAP2 SWAP1 SWAP2 OR SWAP1 SSTORE JUMP JUMPDEST PUSH1 0x0 DUP1 SLOAD PUSH1 0x1 EQ PUSH3 0xC8B JUMPI PUSH1 0x40 MLOAD PUSH3 0x461BCD PUSH1 0xE5 SHL DUP2 MSTORE PUSH1 0x4 ADD PUSH3 0x435 SWAP1 PUSH3 0x15B8 JUMP JUMPDEST PUSH1 0x2 PUSH1 0x0 SSTORE PUSH1 0x5 SLOAD PUSH1 0xFF AND ISZERO PUSH3 0xCB6 JUMPI PUSH1 0x40 MLOAD PUSH3 0x461BCD PUSH1 0xE5 SHL DUP2 MSTORE PUSH1 0x4 ADD PUSH3 0x435 SWAP1 PUSH3 0x15E5 JUMP JUMPDEST PUSH1 0x0 PUSH3 0xCC3 DUP4 PUSH3 0x1335 JUMP JUMPDEST SWAP1 POP PUSH3 0xCD0 DUP5 PUSH3 0x1196 JUMP JUMPDEST PUSH1 0x3 SLOAD PUSH1 0x40 MLOAD PUSH4 0x23B872DD PUSH1 0xE0 SHL DUP2 MSTORE CALLER PUSH1 0x4 DUP3 ADD MSTORE PUSH1 0x1 PUSH1 0x1 PUSH1 0xA0 SHL SUB SWAP2 DUP3 AND PUSH1 0x24 DUP3 ADD MSTORE PUSH1 0x44 DUP2 ADD DUP5 SWAP1 MSTORE SWAP2 SWAP4 POP DUP5 AND SWAP1 PUSH4 0x23B872DD SWAP1 PUSH1 0x64 ADD PUSH1 0x20 PUSH1 0x40 MLOAD DUP1 DUP4 SUB DUP2 PUSH1 0x0 DUP8 GAS CALL ISZERO DUP1 ISZERO PUSH3 0xD2C JUMPI RETURNDATASIZE PUSH1 0x0 DUP1 RETURNDATACOPY RETURNDATASIZE PUSH1 0x0 REVERT JUMPDEST POP POP POP POP PUSH1 0x40 MLOAD RETURNDATASIZE PUSH1 0x1F NOT PUSH1 0x1F DUP3 ADD AND DUP3 ADD DUP1 PUSH1 0x40 MSTORE POP DUP2 ADD SWAP1 PUSH3 0xD52 SWAP2 SWAP1 PUSH3 0x172C JUMP JUMPDEST PUSH3 0xD97 JUMPI PUSH1 0x40 MLOAD PUSH3 0x461BCD PUSH1 0xE5 SHL DUP2 MSTORE PUSH1 0x20 PUSH1 0x4 DUP3 ADD MSTORE PUSH1 0x14 PUSH1 0x24 DUP3 ADD MSTORE PUSH20 0x5443463A207472616E736665722066616C686F75 PUSH1 0x60 SHL PUSH1 0x44 DUP3 ADD MSTORE PUSH1 0x64 ADD PUSH3 0x435 JUMP JUMPDEST PUSH1 0x0 CALLER PUSH1 0x1 PUSH1 0x1 PUSH1 0xA0 SHL SUB DUP5 AND PUSH1 0x0 DUP1 MLOAD PUSH1 0x20 PUSH3 0x312E DUP4 CODECOPY DUP2 MLOAD SWAP2 MSTORE PUSH3 0xDC0 DUP9 DUP1 PUSH3 0x160A JUMP JUMPDEST PUSH3 0xDCF PUSH1 0x20 DUP12 ADD DUP12 PUSH3 0x160A JUMP JUMPDEST DUP9 DUP12 PUSH1 0x40 MLOAD PUSH3 0xDE5 SWAP7 SWAP6 SWAP5 SWAP4 SWAP3 SWAP2 SWAP1 PUSH3 0x1684 JUMP JUMPDEST PUSH1 0x40 MLOAD DUP1 SWAP2 SUB SWAP1 LOG4 POP PUSH1 0x1 PUSH1 0x0 SSTORE SWAP3 SWAP2 POP POP JUMP JUMPDEST PUSH1 0x1 PUSH1 0x1 PUSH1 0xA0 SHL SUB DUP2 AND PUSH1 0x0 SWAP1 DUP2 MSTORE PUSH1 0x6 PUSH1 0x20 MSTORE PUSH1 0x40 DUP2 KECCAK256 SLOAD DUP1 PUSH3 0xE5C JUMPI PUSH1 0x40 MLOAD PUSH3 0x461BCD PUSH1 0xE5 SHL DUP2 MSTORE PUSH1 0x20 PUSH1 0x4 DUP3 ADD MSTORE PUSH1 0x18 PUSH1 0x24 DUP3 ADD MSTORE PUSH24 0x5443463A206D6F656461206E616F207375706F7274616461 PUSH1 0x40 SHL PUSH1 0x44 DUP3 ADD MSTORE PUSH1 0x64 ADD PUSH3 0x435 JUMP JUMPDEST PUSH1 0xA PUSH3 0xE6B DUP3 PUSH1 0x9 PUSH3 0x170C JUMP JUMPDEST PUSH3 0xE77 SWAP2 SWAP1 PUSH3 0x16E9 JUMP JUMPDEST SWAP4 SWAP3 POP POP POP JUMP JUMPDEST PUSH1 0x0 PUSH3 0xE8A PUSH3 0x139D JUMP JUMPDEST SWAP1 POP SWAP1 JUMP JUMPDEST PUSH1 0x1 SLOAD PUSH1 0x1 PUSH1 0x1 PUSH1 0xA0 SHL SUB AND CALLER EQ PUSH3 0xEBC JUMPI PUSH1 0x40 MLOAD PUSH3 0x461BCD PUSH1 0xE5 SHL DUP2 MSTORE PUSH1 0x4 ADD PUSH3 0x435 SWAP1 PUSH3 0x1590 JUMP JUMPDEST PUSH1 0x4 SLOAD PUSH1 0x40 DUP1 MLOAD SWAP2 DUP3 MSTORE PUSH1 0x20 DUP3 ADD DUP4 SWAP1 MSTORE PUSH32 0x25DE84A545FA2E920C87ED61608C1A1E73712C6F83720133126E05145A028CC4 SWAP2 ADD PUSH1 0x40 MLOAD DUP1 SWAP2 SUB SWAP1 LOG1 PUSH1 0x4 SSTORE JUMP JUMPDEST PUSH1 0x1 SLOAD PUSH1 0x1 PUSH1 0x1 PUSH1 0xA0 SHL SUB AND CALLER EQ PUSH3 0xF2A JUMPI PUSH1 0x40 MLOAD PUSH3 0x461BCD PUSH1 0xE5 SHL DUP2 MSTORE PUSH1 0x4 ADD PUSH3 0x435 SWAP1 PUSH3 0x1590 JUMP JUMPDEST PUSH1 0x1 PUSH1 0x1 PUSH1 0xA0 SHL SUB DUP2 AND PUSH3 0xF76 JUMPI PUSH1 0x40 MLOAD PUSH3 0x461BCD PUSH1 0xE5 SHL DUP2 MSTORE PUSH1 0x20 PUSH1 0x4 DUP3 ADD MSTORE PUSH1 0x11 PUSH1 0x24 DUP3 ADD MSTORE PUSH17 0x5443463A207A65726F2061646472657373 PUSH1 0x78 SHL PUSH1 0x44 DUP3 ADD MSTORE PUSH1 0x64 ADD PUSH3 0x435 JUMP JUMPDEST PUSH1 0x2 DUP1 SLOAD PUSH1 0x1 PUSH1 0x1 PUSH1 0xA0 SHL SUB NOT AND PUSH1 0x1 PUSH1 0x1 PUSH1 0xA0 SHL SUB DUP4 DUP2 AND SWAP2 DUP3 OR SWAP1 SWAP3 SSTORE PUSH1 0x1 SLOAD PUSH1 0x40 MLOAD SWAP2 SWAP3 AND SWAP1 PUSH32 0x38D16B8CAC22D99FC7C124B9CD0DE2D3FA1FAEF420BFE791D8C362D765E22700 SWAP1 PUSH1 0x0 SWAP1 LOG3 POP JUMP JUMPDEST PUSH1 0x0 DUP1 SLOAD PUSH1 0x1 EQ PUSH3 0xFEE JUMPI PUSH1 0x40 MLOAD PUSH3 0x461BCD PUSH1 0xE5 SHL DUP2 MSTORE PUSH1 0x4 ADD PUSH3 0x435 SWAP1 PUSH3 0x15B8 JUMP JUMPDEST PUSH1 0x2 PUSH1 0x0 SSTORE PUSH1 0x5 SLOAD PUSH1 0xFF AND ISZERO PUSH3 0x1019 JUMPI PUSH1 0x40 MLOAD PUSH3 0x461BCD PUSH1 0xE5 SHL DUP2 MSTORE PUSH1 0x4 ADD PUSH3 0x435 SWAP1 PUSH3 0x15E5 JUMP JUMPDEST PUSH1 0x1 PUSH1 0x1 PUSH1 0xA0 SHL SUB DUP3 AND ISZERO DUP1 ISZERO SWAP1 PUSH3 0x103B JUMPI POP PUSH1 0x1 PUSH1 0x1 PUSH1 0xA0 SHL SUB DUP3 AND CALLER EQ ISZERO JUMPDEST PUSH3 0x1082 JUMPI PUSH1 0x40 MLOAD PUSH3 0x461BCD PUSH1 0xE5 SHL DUP2 MSTORE PUSH1 0x20 PUSH1 0x4 DUP3 ADD MSTORE PUSH1 0x16 PUSH1 0x24 DUP3 ADD MSTORE PUSH22 0x5443463A20726566657272657220696E76616C69646F PUSH1 0x50 SHL PUSH1 0x44 DUP3 ADD MSTORE PUSH1 0x64 ADD PUSH3 0x435 JUMP JUMPDEST PUSH1 0x0 PUSH3 0x108E PUSH3 0x139D JUMP JUMPDEST SWAP1 POP DUP1 CALLVALUE EQ PUSH3 0x10D8 JUMPI PUSH1 0x40 MLOAD PUSH3 0x461BCD PUSH1 0xE5 SHL DUP2 MSTORE PUSH1 0x20 PUSH1 0x4 DUP3 ADD MSTORE PUSH1 0x14 PUSH1 0x24 DUP3 ADD MSTORE PUSH20 0x5443463A2076616C6F7220696E636F727265746F PUSH1 0x60 SHL PUSH1 0x44 DUP3 ADD MSTORE PUSH1 0x64 ADD PUSH3 0x435 JUMP JUMPDEST PUSH3 0x10E3 DUP5 PUSH3 0x1196 JUMP JUMPDEST SWAP2 POP PUSH1 0x0 PUSH1 0xA PUSH1 0x4 SLOAD PUSH3 0x10F8 SWAP2 SWAP1 PUSH3 0x16E9 JUMP JUMPDEST SWAP1 POP PUSH1 0x0 PUSH3 0x1108 DUP3 CALLVALUE PUSH3 0x1762 JUMP JUMPDEST SWAP1 POP PUSH3 0x1116 DUP6 DUP4 PUSH3 0x1289 JUMP JUMPDEST PUSH1 0x3 SLOAD PUSH3 0x112E SWAP1 PUSH1 0x1 PUSH1 0x1 PUSH1 0xA0 SHL SUB AND DUP3 PUSH3 0x1289 JUMP JUMPDEST PUSH1 0x1 PUSH1 0x1 PUSH1 0xA0 SHL SUB DUP1 DUP7 AND SWAP1 CALLER SWAP1 DUP7 AND PUSH1 0x0 DUP1 MLOAD PUSH1 0x20 PUSH3 0x312E DUP4 CODECOPY DUP2 MLOAD SWAP2 MSTORE PUSH3 0x115A DUP11 DUP1 PUSH3 0x160A JUMP JUMPDEST PUSH3 0x1169 PUSH1 0x20 DUP14 ADD DUP14 PUSH3 0x160A JUMP JUMPDEST CALLVALUE PUSH1 0x0 PUSH1 0x40 MLOAD PUSH3 0x1180 SWAP7 SWAP6 SWAP5 SWAP4 SWAP3 SWAP2 SWAP1 PUSH3 0x1684 JUMP JUMPDEST PUSH1 0x40 MLOAD DUP1 SWAP2 SUB SWAP1 LOG4 POP POP PUSH1 0x1 PUSH1 0x0 SSTORE POP SWAP3 SWAP2 POP POP JUMP JUMPDEST PUSH1 0x0 DUP1 DUP1 PUSH3 0x11AC PUSH1 0xA0 DUP6 ADD PUSH1 0x80 DUP7 ADD PUSH3 0x1504 JUMP JUMPDEST PUSH1 0x1 PUSH1 0x1 PUSH1 0xA0 SHL SUB AND EQ PUSH3 0x11D3 JUMPI PUSH3 0x11CD PUSH1 0xA0 DUP5 ADD PUSH1 0x80 DUP6 ADD PUSH3 0x1504 JUMP JUMPDEST PUSH3 0x11D5 JUMP JUMPDEST CALLER JUMPDEST SWAP1 POP PUSH3 0x11E3 DUP4 DUP1 PUSH3 0x160A JUMP JUMPDEST PUSH3 0x11F2 PUSH1 0x20 DUP7 ADD DUP7 PUSH3 0x160A JUMP JUMPDEST PUSH3 0x1204 PUSH1 0x60 DUP9 ADD PUSH1 0x40 DUP10 ADD PUSH3 0x1778 JUMP JUMPDEST PUSH1 0x60 DUP9 ADD CALLDATALOAD DUP7 PUSH3 0x121C PUSH1 0xC0 DUP12 ADD PUSH1 0xA0 DUP13 ADD PUSH3 0x1423 JUMP JUMPDEST PUSH3 0x122E PUSH1 0xE0 DUP13 ADD PUSH1 0xC0 DUP14 ADD PUSH3 0x1423 JUMP JUMPDEST PUSH3 0x1241 PUSH2 0x100 DUP14 ADD PUSH1 0xE0 DUP15 ADD PUSH3 0x1423 JUMP JUMPDEST PUSH1 0x40 MLOAD PUSH3 0x124F SWAP1 PUSH3 0x13BE JUMP JUMPDEST PUSH3 0x1264 SWAP11 SWAP10 SWAP9 SWAP8 SWAP7 SWAP6 SWAP5 SWAP4 SWAP3 SWAP2 SWAP1 PUSH3 0x179D JUMP JUMPDEST PUSH1 0x40 MLOAD DUP1 SWAP2 SUB SWAP1 PUSH1 0x0 CREATE DUP1 ISZERO DUP1 ISZERO PUSH3 0x1281 JUMPI RETURNDATASIZE PUSH1 0x0 DUP1 RETURNDATACOPY RETURNDATASIZE PUSH1 0x0 REVERT JUMPDEST POP SWAP4 SWAP3 POP POP POP JUMP JUMPDEST PUSH1 0x0 DUP3 PUSH1 0x1 PUSH1 0x1 PUSH1 0xA0 SHL SUB AND DUP3 PUSH1 0x40 MLOAD PUSH1 0x0 PUSH1 0x40 MLOAD DUP1 DUP4 SUB DUP2 DUP6 DUP8 GAS CALL SWAP3 POP POP POP RETURNDATASIZE DUP1 PUSH1 0x0 DUP2 EQ PUSH3 0x12D8 JUMPI PUSH1 0x40 MLOAD SWAP2 POP PUSH1 0x1F NOT PUSH1 0x3F RETURNDATASIZE ADD AND DUP3 ADD PUSH1 0x40 MSTORE RETURNDATASIZE DUP3 MSTORE RETURNDATASIZE PUSH1 0x0 PUSH1 0x20 DUP5 ADD RETURNDATACOPY PUSH3 0x12DD JUMP JUMPDEST PUSH1 0x60 SWAP2 POP JUMPDEST POP POP SWAP1 POP DUP1 PUSH3 0x1330 JUMPI PUSH1 0x40 MLOAD PUSH3 0x461BCD PUSH1 0xE5 SHL DUP2 MSTORE PUSH1 0x20 PUSH1 0x4 DUP3 ADD MSTORE PUSH1 0x19 PUSH1 0x24 DUP3 ADD MSTORE PUSH32 0x5443463A207472616E73666572656E6369612066616C686F7500000000000000 PUSH1 0x44 DUP3 ADD MSTORE PUSH1 0x64 ADD PUSH3 0x435 JUMP JUMPDEST POP POP POP JUMP JUMPDEST PUSH1 0x1 PUSH1 0x1 PUSH1 0xA0 SHL SUB DUP2 AND PUSH1 0x0 SWAP1 DUP2 MSTORE PUSH1 0x6 PUSH1 0x20 MSTORE PUSH1 0x40 SWAP1 KECCAK256 SLOAD DUP1 PUSH3 0x1398 JUMPI PUSH1 0x40 MLOAD PUSH3 0x461BCD PUSH1 0xE5 SHL DUP2 MSTORE PUSH1 0x20 PUSH1 0x4 DUP3 ADD MSTORE PUSH1 0x18 PUSH1 0x24 DUP3 ADD MSTORE PUSH24 0x5443463A206D6F656461206E616F207375706F7274616461 PUSH1 0x40 SHL PUSH1 0x44 DUP3 ADD MSTORE PUSH1 0x64 ADD PUSH3 0x435 JUMP JUMPDEST SWAP2 SWAP1 POP JUMP JUMPDEST PUSH1 0x0 PUSH1 0xA PUSH1 0x4 SLOAD PUSH1 0x9 PUSH3 0x13B2 SWAP2 SWAP1 PUSH3 0x170C JUMP JUMPDEST PUSH3 0xE8A SWAP2 SWAP1 PUSH3 0x16E9 JUMP JUMPDEST PUSH2 0x191D DUP1 PUSH3 0x1811 DUP4 CODECOPY ADD SWAP1 JUMP JUMPDEST DUP1 CALLDATALOAD PUSH1 0x1 PUSH1 0x1 PUSH1 0xA0 SHL SUB DUP2 AND DUP2 EQ PUSH3 0x1398 JUMPI PUSH1 0x0 DUP1 REVERT JUMPDEST PUSH1 0x0 DUP1 PUSH1 0x40 DUP4 DUP6 SUB SLT ISZERO PUSH3 0x13F8 JUMPI PUSH1 0x0 DUP1 REVERT JUMPDEST PUSH3 0x1403 DUP4 PUSH3 0x13CC JUMP JUMPDEST SWAP5 PUSH1 0x20 SWAP4 SWAP1 SWAP4 ADD CALLDATALOAD SWAP4 POP POP POP JUMP JUMPDEST DUP1 ISZERO ISZERO DUP2 EQ PUSH3 0x1420 JUMPI PUSH1 0x0 DUP1 REVERT JUMPDEST POP JUMP JUMPDEST PUSH1 0x0 PUSH1 0x20 DUP3 DUP5 SUB SLT ISZERO PUSH3 0x1436 JUMPI PUSH1 0x0 DUP1 REVERT JUMPDEST DUP2 CALLDATALOAD PUSH3 0xE77 DUP2 PUSH3 0x1411 JUMP JUMPDEST PUSH1 0x0 PUSH2 0x100 DUP3 DUP5 SUB SLT ISZERO PUSH3 0x1457 JUMPI PUSH1 0x0 DUP1 REVERT JUMPDEST POP SWAP2 SWAP1 POP JUMP JUMPDEST PUSH1 0x0 PUSH1 0x20 DUP3 DUP5 SUB SLT ISZERO PUSH3 0x1470 JUMPI PUSH1 0x0 DUP1 REVERT JUMPDEST DUP2 CALLDATALOAD PUSH8 0xFFFFFFFFFFFFFFFF DUP2 GT ISZERO PUSH3 0x1488 JUMPI PUSH1 0x0 DUP1 REVERT JUMPDEST PUSH3 0x1496 DUP5 DUP3 DUP6 ADD PUSH3 0x1443 JUMP JUMPDEST SWAP5 SWAP4 POP POP POP POP JUMP JUMPDEST PUSH1 0x0 DUP1 PUSH1 0x0 PUSH1 0x60 DUP5 DUP7 SUB SLT ISZERO PUSH3 0x14B4 JUMPI PUSH1 0x0 DUP1 REVERT JUMPDEST DUP4 CALLDATALOAD PUSH8 0xFFFFFFFFFFFFFFFF DUP2 GT ISZERO PUSH3 0x14CC JUMPI PUSH1 0x0 DUP1 REVERT JUMPDEST PUSH3 0x14DA DUP7 DUP3 DUP8 ADD PUSH3 0x1443 JUMP JUMPDEST SWAP4 POP POP PUSH3 0x14EB PUSH1 0x20 DUP6 ADD PUSH3 0x13CC JUMP JUMPDEST SWAP2 POP PUSH3 0x14FB PUSH1 0x40 DUP6 ADD PUSH3 0x13CC JUMP JUMPDEST SWAP1 POP SWAP3 POP SWAP3 POP SWAP3 JUMP JUMPDEST PUSH1 0x0 PUSH1 0x20 DUP3 DUP5 SUB SLT ISZERO PUSH3 0x1517 JUMPI PUSH1 0x0 DUP1 REVERT JUMPDEST PUSH3 0xE77 DUP3 PUSH3 0x13CC JUMP JUMPDEST PUSH1 0x0 DUP1 PUSH1 0x40 DUP4 DUP6 SUB SLT ISZERO PUSH3 0x1536 JUMPI PUSH1 0x0 DUP1 REVERT JUMPDEST DUP3 CALLDATALOAD PUSH8 0xFFFFFFFFFFFFFFFF DUP2 GT ISZERO PUSH3 0x154E JUMPI PUSH1 0x0 DUP1 REVERT JUMPDEST PUSH3 0x155C DUP6 DUP3 DUP7 ADD PUSH3 0x1443 JUMP JUMPDEST SWAP3 POP POP PUSH3 0x156D PUSH1 0x20 DUP5 ADD PUSH3 0x13CC JUMP JUMPDEST SWAP1 POP SWAP3 POP SWAP3 SWAP1 POP JUMP JUMPDEST PUSH1 0x0 PUSH1 0x20 DUP3 DUP5 SUB SLT ISZERO PUSH3 0x1589 JUMPI PUSH1 0x0 DUP1 REVERT JUMPDEST POP CALLDATALOAD SWAP2 SWAP1 POP JUMP JUMPDEST PUSH1 0x20 DUP1 DUP3 MSTORE PUSH1 0xE SWAP1 DUP3 ADD MSTORE PUSH14 0x2A21A31D103737BA1037BBB732B9 PUSH1 0x91 SHL PUSH1 0x40 DUP3 ADD MSTORE PUSH1 0x60 ADD SWAP1 JUMP JUMPDEST PUSH1 0x20 DUP1 DUP3 MSTORE PUSH1 0x13 SWAP1 DUP3 ADD MSTORE PUSH19 0x1510D18E881C99595B9D1C985B9D0818D85B1B PUSH1 0x6A SHL PUSH1 0x40 DUP3 ADD MSTORE PUSH1 0x60 ADD SWAP1 JUMP JUMPDEST PUSH1 0x20 DUP1 DUP3 MSTORE PUSH1 0xB SWAP1 DUP3 ADD MSTORE PUSH11 0x1510D18E881C185D5CD959 PUSH1 0xAA SHL PUSH1 0x40 DUP3 ADD MSTORE PUSH1 0x60 ADD SWAP1 JUMP JUMPDEST PUSH1 0x0 DUP1 DUP4 CALLDATALOAD PUSH1 0x1E NOT DUP5 CALLDATASIZE SUB ADD DUP2 SLT PUSH3 0x1622 JUMPI PUSH1 0x0 DUP1 REVERT JUMPDEST DUP4 ADD DUP1 CALLDATALOAD SWAP2 POP PUSH8 0xFFFFFFFFFFFFFFFF DUP3 GT ISZERO PUSH3 0x163E JUMPI PUSH1 0x0 DUP1 REVERT JUMPDEST PUSH1 0x20 ADD SWAP2 POP CALLDATASIZE DUP2 SWAP1 SUB DUP3 SGT ISZERO PUSH3 0x1654 JUMPI PUSH1 0x0 DUP1 REVERT JUMPDEST SWAP3 POP SWAP3 SWAP1 POP JUMP JUMPDEST DUP2 DUP4 MSTORE DUP2 DUP2 PUSH1 0x20 DUP6 ADD CALLDATACOPY POP PUSH1 0x0 DUP3 DUP3 ADD PUSH1 0x20 SWAP1 DUP2 ADD SWAP2 SWAP1 SWAP2 MSTORE PUSH1 0x1F SWAP1 SWAP2 ADD PUSH1 0x1F NOT AND SWAP1 SWAP2 ADD ADD SWAP1 JUMP JUMPDEST PUSH1 0x80 DUP2 MSTORE PUSH1 0x0 PUSH3 0x169A PUSH1 0x80 DUP4 ADD DUP9 DUP11 PUSH3 0x165B JUMP JUMPDEST DUP3 DUP2 SUB PUSH1 0x20 DUP5 ADD MSTORE PUSH3 0x16AF DUP2 DUP8 DUP10 PUSH3 0x165B JUMP JUMPDEST PUSH1 0x40 DUP5 ADD SWAP6 SWAP1 SWAP6 MSTORE POP POP PUSH1 0x1 PUSH1 0x1 PUSH1 0xA0 SHL SUB SWAP2 SWAP1 SWAP2 AND PUSH1 0x60 SWAP1 SWAP2 ADD MSTORE SWAP5 SWAP4 POP POP POP POP JUMP JUMPDEST PUSH4 0x4E487B71 PUSH1 0xE0 SHL PUSH1 0x0 MSTORE PUSH1 0x11 PUSH1 0x4 MSTORE PUSH1 0x24 PUSH1 0x0 REVERT JUMPDEST PUSH1 0x0 DUP3 PUSH3 0x1707 JUMPI PUSH4 0x4E487B71 PUSH1 0xE0 SHL PUSH1 0x0 MSTORE PUSH1 0x12 PUSH1 0x4 MSTORE PUSH1 0x24 PUSH1 0x0 REVERT JUMPDEST POP DIV SWAP1 JUMP JUMPDEST DUP1 DUP3 MUL DUP2 ISZERO DUP3 DUP3 DIV DUP5 EQ OR PUSH3 0x1726 JUMPI PUSH3 0x1726 PUSH3 0x16D3 JUMP JUMPDEST SWAP3 SWAP2 POP POP JUMP JUMPDEST PUSH1 0x0 PUSH1 0x20 DUP3 DUP5 SUB SLT ISZERO PUSH3 0x173F JUMPI PUSH1 0x0 DUP1 REVERT JUMPDEST DUP2 MLOAD PUSH3 0xE77 DUP2 PUSH3 0x1411 JUMP JUMPDEST DUP1 DUP3 ADD DUP1 DUP3 GT ISZERO PUSH3 0x1726 JUMPI PUSH3 0x1726 PUSH3 0x16D3 JUMP JUMPDEST DUP2 DUP2 SUB DUP2 DUP2 GT ISZERO PUSH3 0x1726 JUMPI PUSH3 0x1726 PUSH3 0x16D3 JUMP JUMPDEST PUSH1 0x0 PUSH1 0x20 DUP3 DUP5 SUB SLT ISZERO PUSH3 0x178B JUMPI PUSH1 0x0 DUP1 REVERT JUMPDEST DUP2 CALLDATALOAD PUSH1 0xFF DUP2 AND DUP2 EQ PUSH3 0xE77 JUMPI PUSH1 0x0 DUP1 REVERT JUMPDEST PUSH1 0x0 PUSH2 0x100 DUP1 DUP4 MSTORE PUSH3 0x17B4 DUP2 DUP5 ADD DUP14 DUP16 PUSH3 0x165B JUMP JUMPDEST SWAP1 POP DUP3 DUP2 SUB PUSH1 0x20 DUP5 ADD MSTORE PUSH3 0x17CB DUP2 DUP12 DUP14 PUSH3 0x165B JUMP JUMPDEST PUSH1 0xFF SWAP10 SWAP1 SWAP10 AND PUSH1 0x40 DUP5 ADD MSTORE POP POP PUSH1 0x60 DUP2 ADD SWAP6 SWAP1 SWAP6 MSTORE PUSH1 0x1 PUSH1 0x1 PUSH1 0xA0 SHL SUB SWAP4 SWAP1 SWAP4 AND PUSH1 0x80 DUP6 ADD MSTORE SWAP1 ISZERO ISZERO PUSH1 0xA0 DUP5 ADD MSTORE ISZERO ISZERO PUSH1 0xC0 DUP4 ADD MSTORE ISZERO ISZERO PUSH1 0xE0 SWAP1 SWAP2 ADD MSTORE SWAP5 SWAP4 POP POP POP POP JUMP INVALID PUSH1 0x80 PUSH1 0x40 MSTORE CALLVALUE DUP1 ISZERO PUSH3 0x11 JUMPI PUSH1 0x0 DUP1 REVERT JUMPDEST POP PUSH1 0x40 MLOAD PUSH3 0x191D CODESIZE SUB DUP1 PUSH3 0x191D DUP4 CODECOPY DUP2 ADD PUSH1 0x40 DUP2 SWAP1 MSTORE PUSH3 0x34 SWAP2 PUSH3 0x400 JUMP JUMPDEST PUSH1 0x1 PUSH1 0x1 PUSH1 0xA0 SHL SUB DUP5 AND PUSH3 0x84 JUMPI PUSH1 0x40 MLOAD PUSH3 0x461BCD PUSH1 0xE5 SHL DUP2 MSTORE PUSH1 0x20 PUSH1 0x4 DUP3 ADD MSTORE PUSH1 0x11 PUSH1 0x24 DUP3 ADD MSTORE PUSH17 0x2A21A299181D103D32B9379037BBB732B9 PUSH1 0x79 SHL PUSH1 0x44 DUP3 ADD MSTORE PUSH1 0x64 ADD JUMPDEST PUSH1 0x40 MLOAD DUP1 SWAP2 SUB SWAP1 REVERT JUMPDEST PUSH1 0x0 DUP9 MLOAD GT PUSH3 0xCB JUMPI PUSH1 0x40 MLOAD PUSH3 0x461BCD PUSH1 0xE5 SHL DUP2 MSTORE PUSH1 0x20 PUSH1 0x4 DUP3 ADD MSTORE PUSH1 0x11 PUSH1 0x24 DUP3 ADD MSTORE PUSH17 0x54434532303A20656D707479206E616D65 PUSH1 0x78 SHL PUSH1 0x44 DUP3 ADD MSTORE PUSH1 0x64 ADD PUSH3 0x7B JUMP JUMPDEST PUSH1 0x0 DUP8 MLOAD GT PUSH3 0x11E JUMPI PUSH1 0x40 MLOAD PUSH3 0x461BCD PUSH1 0xE5 SHL DUP2 MSTORE PUSH1 0x20 PUSH1 0x4 DUP3 ADD MSTORE PUSH1 0x13 PUSH1 0x24 DUP3 ADD MSTORE PUSH32 0x54434532303A20656D7074792073796D626F6C00000000000000000000000000 PUSH1 0x44 DUP3 ADD MSTORE PUSH1 0x64 ADD PUSH3 0x7B JUMP JUMPDEST PUSH1 0x12 DUP7 PUSH1 0xFF AND GT ISZERO PUSH3 0x174 JUMPI PUSH1 0x40 MLOAD PUSH3 0x461BCD PUSH1 0xE5 SHL DUP2 MSTORE PUSH1 0x20 PUSH1 0x4 DUP3 ADD MSTORE PUSH1 0x14 PUSH1 0x24 DUP3 ADD MSTORE PUSH32 0x54434532303A20646563696D616C73203E203138000000000000000000000000 PUSH1 0x44 DUP3 ADD MSTORE PUSH1 0x64 ADD PUSH3 0x7B JUMP JUMPDEST PUSH1 0x0 PUSH3 0x182 DUP10 DUP3 PUSH3 0x568 JUMP JUMPDEST POP PUSH1 0x1 PUSH3 0x191 DUP9 DUP3 PUSH3 0x568 JUMP JUMPDEST POP PUSH1 0x2 DUP1 SLOAD PUSH1 0xFF DUP9 AND PUSH2 0xFFFF NOT SWAP1 SWAP2 AND OR PUSH2 0x100 DUP6 ISZERO ISZERO MUL OR PUSH4 0xFFFF0000 NOT AND PUSH3 0x10000 DUP5 ISZERO ISZERO MUL PUSH4 0xFF000000 NOT AND OR PUSH4 0x1000000 DUP4 ISZERO ISZERO MUL OR PUSH1 0x1 PUSH1 0x20 SHL PUSH1 0x1 PUSH1 0xC0 SHL SUB NOT AND PUSH5 0x100000000 PUSH1 0x1 PUSH1 0x1 PUSH1 0xA0 SHL SUB DUP8 AND MUL OR SWAP1 SSTORE DUP5 ISZERO PUSH3 0x21A JUMPI PUSH3 0x21A DUP5 PUSH3 0x208 PUSH1 0xFF DUP10 AND PUSH1 0xA PUSH3 0x749 JUMP JUMPDEST PUSH3 0x214 SWAP1 DUP9 PUSH3 0x75E JUMP JUMPDEST PUSH3 0x228 JUMP JUMPDEST POP POP POP POP POP POP POP POP PUSH3 0x78E JUMP JUMPDEST PUSH1 0x1 PUSH1 0x1 PUSH1 0xA0 SHL SUB DUP3 AND PUSH3 0x280 JUMPI PUSH1 0x40 MLOAD PUSH3 0x461BCD PUSH1 0xE5 SHL DUP2 MSTORE PUSH1 0x20 PUSH1 0x4 DUP3 ADD MSTORE PUSH1 0x13 PUSH1 0x24 DUP3 ADD MSTORE PUSH32 0x54434532303A206D696E7420746F207A65726F00000000000000000000000000 PUSH1 0x44 DUP3 ADD MSTORE PUSH1 0x64 ADD PUSH3 0x7B JUMP JUMPDEST DUP1 PUSH1 0x4 PUSH1 0x0 DUP3 DUP3 SLOAD PUSH3 0x294 SWAP2 SWAP1 PUSH3 0x778 JUMP JUMPDEST SWAP1 SWAP2 SSTORE POP POP PUSH1 0x1 PUSH1 0x1 PUSH1 0xA0 SHL SUB DUP3 AND PUSH1 0x0 SWAP1 DUP2 MSTORE PUSH1 0x5 PUSH1 0x20 MSTORE PUSH1 0x40 DUP2 KECCAK256 DUP1 SLOAD DUP4 SWAP3 SWAP1 PUSH3 0x2C3 SWAP1 DUP5 SWAP1 PUSH3 0x778 JUMP JUMPDEST SWAP1 SWAP2 SSTORE POP POP PUSH1 0x40 MLOAD DUP2 DUP2 MSTORE PUSH1 0x1 PUSH1 0x1 PUSH1 0xA0 SHL SUB DUP4 AND SWAP1 PUSH1 0x0 SWAP1 PUSH32 0xDDF252AD1BE2C89B69C2B068FC378DAA952BA7F163C4A11628F55A4DF523B3EF SWAP1 PUSH1 0x20 ADD PUSH1 0x40 MLOAD DUP1 SWAP2 SUB SWAP1 LOG3 POP POP JUMP JUMPDEST PUSH4 0x4E487B71 PUSH1 0xE0 SHL PUSH1 0x0 MSTORE PUSH1 0x41 PUSH1 0x4 MSTORE PUSH1 0x24 PUSH1 0x0 REVERT JUMPDEST PUSH1 0x0 DUP3 PUSH1 0x1F DUP4 ADD SLT PUSH3 0x335 JUMPI PUSH1 0x0 DUP1 REVERT JUMPDEST DUP2 MLOAD PUSH1 0x1 PUSH1 0x1 PUSH1 0x40 SHL SUB DUP1 DUP3 GT ISZERO PUSH3 0x352 JUMPI PUSH3 0x352 PUSH3 0x30D JUMP JUMPDEST PUSH1 0x40 MLOAD PUSH1 0x1F DUP4 ADD PUSH1 0x1F NOT SWAP1 DUP2 AND PUSH1 0x3F ADD AND DUP2 ADD SWAP1 DUP3 DUP3 GT DUP2 DUP4 LT OR ISZERO PUSH3 0x37D JUMPI PUSH3 0x37D PUSH3 0x30D JUMP JUMPDEST DUP2 PUSH1 0x40 MSTORE DUP4 DUP2 MSTORE PUSH1 0x20 SWAP3 POP DUP7 DUP4 DUP6 DUP9 ADD ADD GT ISZERO PUSH3 0x39A JUMPI PUSH1 0x0 DUP1 REVERT JUMPDEST PUSH1 0x0 SWAP2 POP JUMPDEST DUP4 DUP3 LT ISZERO PUSH3 0x3BE JUMPI DUP6 DUP3 ADD DUP4 ADD MLOAD DUP2 DUP4 ADD DUP5 ADD MSTORE SWAP1 DUP3 ADD SWAP1 PUSH3 0x39F JUMP JUMPDEST PUSH1 0x0 SWAP4 DUP2 ADD SWAP1 SWAP3 ADD SWAP3 SWAP1 SWAP3 MSTORE SWAP5 SWAP4 POP POP POP POP JUMP JUMPDEST DUP1 MLOAD PUSH1 0x1 PUSH1 0x1 PUSH1 0xA0 SHL SUB DUP2 AND DUP2 EQ PUSH3 0x3EA JUMPI PUSH1 0x0 DUP1 REVERT JUMPDEST SWAP2 SWAP1 POP JUMP JUMPDEST DUP1 MLOAD DUP1 ISZERO ISZERO DUP2 EQ PUSH3 0x3EA JUMPI PUSH1 0x0 DUP1 REVERT JUMPDEST PUSH1 0x0 DUP1 PUSH1 0x0 DUP1 PUSH1 0x0 DUP1 PUSH1 0x0 DUP1 PUSH2 0x100 DUP10 DUP12 SUB SLT ISZERO PUSH3 0x41E JUMPI PUSH1 0x0 DUP1 REVERT JUMPDEST DUP9 MLOAD PUSH1 0x1 PUSH1 0x1 PUSH1 0x40 SHL SUB DUP1 DUP3 GT ISZERO PUSH3 0x436 JUMPI PUSH1 0x0 DUP1 REVERT JUMPDEST PUSH3 0x444 DUP13 DUP4 DUP14 ADD PUSH3 0x323 JUMP JUMPDEST SWAP10 POP PUSH1 0x20 DUP12 ADD MLOAD SWAP2 POP DUP1 DUP3 GT ISZERO PUSH3 0x45B JUMPI PUSH1 0x0 DUP1 REVERT JUMPDEST POP PUSH3 0x46A DUP12 DUP3 DUP13 ADD PUSH3 0x323 JUMP JUMPDEST SWAP8 POP POP PUSH1 0x40 DUP10 ADD MLOAD PUSH1 0xFF DUP2 AND DUP2 EQ PUSH3 0x482 JUMPI PUSH1 0x0 DUP1 REVERT JUMPDEST PUSH1 0x60 DUP11 ADD MLOAD SWAP1 SWAP7 POP SWAP5 POP PUSH3 0x49A PUSH1 0x80 DUP11 ADD PUSH3 0x3D2 JUMP JUMPDEST SWAP4 POP PUSH3 0x4AA PUSH1 0xA0 DUP11 ADD PUSH3 0x3EF JUMP JUMPDEST SWAP3 POP PUSH3 0x4BA PUSH1 0xC0 DUP11 ADD PUSH3 0x3EF JUMP JUMPDEST SWAP2 POP PUSH3 0x4CA PUSH1 0xE0 DUP11 ADD PUSH3 0x3EF JUMP JUMPDEST SWAP1 POP SWAP3 SWAP6 SWAP9 POP SWAP3 SWAP6 SWAP9 SWAP1 SWAP4 SWAP7 POP JUMP JUMPDEST PUSH1 0x1 DUP2 DUP2 SHR SWAP1 DUP3 AND DUP1 PUSH3 0x4EE JUMPI PUSH1 0x7F DUP3 AND SWAP2 POP JUMPDEST PUSH1 0x20 DUP3 LT DUP2 SUB PUSH3 0x50F JUMPI PUSH4 0x4E487B71 PUSH1 0xE0 SHL PUSH1 0x0 MSTORE PUSH1 0x22 PUSH1 0x4 MSTORE PUSH1 0x24 PUSH1 0x0 REVERT JUMPDEST POP SWAP2 SWAP1 POP JUMP JUMPDEST PUSH1 0x1F DUP3 GT ISZERO PUSH3 0x563 JUMPI PUSH1 0x0 DUP2 DUP2 MSTORE PUSH1 0x20 DUP2 KECCAK256 PUSH1 0x1F DUP6 ADD PUSH1 0x5 SHR DUP2 ADD PUSH1 0x20 DUP7 LT ISZERO PUSH3 0x53E JUMPI POP DUP1 JUMPDEST PUSH1 0x1F DUP6 ADD PUSH1 0x5 SHR DUP3 ADD SWAP2 POP JUMPDEST DUP2 DUP2 LT ISZERO PUSH3 0x55F JUMPI DUP3 DUP2 SSTORE PUSH1 0x1 ADD PUSH3 0x54A JUMP JUMPDEST POP POP POP JUMPDEST POP POP POP JUMP JUMPDEST DUP2 MLOAD PUSH1 0x1 PUSH1 0x1 PUSH1 0x40 SHL SUB DUP2 GT ISZERO PUSH3 0x584 JUMPI PUSH3 0x584 PUSH3 0x30D JUMP JUMPDEST PUSH3 0x59C DUP2 PUSH3 0x595 DUP5 SLOAD PUSH3 0x4D9 JUMP JUMPDEST DUP5 PUSH3 0x515 JUMP JUMPDEST PUSH1 0x20 DUP1 PUSH1 0x1F DUP4 GT PUSH1 0x1 DUP2 EQ PUSH3 0x5D4 JUMPI PUSH1 0x0 DUP5 ISZERO PUSH3 0x5BB JUMPI POP DUP6 DUP4 ADD MLOAD JUMPDEST PUSH1 0x0 NOT PUSH1 0x3 DUP7 SWAP1 SHL SHR NOT AND PUSH1 0x1 DUP6 SWAP1 SHL OR DUP6 SSTORE PUSH3 0x55F JUMP JUMPDEST PUSH1 0x0 DUP6 DUP2 MSTORE PUSH1 0x20 DUP2 KECCAK256 PUSH1 0x1F NOT DUP7 AND SWAP2 JUMPDEST DUP3 DUP2 LT ISZERO PUSH3 0x605 JUMPI DUP9 DUP7 ADD MLOAD DUP3 SSTORE SWAP5 DUP5 ADD SWAP5 PUSH1 0x1 SWAP1 SWAP2 ADD SWAP1 DUP5 ADD PUSH3 0x5E4 JUMP JUMPDEST POP DUP6 DUP3 LT ISZERO PUSH3 0x624 JUMPI DUP8 DUP6 ADD MLOAD PUSH1 0x0 NOT PUSH1 0x3 DUP9 SWAP1 SHL PUSH1 0xF8 AND SHR NOT AND DUP2 SSTORE JUMPDEST POP POP POP POP POP PUSH1 0x1 SWAP1 DUP2 SHL ADD SWAP1 SSTORE POP JUMP JUMPDEST PUSH4 0x4E487B71 PUSH1 0xE0 SHL PUSH1 0x0 MSTORE PUSH1 0x11 PUSH1 0x4 MSTORE PUSH1 0x24 PUSH1 0x0 REVERT JUMPDEST PUSH1 0x1 DUP2 DUP2 JUMPDEST DUP1 DUP6 GT ISZERO PUSH3 0x68B JUMPI DUP2 PUSH1 0x0 NOT DIV DUP3 GT ISZERO PUSH3 0x66F JUMPI PUSH3 0x66F PUSH3 0x634 JUMP JUMPDEST DUP1 DUP6 AND ISZERO PUSH3 0x67D JUMPI SWAP2 DUP2 MUL SWAP2 JUMPDEST SWAP4 DUP5 SHR SWAP4 SWAP1 DUP1 MUL SWAP1 PUSH3 0x64F JUMP JUMPDEST POP SWAP3 POP SWAP3 SWAP1 POP JUMP JUMPDEST PUSH1 0x0 DUP3 PUSH3 0x6A4 JUMPI POP PUSH1 0x1 PUSH3 0x743 JUMP JUMPDEST DUP2 PUSH3 0x6B3 JUMPI POP PUSH1 0x0 PUSH3 0x743 JUMP JUMPDEST DUP2 PUSH1 0x1 DUP2 EQ PUSH3 0x6CC JUMPI PUSH1 0x2 DUP2 EQ PUSH3 0x6D7 JUMPI PUSH3 0x6F7 JUMP JUMPDEST PUSH1 0x1 SWAP2 POP POP PUSH3 0x743 JUMP JUMPDEST PUSH1 0xFF DUP5 GT ISZERO PUSH3 0x6EB JUMPI PUSH3 0x6EB PUSH3 0x634 JUMP JUMPDEST POP POP PUSH1 0x1 DUP3 SHL PUSH3 0x743 JUMP JUMPDEST POP PUSH1 0x20 DUP4 LT PUSH2 0x133 DUP4 LT AND PUSH1 0x4E DUP5 LT PUSH1 0xB DUP5 LT AND OR ISZERO PUSH3 0x71C JUMPI POP DUP2 DUP2 EXP PUSH3 0x743 JUMP JUMPDEST PUSH3 0x728 DUP4 DUP4 PUSH3 0x64A JUMP JUMPDEST DUP1 PUSH1 0x0 NOT DIV DUP3 GT ISZERO PUSH3 0x73F JUMPI PUSH3 0x73F PUSH3 0x634 JUMP JUMPDEST MUL SWAP1 POP JUMPDEST SWAP3 SWAP2 POP POP JUMP JUMPDEST PUSH1 0x0 PUSH3 0x757 DUP4 DUP4 PUSH3 0x693 JUMP JUMPDEST SWAP4 SWAP3 POP POP POP JUMP JUMPDEST DUP1 DUP3 MUL DUP2 ISZERO DUP3 DUP3 DIV DUP5 EQ OR PUSH3 0x743 JUMPI PUSH3 0x743 PUSH3 0x634 JUMP JUMPDEST DUP1 DUP3 ADD DUP1 DUP3 GT ISZERO PUSH3 0x743 JUMPI PUSH3 0x743 PUSH3 0x634 JUMP JUMPDEST PUSH2 0x117F DUP1 PUSH3 0x79E PUSH1 0x0 CODECOPY PUSH1 0x0 RETURN INVALID PUSH1 0x80 PUSH1 0x40 MSTORE CALLVALUE DUP1 ISZERO PUSH2 0x10 JUMPI PUSH1 0x0 DUP1 REVERT JUMPDEST POP PUSH1 0x4 CALLDATASIZE LT PUSH2 0x14D JUMPI PUSH1 0x0 CALLDATALOAD PUSH1 0xE0 SHR DUP1 PUSH4 0x70A08231 GT PUSH2 0xC3 JUMPI DUP1 PUSH4 0x95D89B41 GT PUSH2 0x7C JUMPI DUP1 PUSH4 0x95D89B41 EQ PUSH2 0x2B5 JUMPI DUP1 PUSH4 0xA07C7CE4 EQ PUSH2 0x2BD JUMPI DUP1 PUSH4 0xA9059CBB EQ PUSH2 0x2D0 JUMPI DUP1 PUSH4 0xDD62ED3E EQ PUSH2 0x2E3 JUMPI DUP1 PUSH4 0xE30C3978 EQ PUSH2 0x31C JUMPI DUP1 PUSH4 0xF2FDE38B EQ PUSH2 0x32D JUMPI PUSH1 0x0 DUP1 REVERT JUMPDEST DUP1 PUSH4 0x70A08231 EQ PUSH2 0x235 JUMPI DUP1 PUSH4 0x715018A6 EQ PUSH2 0x25E JUMPI DUP1 PUSH4 0x79BA5097 EQ PUSH2 0x266 JUMPI DUP1 PUSH4 0x79CC6790 EQ PUSH2 0x26E JUMPI DUP1 PUSH4 0x8456CB59 EQ PUSH2 0x281 JUMPI DUP1 PUSH4 0x8DA5CB5B EQ PUSH2 0x289 JUMPI PUSH1 0x0 DUP1 REVERT JUMPDEST DUP1 PUSH4 0x36775847 GT PUSH2 0x115 JUMPI DUP1 PUSH4 0x36775847 EQ PUSH2 0x1CD JUMPI DUP1 PUSH4 0x3F4BA83A EQ PUSH2 0x1E1 JUMPI DUP1 PUSH4 0x40C10F19 EQ PUSH2 0x1EB JUMPI DUP1 PUSH4 0x42966C68 EQ PUSH2 0x1FE JUMPI DUP1 PUSH4 0x4BF365DF EQ PUSH2 0x211 JUMPI DUP1 PUSH4 0x5C975ABB EQ PUSH2 0x223 JUMPI PUSH1 0x0 DUP1 REVERT JUMPDEST DUP1 PUSH4 0x6FDDE03 EQ PUSH2 0x152 JUMPI DUP1 PUSH4 0x95EA7B3 EQ PUSH2 0x170 JUMPI DUP1 PUSH4 0x18160DDD EQ PUSH2 0x193 JUMPI DUP1 PUSH4 0x23B872DD EQ PUSH2 0x1A5 JUMPI DUP1 PUSH4 0x313CE567 EQ PUSH2 0x1B8 JUMPI JUMPDEST PUSH1 0x0 DUP1 REVERT JUMPDEST PUSH2 0x15A PUSH2 0x340 JUMP JUMPDEST PUSH1 0x40 MLOAD PUSH2 0x167 SWAP2 SWAP1 PUSH2 0xF6B JUMP JUMPDEST PUSH1 0x40 MLOAD DUP1 SWAP2 SUB SWAP1 RETURN JUMPDEST PUSH2 0x183 PUSH2 0x17E CALLDATASIZE PUSH1 0x4 PUSH2 0xFD5 JUMP JUMPDEST PUSH2 0x3D2 JUMP JUMPDEST PUSH1 0x40 MLOAD SWAP1 ISZERO ISZERO DUP2 MSTORE PUSH1 0x20 ADD PUSH2 0x167 JUMP JUMPDEST PUSH1 0x4 SLOAD JUMPDEST PUSH1 0x40 MLOAD SWAP1 DUP2 MSTORE PUSH1 0x20 ADD PUSH2 0x167 JUMP JUMPDEST PUSH2 0x183 PUSH2 0x1B3 CALLDATASIZE PUSH1 0x4 PUSH2 0xFFF JUMP JUMPDEST PUSH2 0x43F JUMP JUMPDEST PUSH1 0x2 SLOAD PUSH1 0x40 MLOAD PUSH1 0xFF SWAP1 SWAP2 AND DUP2 MSTORE PUSH1 0x20 ADD PUSH2 0x167 JUMP JUMPDEST PUSH1 0x2 SLOAD PUSH2 0x183 SWAP1 PUSH4 0x1000000 SWAP1 DIV PUSH1 0xFF AND DUP2 JUMP JUMPDEST PUSH2 0x1E9 PUSH2 0x543 JUMP JUMPDEST STOP JUMPDEST PUSH2 0x1E9 PUSH2 0x1F9 CALLDATASIZE PUSH1 0x4 PUSH2 0xFD5 JUMP JUMPDEST PUSH2 0x655 JUMP JUMPDEST PUSH2 0x1E9 PUSH2 0x20C CALLDATASIZE PUSH1 0x4 PUSH2 0x103B JUMP JUMPDEST PUSH2 0x6EB JUMP JUMPDEST PUSH1 0x2 SLOAD PUSH2 0x183 SWAP1 PUSH2 0x100 SWAP1 DIV PUSH1 0xFF AND DUP2 JUMP JUMPDEST PUSH1 0x3 SLOAD PUSH1 0x1 PUSH1 0xA0 SHL SWAP1 DIV PUSH1 0xFF AND PUSH2 0x183 JUMP JUMPDEST PUSH2 0x197 PUSH2 0x243 CALLDATASIZE PUSH1 0x4 PUSH2 0x1054 JUMP JUMPDEST PUSH1 0x1 PUSH1 0x1 PUSH1 0xA0 SHL SUB AND PUSH1 0x0 SWAP1 DUP2 MSTORE PUSH1 0x5 PUSH1 0x20 MSTORE PUSH1 0x40 SWAP1 KECCAK256 SLOAD SWAP1 JUMP JUMPDEST PUSH2 0x1E9 PUSH2 0x74A JUMP JUMPDEST PUSH2 0x1E9 PUSH2 0x7E0 JUMP JUMPDEST PUSH2 0x1E9 PUSH2 0x27C CALLDATASIZE PUSH1 0x4 PUSH2 0xFD5 JUMP JUMPDEST PUSH2 0x8B8 JUMP JUMPDEST PUSH2 0x1E9 PUSH2 0x9B5 JUMP JUMPDEST PUSH1 0x2 SLOAD PUSH1 0x1 PUSH1 0x20 SHL SWAP1 DIV PUSH1 0x1 PUSH1 0x1 PUSH1 0xA0 SHL SUB AND JUMPDEST PUSH1 0x40 MLOAD PUSH1 0x1 PUSH1 0x1 PUSH1 0xA0 SHL SUB SWAP1 SWAP2 AND DUP2 MSTORE PUSH1 0x20 ADD PUSH2 0x167 JUMP JUMPDEST PUSH2 0x15A PUSH2 0xACC JUMP JUMPDEST PUSH1 0x2 SLOAD PUSH2 0x183 SWAP1 PUSH3 0x10000 SWAP1 DIV PUSH1 0xFF AND DUP2 JUMP JUMPDEST PUSH2 0x183 PUSH2 0x2DE CALLDATASIZE PUSH1 0x4 PUSH2 0xFD5 JUMP JUMPDEST PUSH2 0xADB JUMP JUMPDEST PUSH2 0x197 PUSH2 0x2F1 CALLDATASIZE PUSH1 0x4 PUSH2 0x1076 JUMP JUMPDEST PUSH1 0x1 PUSH1 0x1 PUSH1 0xA0 SHL SUB SWAP2 DUP3 AND PUSH1 0x0 SWAP1 DUP2 MSTORE PUSH1 0x6 PUSH1 0x20 SWAP1 DUP2 MSTORE PUSH1 0x40 DUP1 DUP4 KECCAK256 SWAP4 SWAP1 SWAP5 AND DUP3 MSTORE SWAP2 SWAP1 SWAP2 MSTORE KECCAK256 SLOAD SWAP1 JUMP JUMPDEST PUSH1 0x3 SLOAD PUSH1 0x1 PUSH1 0x1 PUSH1 0xA0 SHL SUB AND PUSH2 0x29D JUMP JUMPDEST PUSH2 0x1E9 PUSH2 0x33B CALLDATASIZE PUSH1 0x4 PUSH2 0x1054 JUMP JUMPDEST PUSH2 0xB3C JUMP JUMPDEST PUSH1 0x60 PUSH1 0x0 DUP1 SLOAD PUSH2 0x34F SWAP1 PUSH2 0x10A9 JUMP JUMPDEST DUP1 PUSH1 0x1F ADD PUSH1 0x20 DUP1 SWAP2 DIV MUL PUSH1 0x20 ADD PUSH1 0x40 MLOAD SWAP1 DUP2 ADD PUSH1 0x40 MSTORE DUP1 SWAP3 SWAP2 SWAP1 DUP2 DUP2 MSTORE PUSH1 0x20 ADD DUP3 DUP1 SLOAD PUSH2 0x37B SWAP1 PUSH2 0x10A9 JUMP JUMPDEST DUP1 ISZERO PUSH2 0x3C8 JUMPI DUP1 PUSH1 0x1F LT PUSH2 0x39D JUMPI PUSH2 0x100 DUP1 DUP4 SLOAD DIV MUL DUP4 MSTORE SWAP2 PUSH1 0x20 ADD SWAP2 PUSH2 0x3C8 JUMP JUMPDEST DUP3 ADD SWAP2 SWAP1 PUSH1 0x0 MSTORE PUSH1 0x20 PUSH1 0x0 KECCAK256 SWAP1 JUMPDEST DUP2 SLOAD DUP2 MSTORE SWAP1 PUSH1 0x1 ADD SWAP1 PUSH1 0x20 ADD DUP1 DUP4 GT PUSH2 0x3AB JUMPI DUP3 SWAP1 SUB PUSH1 0x1F AND DUP3 ADD SWAP2 JUMPDEST POP POP POP POP POP SWAP1 POP SWAP1 JUMP JUMPDEST CALLER PUSH1 0x0 DUP2 DUP2 MSTORE PUSH1 0x6 PUSH1 0x20 SWAP1 DUP2 MSTORE PUSH1 0x40 DUP1 DUP4 KECCAK256 PUSH1 0x1 PUSH1 0x1 PUSH1 0xA0 SHL SUB DUP8 AND DUP1 DUP6 MSTORE SWAP3 MSTORE DUP1 DUP4 KECCAK256 DUP6 SWAP1 SSTORE MLOAD SWAP2 SWAP3 SWAP1 SWAP2 PUSH32 0x8C5BE1E5EBEC7D5BD14F71427D1E84F3DD0314C0F7B2291E5B200AC8C7C3B925 SWAP1 PUSH2 0x42D SWAP1 DUP7 DUP2 MSTORE PUSH1 0x20 ADD SWAP1 JUMP JUMPDEST PUSH1 0x40 MLOAD DUP1 SWAP2 SUB SWAP1 LOG3 POP PUSH1 0x1 JUMPDEST SWAP3 SWAP2 POP POP JUMP JUMPDEST PUSH1 0x3 SLOAD PUSH1 0x0 SWAP1 PUSH1 0x1 PUSH1 0xA0 SHL SWAP1 DIV PUSH1 0xFF AND ISZERO PUSH2 0x491 JUMPI PUSH1 0x40 MLOAD PUSH3 0x461BCD PUSH1 0xE5 SHL DUP2 MSTORE PUSH1 0x20 PUSH1 0x4 DUP3 ADD MSTORE PUSH1 0xD PUSH1 0x24 DUP3 ADD MSTORE PUSH13 0x1510D14C8C0E881C185D5CD959 PUSH1 0x9A SHL PUSH1 0x44 DUP3 ADD MSTORE PUSH1 0x64 ADD JUMPDEST PUSH1 0x40 MLOAD DUP1 SWAP2 SUB SWAP1 REVERT JUMPDEST PUSH1 0x1 PUSH1 0x1 PUSH1 0xA0 SHL SUB DUP5 AND PUSH1 0x0 SWAP1 DUP2 MSTORE PUSH1 0x6 PUSH1 0x20 SWAP1 DUP2 MSTORE PUSH1 0x40 DUP1 DUP4 KECCAK256 CALLER DUP5 MSTORE SWAP1 SWAP2 MSTORE SWAP1 KECCAK256 SLOAD DUP3 DUP2 LT ISZERO PUSH2 0x505 JUMPI PUSH1 0x40 MLOAD PUSH3 0x461BCD PUSH1 0xE5 SHL DUP2 MSTORE PUSH1 0x20 PUSH1 0x4 DUP3 ADD MSTORE PUSH1 0x1D PUSH1 0x24 DUP3 ADD MSTORE PUSH32 0x54434532303A20696E73756666696369656E7420616C6C6F77616E6365000000 PUSH1 0x44 DUP3 ADD MSTORE PUSH1 0x64 ADD PUSH2 0x488 JUMP JUMPDEST PUSH1 0x1 PUSH1 0x1 PUSH1 0xA0 SHL SUB DUP6 AND PUSH1 0x0 SWAP1 DUP2 MSTORE PUSH1 0x6 PUSH1 0x20 SWAP1 DUP2 MSTORE PUSH1 0x40 DUP1 DUP4 KECCAK256 CALLER DUP5 MSTORE SWAP1 SWAP2 MSTORE SWAP1 KECCAK256 DUP4 DUP3 SUB SWAP1 SSTORE PUSH2 0x538 DUP6 DUP6 DUP6 PUSH2 0xC13 JUMP JUMPDEST POP PUSH1 0x1 SWAP5 SWAP4 POP POP POP POP JUMP JUMPDEST PUSH1 0x2 SLOAD PUSH1 0x1 PUSH1 0x20 SHL SWAP1 DIV PUSH1 0x1 PUSH1 0x1 PUSH1 0xA0 SHL SUB AND CALLER EQ PUSH2 0x574 JUMPI PUSH1 0x40 MLOAD PUSH3 0x461BCD PUSH1 0xE5 SHL DUP2 MSTORE PUSH1 0x4 ADD PUSH2 0x488 SWAP1 PUSH2 0x10E3 JUMP JUMPDEST PUSH1 0x2 SLOAD PUSH4 0x1000000 SWAP1 DIV PUSH1 0xFF AND PUSH2 0x5C5 JUMPI PUSH1 0x40 MLOAD PUSH3 0x461BCD PUSH1 0xE5 SHL DUP2 MSTORE PUSH1 0x20 PUSH1 0x4 DUP3 ADD MSTORE PUSH1 0x15 PUSH1 0x24 DUP3 ADD MSTORE PUSH21 0x1510D14C8C0E881C185D5CD948191A5CD8589B1959 PUSH1 0x5A SHL PUSH1 0x44 DUP3 ADD MSTORE PUSH1 0x64 ADD PUSH2 0x488 JUMP JUMPDEST PUSH1 0x3 SLOAD PUSH1 0x1 PUSH1 0xA0 SHL SWAP1 DIV PUSH1 0xFF AND PUSH2 0x612 JUMPI PUSH1 0x40 MLOAD PUSH3 0x461BCD PUSH1 0xE5 SHL DUP2 MSTORE PUSH1 0x20 PUSH1 0x4 DUP3 ADD MSTORE PUSH1 0x11 PUSH1 0x24 DUP3 ADD MSTORE PUSH17 0x1510D14C8C0E881B9BDD081C185D5CD959 PUSH1 0x7A SHL PUSH1 0x44 DUP3 ADD MSTORE PUSH1 0x64 ADD PUSH2 0x488 JUMP JUMPDEST PUSH1 0x3 DUP1 SLOAD PUSH1 0xFF PUSH1 0xA0 SHL NOT AND SWAP1 SSTORE PUSH1 0x40 MLOAD CALLER DUP2 MSTORE PUSH32 0x5DB9EE0A495BF2E6FF9C91A7834C1BA4FDD244A5E8AA4E537BD38AEAE4B073AA SWAP1 PUSH1 0x20 ADD JUMPDEST PUSH1 0x40 MLOAD DUP1 SWAP2 SUB SWAP1 LOG1 JUMP JUMPDEST PUSH1 0x2 SLOAD PUSH1 0x1 PUSH1 0x20 SHL SWAP1 DIV PUSH1 0x1 PUSH1 0x1 PUSH1 0xA0 SHL SUB AND CALLER EQ PUSH2 0x686 JUMPI PUSH1 0x40 MLOAD PUSH3 0x461BCD PUSH1 0xE5 SHL DUP2 MSTORE PUSH1 0x4 ADD PUSH2 0x488 SWAP1 PUSH2 0x10E3 JUMP JUMPDEST PUSH1 0x2 SLOAD PUSH2 0x100 SWAP1 DIV PUSH1 0xFF AND PUSH2 0x6DD JUMPI PUSH1 0x40 MLOAD PUSH3 0x461BCD PUSH1 0xE5 SHL DUP2 MSTORE PUSH1 0x20 PUSH1 0x4 DUP3 ADD MSTORE PUSH1 0x17 PUSH1 0x24 DUP3 ADD MSTORE PUSH32 0x54434532303A206D696E74696E672064697361626C6564000000000000000000 PUSH1 0x44 DUP3 ADD MSTORE PUSH1 0x64 ADD PUSH2 0x488 JUMP JUMPDEST PUSH2 0x6E7 DUP3 DUP3 PUSH2 0xDB9 JUMP JUMPDEST POP POP JUMP JUMPDEST PUSH1 0x2 SLOAD PUSH3 0x10000 SWAP1 DIV PUSH1 0xFF AND PUSH2 0x73D JUMPI PUSH1 0x40 MLOAD PUSH3 0x461BCD PUSH1 0xE5 SHL DUP2 MSTORE PUSH1 0x20 PUSH1 0x4 DUP3 ADD MSTORE PUSH1 0x17 PUSH1 0x24 DUP3 ADD MSTORE PUSH23 0x1510D14C8C0E88189D5C9B9A5B99C8191A5CD8589B1959 PUSH1 0x4A SHL PUSH1 0x44 DUP3 ADD MSTORE PUSH1 0x64 ADD PUSH2 0x488 JUMP JUMPDEST PUSH2 0x747 CALLER DUP3 PUSH2 0xE8F JUMP JUMPDEST POP JUMP JUMPDEST PUSH1 0x2 SLOAD PUSH1 0x1 PUSH1 0x20 SHL SWAP1 DIV PUSH1 0x1 PUSH1 0x1 PUSH1 0xA0 SHL SUB AND CALLER EQ PUSH2 0x77B JUMPI PUSH1 0x40 MLOAD PUSH3 0x461BCD PUSH1 0xE5 SHL DUP2 MSTORE PUSH1 0x4 ADD PUSH2 0x488 SWAP1 PUSH2 0x10E3 JUMP JUMPDEST PUSH1 0x2 SLOAD PUSH1 0x40 MLOAD PUSH1 0x0 SWAP2 PUSH1 0x1 PUSH1 0x20 SHL SWAP1 DIV PUSH1 0x1 PUSH1 0x1 PUSH1 0xA0 SHL SUB AND SWAP1 PUSH32 0x8BE0079C531659141344CD1FD0A4F28419497F9722A3DAAFE3B4186F6B6457E0 SWAP1 DUP4 SWAP1 LOG3 PUSH1 0x2 DUP1 SLOAD PUSH5 0x100000000 PUSH1 0x1 PUSH1 0xC0 SHL SUB NOT AND SWAP1 SSTORE PUSH1 0x3 DUP1 SLOAD PUSH1 0x1 PUSH1 0x1 PUSH1 0xA0 SHL SUB NOT AND SWAP1 SSTORE JUMP JUMPDEST PUSH1 0x3 SLOAD PUSH1 0x1 PUSH1 0x1 PUSH1 0xA0 SHL SUB AND CALLER EQ PUSH2 0x83A JUMPI PUSH1 0x40 MLOAD PUSH3 0x461BCD PUSH1 0xE5 SHL DUP2 MSTORE PUSH1 0x20 PUSH1 0x4 DUP3 ADD MSTORE PUSH1 0x18 PUSH1 0x24 DUP3 ADD MSTORE PUSH32 0x54434532303A206E6F742070656E64696E67206F776E65720000000000000000 PUSH1 0x44 DUP3 ADD MSTORE PUSH1 0x64 ADD PUSH2 0x488 JUMP JUMPDEST PUSH1 0x3 SLOAD PUSH1 0x2 SLOAD PUSH1 0x40 MLOAD PUSH1 0x1 PUSH1 0x1 PUSH1 0xA0 SHL SUB SWAP3 DUP4 AND SWAP3 PUSH1 0x1 PUSH1 0x20 SHL SWAP1 SWAP3 DIV SWAP1 SWAP2 AND SWAP1 PUSH32 0x8BE0079C531659141344CD1FD0A4F28419497F9722A3DAAFE3B4186F6B6457E0 SWAP1 PUSH1 0x0 SWAP1 LOG3 PUSH1 0x3 DUP1 SLOAD PUSH1 0x2 DUP1 SLOAD PUSH5 0x100000000 PUSH1 0x1 PUSH1 0xC0 SHL SUB NOT AND PUSH1 0x1 PUSH1 0x1 PUSH1 0xA0 SHL SUB DUP4 AND PUSH1 0x1 PUSH1 0x20 SHL MUL OR SWAP1 SSTORE PUSH1 0x1 PUSH1 0x1 PUSH1 0xA0 SHL SUB NOT AND SWAP1 SSTORE JUMP JUMPDEST PUSH1 0x2 SLOAD PUSH3 0x10000 SWAP1 DIV PUSH1 0xFF AND PUSH2 0x90A JUMPI PUSH1 0x40 MLOAD PUSH3 0x461BCD PUSH1 0xE5 SHL DUP2 MSTORE PUSH1 0x20 PUSH1 0x4 DUP3 ADD MSTORE PUSH1 0x17 PUSH1 0x24 DUP3 ADD MSTORE PUSH23 0x1510D14C8C0E88189D5C9B9A5B99C8191A5CD8589B1959 PUSH1 0x4A SHL PUSH1 0x44 DUP3 ADD MSTORE PUSH1 0x64 ADD PUSH2 0x488 JUMP JUMPDEST PUSH1 0x1 PUSH1 0x1 PUSH1 0xA0 SHL SUB DUP3 AND PUSH1 0x0 SWAP1 DUP2 MSTORE PUSH1 0x6 PUSH1 0x20 SWAP1 DUP2 MSTORE PUSH1 0x40 DUP1 DUP4 KECCAK256 CALLER DUP5 MSTORE SWAP1 SWAP2 MSTORE SWAP1 KECCAK256 SLOAD DUP2 DUP2 LT ISZERO PUSH2 0x97E JUMPI PUSH1 0x40 MLOAD PUSH3 0x461BCD PUSH1 0xE5 SHL DUP2 MSTORE PUSH1 0x20 PUSH1 0x4 DUP3 ADD MSTORE PUSH1 0x1D PUSH1 0x24 DUP3 ADD MSTORE PUSH32 0x54434532303A20696E73756666696369656E7420616C6C6F77616E6365000000 PUSH1 0x44 DUP3 ADD MSTORE PUSH1 0x64 ADD PUSH2 0x488 JUMP JUMPDEST PUSH1 0x1 PUSH1 0x1 PUSH1 0xA0 SHL SUB DUP4 AND PUSH1 0x0 SWAP1 DUP2 MSTORE PUSH1 0x6 PUSH1 0x20 SWAP1 DUP2 MSTORE PUSH1 0x40 DUP1 DUP4 KECCAK256 CALLER DUP5 MSTORE SWAP1 SWAP2 MSTORE SWAP1 KECCAK256 DUP3 DUP3 SUB SWAP1 SSTORE PUSH2 0x9B0 DUP4 DUP4 PUSH2 0xE8F JUMP JUMPDEST POP POP POP JUMP JUMPDEST PUSH1 0x2 SLOAD PUSH1 0x1 PUSH1 0x20 SHL SWAP1 DIV PUSH1 0x1 PUSH1 0x1 PUSH1 0xA0 SHL SUB AND CALLER EQ PUSH2 0x9E6 JUMPI PUSH1 0x40 MLOAD PUSH3 0x461BCD PUSH1 0xE5 SHL DUP2 MSTORE PUSH1 0x4 ADD PUSH2 0x488 SWAP1 PUSH2 0x10E3 JUMP JUMPDEST PUSH1 0x2 SLOAD PUSH4 0x1000000 SWAP1 DIV PUSH1 0xFF AND PUSH2 0xA37 JUMPI PUSH1 0x40 MLOAD PUSH3 0x461BCD PUSH1 0xE5 SHL DUP2 MSTORE PUSH1 0x20 PUSH1 0x4 DUP3 ADD MSTORE PUSH1 0x15 PUSH1 0x24 DUP3 ADD MSTORE PUSH21 0x1510D14C8C0E881C185D5CD948191A5CD8589B1959 PUSH1 0x5A SHL PUSH1 0x44 DUP3 ADD MSTORE PUSH1 0x64 ADD PUSH2 0x488 JUMP JUMPDEST PUSH1 0x3 SLOAD PUSH1 0x1 PUSH1 0xA0 SHL SWAP1 DIV PUSH1 0xFF AND ISZERO PUSH2 0xA89 JUMPI PUSH1 0x40 MLOAD PUSH3 0x461BCD PUSH1 0xE5 SHL DUP2 MSTORE PUSH1 0x20 PUSH1 0x4 DUP3 ADD MSTORE PUSH1 0x15 PUSH1 0x24 DUP3 ADD MSTORE PUSH21 0x1510D14C8C0E88185B1C9958591E481C185D5CD959 PUSH1 0x5A SHL PUSH1 0x44 DUP3 ADD MSTORE PUSH1 0x64 ADD PUSH2 0x488 JUMP JUMPDEST PUSH1 0x3 DUP1 SLOAD PUSH1 0xFF PUSH1 0xA0 SHL NOT AND PUSH1 0x1 PUSH1 0xA0 SHL OR SWAP1 SSTORE PUSH1 0x40 MLOAD CALLER DUP2 MSTORE PUSH32 0x62E78CEA01BEE320CD4E420270B5EA74000D11B0C9F74754EBDBFC544B05A258 SWAP1 PUSH1 0x20 ADD PUSH2 0x64B JUMP JUMPDEST PUSH1 0x60 PUSH1 0x1 DUP1 SLOAD PUSH2 0x34F SWAP1 PUSH2 0x10A9 JUMP JUMPDEST PUSH1 0x3 SLOAD PUSH1 0x0 SWAP1 PUSH1 0x1 PUSH1 0xA0 SHL SWAP1 DIV PUSH1 0xFF AND ISZERO PUSH2 0xB28 JUMPI PUSH1 0x40 MLOAD PUSH3 0x461BCD PUSH1 0xE5 SHL DUP2 MSTORE PUSH1 0x20 PUSH1 0x4 DUP3 ADD MSTORE PUSH1 0xD PUSH1 0x24 DUP3 ADD MSTORE PUSH13 0x1510D14C8C0E881C185D5CD959 PUSH1 0x9A SHL PUSH1 0x44 DUP3 ADD MSTORE PUSH1 0x64 ADD PUSH2 0x488 JUMP JUMPDEST PUSH2 0xB33 CALLER DUP5 DUP5 PUSH2 0xC13 JUMP JUMPDEST POP PUSH1 0x1 SWAP3 SWAP2 POP POP JUMP JUMPDEST PUSH1 0x2 SLOAD PUSH1 0x1 PUSH1 0x20 SHL SWAP1 DIV PUSH1 0x1 PUSH1 0x1 PUSH1 0xA0 SHL SUB AND CALLER EQ PUSH2 0xB6D JUMPI PUSH1 0x40 MLOAD PUSH3 0x461BCD PUSH1 0xE5 SHL DUP2 MSTORE PUSH1 0x4 ADD PUSH2 0x488 SWAP1 PUSH2 0x10E3 JUMP JUMPDEST PUSH1 0x1 PUSH1 0x1 PUSH1 0xA0 SHL SUB DUP2 AND PUSH2 0xBB9 JUMPI PUSH1 0x40 MLOAD PUSH3 0x461BCD PUSH1 0xE5 SHL DUP2 MSTORE PUSH1 0x20 PUSH1 0x4 DUP3 ADD MSTORE PUSH1 0x13 PUSH1 0x24 DUP3 ADD MSTORE PUSH19 0x54434532303A207A65726F2061646472657373 PUSH1 0x68 SHL PUSH1 0x44 DUP3 ADD MSTORE PUSH1 0x64 ADD PUSH2 0x488 JUMP JUMPDEST PUSH1 0x3 DUP1 SLOAD PUSH1 0x1 PUSH1 0x1 PUSH1 0xA0 SHL SUB NOT AND PUSH1 0x1 PUSH1 0x1 PUSH1 0xA0 SHL SUB DUP4 DUP2 AND SWAP2 DUP3 OR SWAP1 SWAP3 SSTORE PUSH1 0x2 SLOAD PUSH1 0x40 MLOAD SWAP2 SWAP3 PUSH1 0x1 PUSH1 0x20 SHL SWAP1 SWAP2 DIV AND SWAP1 PUSH32 0x38D16B8CAC22D99FC7C124B9CD0DE2D3FA1FAEF420BFE791D8C362D765E22700 SWAP1 PUSH1 0x0 SWAP1 LOG3 POP JUMP JUMPDEST PUSH1 0x1 PUSH1 0x1 PUSH1 0xA0 SHL SUB DUP4 AND PUSH2 0xC69 JUMPI PUSH1 0x40 MLOAD PUSH3 0x461BCD PUSH1 0xE5 SHL DUP2 MSTORE PUSH1 0x20 PUSH1 0x4 DUP3 ADD MSTORE PUSH1 0x19 PUSH1 0x24 DUP3 ADD MSTORE PUSH32 0x54434532303A207472616E736665722066726F6D207A65726F00000000000000 PUSH1 0x44 DUP3 ADD MSTORE PUSH1 0x64 ADD PUSH2 0x488 JUMP JUMPDEST PUSH1 0x1 PUSH1 0x1 PUSH1 0xA0 SHL SUB DUP3 AND PUSH2 0xCBF JUMPI PUSH1 0x40 MLOAD PUSH3 0x461BCD PUSH1 0xE5 SHL DUP2 MSTORE PUSH1 0x20 PUSH1 0x4 DUP3 ADD MSTORE PUSH1 0x17 PUSH1 0x24 DUP3 ADD MSTORE PUSH32 0x54434532303A207472616E7366657220746F207A65726F000000000000000000 PUSH1 0x44 DUP3 ADD MSTORE PUSH1 0x64 ADD PUSH2 0x488 JUMP JUMPDEST PUSH1 0x1 PUSH1 0x1 PUSH1 0xA0 SHL SUB DUP4 AND PUSH1 0x0 SWAP1 DUP2 MSTORE PUSH1 0x5 PUSH1 0x20 MSTORE PUSH1 0x40 SWAP1 KECCAK256 SLOAD DUP2 GT ISZERO PUSH2 0xD27 JUMPI PUSH1 0x40 MLOAD PUSH3 0x461BCD PUSH1 0xE5 SHL DUP2 MSTORE PUSH1 0x20 PUSH1 0x4 DUP3 ADD MSTORE PUSH1 0x1B PUSH1 0x24 DUP3 ADD MSTORE PUSH32 0x54434532303A20696E73756666696369656E742062616C616E63650000000000 PUSH1 0x44 DUP3 ADD MSTORE PUSH1 0x64 ADD PUSH2 0x488 JUMP JUMPDEST PUSH1 0x1 PUSH1 0x1 PUSH1 0xA0 SHL SUB DUP1 DUP5 AND PUSH1 0x0 SWAP1 DUP2 MSTORE PUSH1 0x5 PUSH1 0x20 MSTORE PUSH1 0x40 DUP1 DUP3 KECCAK256 DUP1 SLOAD DUP6 SWAP1 SUB SWAP1 SSTORE SWAP2 DUP5 AND DUP2 MSTORE SWAP1 DUP2 KECCAK256 DUP1 SLOAD DUP4 SWAP3 SWAP1 PUSH2 0xD60 SWAP1 DUP5 SWAP1 PUSH2 0x1123 JUMP JUMPDEST SWAP3 POP POP DUP2 SWAP1 SSTORE POP DUP2 PUSH1 0x1 PUSH1 0x1 PUSH1 0xA0 SHL SUB AND DUP4 PUSH1 0x1 PUSH1 0x1 PUSH1 0xA0 SHL SUB AND PUSH32 0xDDF252AD1BE2C89B69C2B068FC378DAA952BA7F163C4A11628F55A4DF523B3EF DUP4 PUSH1 0x40 MLOAD PUSH2 0xDAC SWAP2 DUP2 MSTORE PUSH1 0x20 ADD SWAP1 JUMP JUMPDEST PUSH1 0x40 MLOAD DUP1 SWAP2 SUB SWAP1 LOG3 POP POP POP JUMP JUMPDEST PUSH1 0x1 PUSH1 0x1 PUSH1 0xA0 SHL SUB DUP3 AND PUSH2 0xE05 JUMPI PUSH1 0x40 MLOAD PUSH3 0x461BCD PUSH1 0xE5 SHL DUP2 MSTORE PUSH1 0x20 PUSH1 0x4 DUP3 ADD MSTORE PUSH1 0x13 PUSH1 0x24 DUP3 ADD MSTORE PUSH19 0x54434532303A206D696E7420746F207A65726F PUSH1 0x68 SHL PUSH1 0x44 DUP3 ADD MSTORE PUSH1 0x64 ADD PUSH2 0x488 JUMP JUMPDEST DUP1 PUSH1 0x4 PUSH1 0x0 DUP3 DUP3 SLOAD PUSH2 0xE17 SWAP2 SWAP1 PUSH2 0x1123 JUMP JUMPDEST SWAP1 SWAP2 SSTORE POP POP PUSH1 0x1 PUSH1 0x1 PUSH1 0xA0 SHL SUB DUP3 AND PUSH1 0x0 SWAP1 DUP2 MSTORE PUSH1 0x5 PUSH1 0x20 MSTORE PUSH1 0x40 DUP2 KECCAK256 DUP1 SLOAD DUP4 SWAP3 SWAP1 PUSH2 0xE44 SWAP1 DUP5 SWAP1 PUSH2 0x1123 JUMP JUMPDEST SWAP1 SWAP2 SSTORE POP POP PUSH1 0x40 MLOAD DUP2 DUP2 MSTORE PUSH1 0x1 PUSH1 0x1 PUSH1 0xA0 SHL SUB DUP4 AND SWAP1 PUSH1 0x0 SWAP1 PUSH32 0xDDF252AD1BE2C89B69C2B068FC378DAA952BA7F163C4A11628F55A4DF523B3EF SWAP1 PUSH1 0x20 ADD JUMPDEST PUSH1 0x40 MLOAD DUP1 SWAP2 SUB SWAP1 LOG3 POP POP JUMP JUMPDEST PUSH1 0x1 PUSH1 0x1 PUSH1 0xA0 SHL SUB DUP3 AND PUSH1 0x0 SWAP1 DUP2 MSTORE PUSH1 0x5 PUSH1 0x20 MSTORE PUSH1 0x40 SWAP1 KECCAK256 SLOAD DUP2 GT ISZERO PUSH2 0xEF7 JUMPI PUSH1 0x40 MLOAD PUSH3 0x461BCD PUSH1 0xE5 SHL DUP2 MSTORE PUSH1 0x20 PUSH1 0x4 DUP3 ADD MSTORE PUSH1 0x1B PUSH1 0x24 DUP3 ADD MSTORE PUSH32 0x54434532303A206275726E20657863656564732062616C616E63650000000000 PUSH1 0x44 DUP3 ADD MSTORE PUSH1 0x64 ADD PUSH2 0x488 JUMP JUMPDEST PUSH1 0x1 PUSH1 0x1 PUSH1 0xA0 SHL SUB DUP3 AND PUSH1 0x0 SWAP1 DUP2 MSTORE PUSH1 0x5 PUSH1 0x20 MSTORE PUSH1 0x40 DUP2 KECCAK256 DUP1 SLOAD DUP4 SWAP1 SUB SWAP1 SSTORE PUSH1 0x4 DUP1 SLOAD DUP4 SWAP3 SWAP1 PUSH2 0xF28 SWAP1 DUP5 SWAP1 PUSH2 0x1136 JUMP JUMPDEST SWAP1 SWAP2 SSTORE POP POP PUSH1 0x40 MLOAD DUP2 DUP2 MSTORE PUSH1 0x0 SWAP1 PUSH1 0x1 PUSH1 0x1 PUSH1 0xA0 SHL SUB DUP5 AND SWAP1 PUSH32 0xDDF252AD1BE2C89B69C2B068FC378DAA952BA7F163C4A11628F55A4DF523B3EF SWAP1 PUSH1 0x20 ADD PUSH2 0xE83 JUMP JUMPDEST PUSH1 0x0 PUSH1 0x20 DUP1 DUP4 MSTORE DUP4 MLOAD DUP1 DUP3 DUP6 ADD MSTORE PUSH1 0x0 JUMPDEST DUP2 DUP2 LT ISZERO PUSH2 0xF98 JUMPI DUP6 DUP2 ADD DUP4 ADD MLOAD DUP6 DUP3 ADD PUSH1 0x40 ADD MSTORE DUP3 ADD PUSH2 0xF7C JUMP JUMPDEST POP PUSH1 0x0 PUSH1 0x40 DUP3 DUP7 ADD ADD MSTORE PUSH1 0x40 PUSH1 0x1F NOT PUSH1 0x1F DUP4 ADD AND DUP6 ADD ADD SWAP3 POP POP POP SWAP3 SWAP2 POP POP JUMP JUMPDEST DUP1 CALLDATALOAD PUSH1 0x1 PUSH1 0x1 PUSH1 0xA0 SHL SUB DUP2 AND DUP2 EQ PUSH2 0xFD0 JUMPI PUSH1 0x0 DUP1 REVERT JUMPDEST SWAP2 SWAP1 POP JUMP JUMPDEST PUSH1 0x0 DUP1 PUSH1 0x40 DUP4 DUP6 SUB SLT ISZERO PUSH2 0xFE8 JUMPI PUSH1 0x0 DUP1 REVERT JUMPDEST PUSH2 0xFF1 DUP4 PUSH2 0xFB9 JUMP JUMPDEST SWAP5 PUSH1 0x20 SWAP4 SWAP1 SWAP4 ADD CALLDATALOAD SWAP4 POP POP POP JUMP JUMPDEST PUSH1 0x0 DUP1 PUSH1 0x0 PUSH1 0x60 DUP5 DUP7 SUB SLT ISZERO PUSH2 0x1014 JUMPI PUSH1 0x0 DUP1 REVERT JUMPDEST PUSH2 0x101D DUP5 PUSH2 0xFB9 JUMP JUMPDEST SWAP3 POP PUSH2 0x102B PUSH1 0x20 DUP6 ADD PUSH2 0xFB9 JUMP JUMPDEST SWAP2 POP PUSH1 0x40 DUP5 ADD CALLDATALOAD SWAP1 POP SWAP3 POP SWAP3 POP SWAP3 JUMP JUMPDEST PUSH1 0x0 PUSH1 0x20 DUP3 DUP5 SUB SLT ISZERO PUSH2 0x104D JUMPI PUSH1 0x0 DUP1 REVERT JUMPDEST POP CALLDATALOAD SWAP2 SWAP1 POP JUMP JUMPDEST PUSH1 0x0 PUSH1 0x20 DUP3 DUP5 SUB SLT ISZERO PUSH2 0x1066 JUMPI PUSH1 0x0 DUP1 REVERT JUMPDEST PUSH2 0x106F DUP3 PUSH2 0xFB9 JUMP JUMPDEST SWAP4 SWAP3 POP POP POP JUMP JUMPDEST PUSH1 0x0 DUP1 PUSH1 0x40 DUP4 DUP6 SUB SLT ISZERO PUSH2 0x1089 JUMPI PUSH1 0x0 DUP1 REVERT JUMPDEST PUSH2 0x1092 DUP4 PUSH2 0xFB9 JUMP JUMPDEST SWAP2 POP PUSH2 0x10A0 PUSH1 0x20 DUP5 ADD PUSH2 0xFB9 JUMP JUMPDEST SWAP1 POP SWAP3 POP SWAP3 SWAP1 POP JUMP JUMPDEST PUSH1 0x1 DUP2 DUP2 SHR SWAP1 DUP3 AND DUP1 PUSH2 0x10BD JUMPI PUSH1 0x7F DUP3 AND SWAP2 POP JUMPDEST PUSH1 0x20 DUP3 LT DUP2 SUB PUSH2 0x10DD JUMPI PUSH4 0x4E487B71 PUSH1 0xE0 SHL PUSH1 0x0 MSTORE PUSH1 0x22 PUSH1 0x4 MSTORE PUSH1 0x24 PUSH1 0x0 REVERT JUMPDEST POP SWAP2 SWAP1 POP JUMP JUMPDEST PUSH1 0x20 DUP1 DUP3 MSTORE PUSH1 0x10 SWAP1 DUP3 ADD MSTORE PUSH16 0x2A21A299181D103737BA1037BBB732B9 PUSH1 0x81 SHL PUSH1 0x40 DUP3 ADD MSTORE PUSH1 0x60 ADD SWAP1 JUMP JUMPDEST PUSH4 0x4E487B71 PUSH1 0xE0 SHL PUSH1 0x0 MSTORE PUSH1 0x11 PUSH1 0x4 MSTORE PUSH1 0x24 PUSH1 0x0 REVERT JUMPDEST DUP1 DUP3 ADD DUP1 DUP3 GT ISZERO PUSH2 0x439 JUMPI PUSH2 0x439 PUSH2 0x110D JUMP JUMPDEST DUP2 DUP2 SUB DUP2 DUP2 GT ISZERO PUSH2 0x439 JUMPI PUSH2 0x439 PUSH2 0x110D JUMP INVALID LOG2 PUSH5 0x6970667358 0x22 SLT KECCAK256 0xC6 SELFBALANCE 0xB0 0xBC EQ SUB 0xDF 0xA7 KECCAK256 0xAF 0x2A 0xA8 PUSH18 0x388302892A61CD1F440CDF9031BC9B1A8F7A 0x4C PUSH5 0x736F6C6343 STOP ADDMOD EQ STOP CALLER 0xD6 CHAINID 0xA9 SAR 0x1F GAS 0x49 0xD7 0xC5 0xA8 0xDE OR 0xB7 0x4F 0x1F GASLIMIT GAS 0xE7 REVERT 0xAF 0xEA 0xFC 0xD DUP7 0x21 0xDA 0xAA 0xEF MOD 0xF DUP6 SWAP5 LOG2 PUSH5 0x6970667358 0x22 SLT KECCAK256 0xD3 SLOAD PUSH28 0x63510710D4643FBD1B338A15D7A1418BF0915FDDE3844C81EBFE79C4 0xCC PUSH5 0x736F6C6343 STOP ADDMOD EQ STOP CALLER "},"methodIdentifiers":{"acceptOwnership()":"79ba5097","basePrice()":"c7876ea4","createToken((string,string,uint8,uint256,address,bool,bool,bool))":"2bc6dedb","createTokenWithERC20((string,string,uint8,uint256,address,bool,bool,bool),address)":"932ebf2d","createTokenWithERC20AndReferral((string,string,uint8,uint256,address,bool,bool,bool),address,address)":"74aba253","createTokenWithReferral((string,string,uint8,uint256,address,bool,bool,bool),address)":"f9ca78b6","currencyPrice(address)":"edb12d8a","discountedPrice()":"c8788134","discountedPriceERC20(address)":"c00fa4bd","owner()":"8da5cb5b","paused()":"5c975abb","pendingOwner()":"e30c3978","platformWallet()":"fa2af9da","renounceOwnership()":"715018a6","setBasePrice(uint256)":"de4b3262","setCurrencyPrice(address,uint256)":"090376c2","setPaused(bool)":"16c38b3c","setPlatformWallet(address)":"8831e9cf","transferOwnership(address)":"f2fde38b","withdraw()":"3ccfd60b"}}}}}