{
  "_format": "hh-sol-artifact-1",
  "contractName": "TokenCafeERC20",
  "sourceName": "contracts/core/TokenCafeERC20.sol",
  "abi": [
    {
      "inputs": [
        {
          "internalType": "string",
          "name": "name_",
          "type": "string"
        },
        {
          "internalType": "string",
          "name": "symbol_",
          "type": "string"
        },
        {
          "internalType": "uint8",
          "name": "decimals_",
          "type": "uint8"
        },
        {
          "internalType": "uint256",
          "name": "initialSupply",
          "type": "uint256"
        },
        {
          "internalType": "address",
          "name": "initialOwner",
          "type": "address"
        },
        {
          "internalType": "bool",
          "name": "mintable_",
          "type": "bool"
        },
        {
          "internalType": "bool",
          "name": "burnable_",
          "type": "bool"
        },
        {
          "internalType": "bool",
          "name": "pausable_",
          "type": "bool"
        }
      ],
      "stateMutability": "nonpayable",
      "type": "constructor"
    },
    {
      "anonymous": false,
      "inputs": [
        {
          "indexed": true,
          "internalType": "address",
          "name": "owner",
          "type": "address"
        },
        {
          "indexed": true,
          "internalType": "address",
          "name": "spender",
          "type": "address"
        },
        {
          "indexed": false,
          "internalType": "uint256",
          "name": "value",
          "type": "uint256"
        }
      ],
      "name": "Approval",
      "type": "event"
    },
    {
      "anonymous": false,
      "inputs": [
        {
          "indexed": true,
          "internalType": "address",
          "name": "previousOwner",
          "type": "address"
        },
        {
          "indexed": true,
          "internalType": "address",
          "name": "newOwner",
          "type": "address"
        }
      ],
      "name": "OwnershipTransferStarted",
      "type": "event"
    },
    {
      "anonymous": false,
      "inputs": [
        {
          "indexed": true,
          "internalType": "address",
          "name": "previousOwner",
          "type": "address"
        },
        {
          "indexed": true,
          "internalType": "address",
          "name": "newOwner",
          "type": "address"
        }
      ],
      "name": "OwnershipTransferred",
      "type": "event"
    },
    {
      "anonymous": false,
      "inputs": [
        {
          "indexed": false,
          "internalType": "address",
          "name": "account",
          "type": "address"
        }
      ],
      "name": "Paused",
      "type": "event"
    },
    {
      "anonymous": false,
      "inputs": [
        {
          "indexed": true,
          "internalType": "address",
          "name": "from",
          "type": "address"
        },
        {
          "indexed": true,
          "internalType": "address",
          "name": "to",
          "type": "address"
        },
        {
          "indexed": false,
          "internalType": "uint256",
          "name": "value",
          "type": "uint256"
        }
      ],
      "name": "Transfer",
      "type": "event"
    },
    {
      "anonymous": false,
      "inputs": [
        {
          "indexed": false,
          "internalType": "address",
          "name": "account",
          "type": "address"
        }
      ],
      "name": "Unpaused",
      "type": "event"
    },
    {
      "inputs": [],
      "name": "acceptOwnership",
      "outputs": [],
      "stateMutability": "nonpayable",
      "type": "function"
    },
    {
      "inputs": [
        {
          "internalType": "address",
          "name": "owner_",
          "type": "address"
        },
        {
          "internalType": "address",
          "name": "spender",
          "type": "address"
        }
      ],
      "name": "allowance",
      "outputs": [
        {
          "internalType": "uint256",
          "name": "",
          "type": "uint256"
        }
      ],
      "stateMutability": "view",
      "type": "function"
    },
    {
      "inputs": [
        {
          "internalType": "address",
          "name": "spender",
          "type": "address"
        },
        {
          "internalType": "uint256",
          "name": "amount",
          "type": "uint256"
        }
      ],
      "name": "approve",
      "outputs": [
        {
          "internalType": "bool",
          "name": "",
          "type": "bool"
        }
      ],
      "stateMutability": "nonpayable",
      "type": "function"
    },
    {
      "inputs": [
        {
          "internalType": "address",
          "name": "account",
          "type": "address"
        }
      ],
      "name": "balanceOf",
      "outputs": [
        {
          "internalType": "uint256",
          "name": "",
          "type": "uint256"
        }
      ],
      "stateMutability": "view",
      "type": "function"
    },
    {
      "inputs": [
        {
          "internalType": "uint256",
          "name": "amount",
          "type": "uint256"
        }
      ],
      "name": "burn",
      "outputs": [],
      "stateMutability": "nonpayable",
      "type": "function"
    },
    {
      "inputs": [
        {
          "internalType": "address",
          "name": "account",
          "type": "address"
        },
        {
          "internalType": "uint256",
          "name": "amount",
          "type": "uint256"
        }
      ],
      "name": "burnFrom",
      "outputs": [],
      "stateMutability": "nonpayable",
      "type": "function"
    },
    {
      "inputs": [],
      "name": "burnable",
      "outputs": [
        {
          "internalType": "bool",
          "name": "",
          "type": "bool"
        }
      ],
      "stateMutability": "view",
      "type": "function"
    },
    {
      "inputs": [],
      "name": "decimals",
      "outputs": [
        {
          "internalType": "uint8",
          "name": "",
          "type": "uint8"
        }
      ],
      "stateMutability": "view",
      "type": "function"
    },
    {
      "inputs": [
        {
          "internalType": "address",
          "name": "to",
          "type": "address"
        },
        {
          "internalType": "uint256",
          "name": "amount",
          "type": "uint256"
        }
      ],
      "name": "mint",
      "outputs": [],
      "stateMutability": "nonpayable",
      "type": "function"
    },
    {
      "inputs": [],
      "name": "mintable",
      "outputs": [
        {
          "internalType": "bool",
          "name": "",
          "type": "bool"
        }
      ],
      "stateMutability": "view",
      "type": "function"
    },
    {
      "inputs": [],
      "name": "name",
      "outputs": [
        {
          "internalType": "string",
          "name": "",
          "type": "string"
        }
      ],
      "stateMutability": "view",
      "type": "function"
    },
    {
      "inputs": [],
      "name": "owner",
      "outputs": [
        {
          "internalType": "address",
          "name": "",
          "type": "address"
        }
      ],
      "stateMutability": "view",
      "type": "function"
    },
    {
      "inputs": [],
      "name": "pausable",
      "outputs": [
        {
          "internalType": "bool",
          "name": "",
          "type": "bool"
        }
      ],
      "stateMutability": "view",
      "type": "function"
    },
    {
      "inputs": [],
      "name": "pause",
      "outputs": [],
      "stateMutability": "nonpayable",
      "type": "function"
    },
    {
      "inputs": [],
      "name": "paused",
      "outputs": [
        {
          "internalType": "bool",
          "name": "",
          "type": "bool"
        }
      ],
      "stateMutability": "view",
      "type": "function"
    },
    {
      "inputs": [],
      "name": "pendingOwner",
      "outputs": [
        {
          "internalType": "address",
          "name": "",
          "type": "address"
        }
      ],
      "stateMutability": "view",
      "type": "function"
    },
    {
      "inputs": [],
      "name": "renounceOwnership",
      "outputs": [],
      "stateMutability": "nonpayable",
      "type": "function"
    },
    {
      "inputs": [],
      "name": "symbol",
      "outputs": [
        {
          "internalType": "string",
          "name": "",
          "type": "string"
        }
      ],
      "stateMutability": "view",
      "type": "function"
    },
    {
      "inputs": [],
      "name": "totalSupply",
      "outputs": [
        {
          "internalType": "uint256",
          "name": "",
          "type": "uint256"
        }
      ],
      "stateMutability": "view",
      "type": "function"
    },
    {
      "inputs": [
        {
          "internalType": "address",
          "name": "to",
          "type": "address"
        },
        {
          "internalType": "uint256",
          "name": "amount",
          "type": "uint256"
        }
      ],
      "name": "transfer",
      "outputs": [
        {
          "internalType": "bool",
          "name": "",
          "type": "bool"
        }
      ],
      "stateMutability": "nonpayable",
      "type": "function"
    },
    {
      "inputs": [
        {
          "internalType": "address",
          "name": "from",
          "type": "address"
        },
        {
          "internalType": "address",
          "name": "to",
          "type": "address"
        },
        {
          "internalType": "uint256",
          "name": "amount",
          "type": "uint256"
        }
      ],
      "name": "transferFrom",
      "outputs": [
        {
          "internalType": "bool",
          "name": "",
          "type": "bool"
        }
      ],
      "stateMutability": "nonpayable",
      "type": "function"
    },
    {
      "inputs": [
        {
          "internalType": "address",
          "name": "newOwner",
          "type": "address"
        }
      ],
      "name": "transferOwnership",
      "outputs": [],
      "stateMutability": "nonpayable",
      "type": "function"
    },
    {
      "inputs": [],
      "name": "unpause",
      "outputs": [],
      "stateMutability": "nonpayable",
      "type": "function"
    }
  ],
  "bytecode": "0x60806040523480156200001157600080fd5b506040516200191d3803806200191d833981016040819052620000349162000400565b6001600160a01b038416620000845760405162461bcd60e51b81526020600482015260116024820152702a21a299181d103d32b9379037bbb732b960791b60448201526064015b60405180910390fd5b6000885111620000cb5760405162461bcd60e51b815260206004820152601160248201527054434532303a20656d707479206e616d6560781b60448201526064016200007b565b60008751116200011e5760405162461bcd60e51b815260206004820152601360248201527f54434532303a20656d7074792073796d626f6c0000000000000000000000000060448201526064016200007b565b60128660ff161115620001745760405162461bcd60e51b815260206004820152601460248201527f54434532303a20646563696d616c73203e20313800000000000000000000000060448201526064016200007b565b600062000182898262000568565b50600162000191888262000568565b506002805460ff881661ffff1990911617610100851515021763ffff00001916620100008415150263ff00000019161763010000008315150217600160201b600160c01b0319166401000000006001600160a01b0387160217905584156200021a576200021a846200020860ff8916600a62000749565b6200021490886200075e565b62000228565b50505050505050506200078e565b6001600160a01b038216620002805760405162461bcd60e51b815260206004820152601360248201527f54434532303a206d696e7420746f207a65726f0000000000000000000000000060448201526064016200007b565b806004600082825462000294919062000778565b90915550506001600160a01b03821660009081526005602052604081208054839290620002c390849062000778565b90915550506040518181526001600160a01b038316906000907fddf252ad1be2c89b69c2b068fc378daa952ba7f163c4a11628f55a4df523b3ef9060200160405180910390a35050565b634e487b7160e01b600052604160045260246000fd5b600082601f8301126200033557600080fd5b81516001600160401b03808211156200035257620003526200030d565b604051601f8301601f19908116603f011681019082821181831017156200037d576200037d6200030d565b816040528381526020925086838588010111156200039a57600080fd5b600091505b83821015620003be57858201830151818301840152908201906200039f565b600093810190920192909252949350505050565b80516001600160a01b0381168114620003ea57600080fd5b919050565b80518015158114620003ea57600080fd5b600080600080600080600080610100898b0312156200041e57600080fd5b88516001600160401b03808211156200043657600080fd5b620004448c838d0162000323565b995060208b01519150808211156200045b57600080fd5b506200046a8b828c0162000323565b975050604089015160ff811681146200048257600080fd5b60608a015190965094506200049a60808a01620003d2565b9350620004aa60a08a01620003ef565b9250620004ba60c08a01620003ef565b9150620004ca60e08a01620003ef565b90509295985092959890939650565b600181811c90821680620004ee57607f821691505b6020821081036200050f57634e487b7160e01b600052602260045260246000fd5b50919050565b601f8211156200056357600081815260208120601f850160051c810160208610156200053e5750805b601f850160051c820191505b818110156200055f578281556001016200054a565b5050505b505050565b81516001600160401b038111156200058457620005846200030d565b6200059c81620005958454620004d9565b8462000515565b602080601f831160018114620005d45760008415620005bb5750858301515b600019600386901b1c1916600185901b1785556200055f565b600085815260208120601f198616915b828110156200060557888601518255948401946001909101908401620005e4565b5085821015620006245787850151600019600388901b60f8161c191681555b5050505050600190811b01905550565b634e487b7160e01b600052601160045260246000fd5b600181815b808511156200068b5781600019048211156200066f576200066f62000634565b808516156200067d57918102915b93841c93908002906200064f565b509250929050565b600082620006a45750600162000743565b81620006b35750600062000743565b8160018114620006cc5760028114620006d757620006f7565b600191505062000743565b60ff841115620006eb57620006eb62000634565b50506001821b62000743565b5060208310610133831016604e8410600b84101617156200071c575081810a62000743565b6200072883836200064a565b80600019048211156200073f576200073f62000634565b0290505b92915050565b600062000757838362000693565b9392505050565b808202811582820484141762000743576200074362000634565b8082018082111562000743576200074362000634565b61117f806200079e6000396000f3fe608060405234801561001057600080fd5b506004361061014d5760003560e01c806370a08231116100c357806395d89b411161007c57806395d89b41146102b5578063a07c7ce4146102bd578063a9059cbb146102d0578063dd62ed3e146102e3578063e30c39781461031c578063f2fde38b1461032d57600080fd5b806370a0823114610235578063715018a61461025e57806379ba50971461026657806379cc67901461026e5780638456cb59146102815780638da5cb5b1461028957600080fd5b8063367758471161011557806336775847146101cd5780633f4ba83a146101e157806340c10f19146101eb57806342966c68146101fe5780634bf365df146102115780635c975abb1461022357600080fd5b806306fdde0314610152578063095ea7b31461017057806318160ddd1461019357806323b872dd146101a5578063313ce567146101b8575b600080fd5b61015a610340565b6040516101679190610f6b565b60405180910390f35b61018361017e366004610fd5565b6103d2565b6040519015158152602001610167565b6004545b604051908152602001610167565b6101836101b3366004610fff565b61043f565b60025460405160ff9091168152602001610167565b600254610183906301000000900460ff1681565b6101e9610543565b005b6101e96101f9366004610fd5565b610655565b6101e961020c36600461103b565b6106eb565b60025461018390610100900460ff1681565b600354600160a01b900460ff16610183565b610197610243366004611054565b6001600160a01b031660009081526005602052604090205490565b6101e961074a565b6101e96107e0565b6101e961027c366004610fd5565b6108b8565b6101e96109b5565b600254600160201b90046001600160a01b03165b6040516001600160a01b039091168152602001610167565b61015a610acc565b6002546101839062010000900460ff1681565b6101836102de366004610fd5565b610adb565b6101976102f1366004611076565b6001600160a01b03918216600090815260066020908152604080832093909416825291909152205490565b6003546001600160a01b031661029d565b6101e961033b366004611054565b610b3c565b60606000805461034f906110a9565b80601f016020809104026020016040519081016040528092919081815260200182805461037b906110a9565b80156103c85780601f1061039d576101008083540402835291602001916103c8565b820191906000526020600020905b8154815290600101906020018083116103ab57829003601f168201915b5050505050905090565b3360008181526006602090815260408083206001600160a01b038716808552925280832085905551919290917f8c5be1e5ebec7d5bd14f71427d1e84f3dd0314c0f7b2291e5b200ac8c7c3b9259061042d9086815260200190565b60405180910390a35060015b92915050565b600354600090600160a01b900460ff16156104915760405162461bcd60e51b815260206004820152600d60248201526c1510d14c8c0e881c185d5cd959609a1b60448201526064015b60405180910390fd5b6001600160a01b0384166000908152600660209081526040808320338452909152902054828110156105055760405162461bcd60e51b815260206004820152601d60248201527f54434532303a20696e73756666696369656e7420616c6c6f77616e63650000006044820152606401610488565b6001600160a01b038516600090815260066020908152604080832033845290915290208382039055610538858585610c13565b506001949350505050565b600254600160201b90046001600160a01b031633146105745760405162461bcd60e51b8152600401610488906110e3565b6002546301000000900460ff166105c55760405162461bcd60e51b81526020600482015260156024820152741510d14c8c0e881c185d5cd948191a5cd8589b1959605a1b6044820152606401610488565b600354600160a01b900460ff166106125760405162461bcd60e51b81526020600482015260116024820152701510d14c8c0e881b9bdd081c185d5cd959607a1b6044820152606401610488565b6003805460ff60a01b191690556040513381527f5db9ee0a495bf2e6ff9c91a7834c1ba4fdd244a5e8aa4e537bd38aeae4b073aa906020015b60405180910390a1565b600254600160201b90046001600160a01b031633146106865760405162461bcd60e51b8152600401610488906110e3565b600254610100900460ff166106dd5760405162461bcd60e51b815260206004820152601760248201527f54434532303a206d696e74696e672064697361626c65640000000000000000006044820152606401610488565b6106e78282610db9565b5050565b60025462010000900460ff1661073d5760405162461bcd60e51b81526020600482015260176024820152761510d14c8c0e88189d5c9b9a5b99c8191a5cd8589b1959604a1b6044820152606401610488565b6107473382610e8f565b50565b600254600160201b90046001600160a01b0316331461077b5760405162461bcd60e51b8152600401610488906110e3565b600254604051600091600160201b90046001600160a01b0316907f8be0079c531659141344cd1fd0a4f28419497f9722a3daafe3b4186f6b6457e0908390a360028054640100000000600160c01b0319169055600380546001600160a01b0319169055565b6003546001600160a01b0316331461083a5760405162461bcd60e51b815260206004820152601860248201527f54434532303a206e6f742070656e64696e67206f776e657200000000000000006044820152606401610488565b6003546002546040516001600160a01b0392831692600160201b909204909116907f8be0079c531659141344cd1fd0a4f28419497f9722a3daafe3b4186f6b6457e090600090a36003805460028054640100000000600160c01b0319166001600160a01b038316600160201b021790556001600160a01b0319169055565b60025462010000900460ff1661090a5760405162461bcd60e51b81526020600482015260176024820152761510d14c8c0e88189d5c9b9a5b99c8191a5cd8589b1959604a1b6044820152606401610488565b6001600160a01b03821660009081526006602090815260408083203384529091529020548181101561097e5760405162461bcd60e51b815260206004820152601d60248201527f54434532303a20696e73756666696369656e7420616c6c6f77616e63650000006044820152606401610488565b6001600160a01b0383166000908152600660209081526040808320338452909152902082820390556109b08383610e8f565b505050565b600254600160201b90046001600160a01b031633146109e65760405162461bcd60e51b8152600401610488906110e3565b6002546301000000900460ff16610a375760405162461bcd60e51b81526020600482015260156024820152741510d14c8c0e881c185d5cd948191a5cd8589b1959605a1b6044820152606401610488565b600354600160a01b900460ff1615610a895760405162461bcd60e51b81526020600482015260156024820152741510d14c8c0e88185b1c9958591e481c185d5cd959605a1b6044820152606401610488565b6003805460ff60a01b1916600160a01b1790556040513381527f62e78cea01bee320cd4e420270b5ea74000d11b0c9f74754ebdbfc544b05a2589060200161064b565b60606001805461034f906110a9565b600354600090600160a01b900460ff1615610b285760405162461bcd60e51b815260206004820152600d60248201526c1510d14c8c0e881c185d5cd959609a1b6044820152606401610488565b610b33338484610c13565b50600192915050565b600254600160201b90046001600160a01b03163314610b6d5760405162461bcd60e51b8152600401610488906110e3565b6001600160a01b038116610bb95760405162461bcd60e51b815260206004820152601360248201527254434532303a207a65726f206164647265737360681b6044820152606401610488565b600380546001600160a01b0319166001600160a01b038381169182179092556002546040519192600160201b90910416907f38d16b8cac22d99fc7c124b9cd0de2d3fa1faef420bfe791d8c362d765e2270090600090a350565b6001600160a01b038316610c695760405162461bcd60e51b815260206004820152601960248201527f54434532303a207472616e736665722066726f6d207a65726f000000000000006044820152606401610488565b6001600160a01b038216610cbf5760405162461bcd60e51b815260206004820152601760248201527f54434532303a207472616e7366657220746f207a65726f0000000000000000006044820152606401610488565b6001600160a01b038316600090815260056020526040902054811115610d275760405162461bcd60e51b815260206004820152601b60248201527f54434532303a20696e73756666696369656e742062616c616e636500000000006044820152606401610488565b6001600160a01b038084166000908152600560205260408082208054859003905591841681529081208054839290610d60908490611123565b92505081905550816001600160a01b0316836001600160a01b03167fddf252ad1be2c89b69c2b068fc378daa952ba7f163c4a11628f55a4df523b3ef83604051610dac91815260200190565b60405180910390a3505050565b6001600160a01b038216610e055760405162461bcd60e51b815260206004820152601360248201527254434532303a206d696e7420746f207a65726f60681b6044820152606401610488565b8060046000828254610e179190611123565b90915550506001600160a01b03821660009081526005602052604081208054839290610e44908490611123565b90915550506040518181526001600160a01b038316906000907fddf252ad1be2c89b69c2b068fc378daa952ba7f163c4a11628f55a4df523b3ef906020015b60405180910390a35050565b6001600160a01b038216600090815260056020526040902054811115610ef75760405162461bcd60e51b815260206004820152601b60248201527f54434532303a206275726e20657863656564732062616c616e636500000000006044820152606401610488565b6001600160a01b03821660009081526005602052604081208054839003905560048054839290610f28908490611136565b90915550506040518181526000906001600160a01b038416907fddf252ad1be2c89b69c2b068fc378daa952ba7f163c4a11628f55a4df523b3ef90602001610e83565b600060208083528351808285015260005b81811015610f9857858101830151858201604001528201610f7c565b506000604082860101526040601f19601f8301168501019250505092915050565b80356001600160a01b0381168114610fd057600080fd5b919050565b60008060408385031215610fe857600080fd5b610ff183610fb9565b946020939093013593505050565b60008060006060848603121561101457600080fd5b61101d84610fb9565b925061102b60208501610fb9565b9150604084013590509250925092565b60006020828403121561104d57600080fd5b5035919050565b60006020828403121561106657600080fd5b61106f82610fb9565b9392505050565b6000806040838503121561108957600080fd5b61109283610fb9565b91506110a060208401610fb9565b90509250929050565b600181811c908216806110bd57607f821691505b6020821081036110dd57634e487b7160e01b600052602260045260246000fd5b50919050565b60208082526010908201526f2a21a299181d103737ba1037bbb732b960811b604082015260600190565b634e487b7160e01b600052601160045260246000fd5b808201808211156104395761043961110d565b818103818111156104395761043961110d56fea2646970667358221220c647b0bc1403dfa720af2aa871388302892a61cd1f440cdf9031bc9b1a8f7a4c64736f6c63430008140033",
  "linkReferences": {},
  "deployedLinkReferences": {}
}