{
  "_format": "hh-sol-artifact-1",
  "contractName": "TokenCafeFactory",
  "sourceName": "contracts/core/TokenCafeFactory.sol",
  "abi": [
    {
      "inputs": [
        {
          "internalType": "address",
          "name": "_platformWallet",
          "type": "address"
        },
        {
          "internalType": "uint256",
          "name": "_basePrice",
          "type": "uint256"
        }
      ],
      "stateMutability": "nonpayable",
      "type": "constructor"
    },
    {
      "anonymous": false,
      "inputs": [
        {
          "indexed": false,
          "internalType": "uint256",
          "name": "oldPrice",
          "type": "uint256"
        },
        {
          "indexed": false,
          "internalType": "uint256",
          "name": "newPrice",
          "type": "uint256"
        }
      ],
      "name": "BasePriceUpdated",
      "type": "event"
    },
    {
      "anonymous": false,
      "inputs": [
        {
          "indexed": true,
          "internalType": "address",
          "name": "currency",
          "type": "address"
        },
        {
          "indexed": false,
          "internalType": "uint256",
          "name": "price",
          "type": "uint256"
        }
      ],
      "name": "CurrencyPriceSet",
      "type": "event"
    },
    {
      "anonymous": false,
      "inputs": [
        {
          "indexed": true,
          "internalType": "address",
          "name": "previousOwner",
          "type": "address"
        },
        {
          "indexed": true,
          "internalType": "address",
          "name": "newOwner",
          "type": "address"
        }
      ],
      "name": "OwnershipTransferStarted",
      "type": "event"
    },
    {
      "anonymous": false,
      "inputs": [
        {
          "indexed": true,
          "internalType": "address",
          "name": "previousOwner",
          "type": "address"
        },
        {
          "indexed": true,
          "internalType": "address",
          "name": "newOwner",
          "type": "address"
        }
      ],
      "name": "OwnershipTransferred",
      "type": "event"
    },
    {
      "anonymous": false,
      "inputs": [
        {
          "indexed": true,
          "internalType": "address",
          "name": "oldWallet",
          "type": "address"
        },
        {
          "indexed": true,
          "internalType": "address",
          "name": "newWallet",
          "type": "address"
        }
      ],
      "name": "PlatformWalletUpdated",
      "type": "event"
    },
    {
      "anonymous": false,
      "inputs": [
        {
          "indexed": true,
          "internalType": "address",
          "name": "token",
          "type": "address"
        },
        {
          "indexed": true,
          "internalType": "address",
          "name": "creator",
          "type": "address"
        },
        {
          "indexed": true,
          "internalType": "address",
          "name": "referrer",
          "type": "address"
        },
        {
          "indexed": false,
          "internalType": "string",
          "name": "name",
          "type": "string"
        },
        {
          "indexed": false,
          "internalType": "string",
          "name": "symbol",
          "type": "string"
        },
        {
          "indexed": false,
          "internalType": "uint256",
          "name": "feePaid",
          "type": "uint256"
        },
        {
          "indexed": false,
          "internalType": "address",
          "name": "currency",
          "type": "address"
        }
      ],
      "name": "TokenCreated",
      "type": "event"
    },
    {
      "anonymous": false,
      "inputs": [
        {
          "indexed": true,
          "internalType": "address",
          "name": "to",
          "type": "address"
        },
        {
          "indexed": false,
          "internalType": "uint256",
          "name": "amount",
          "type": "uint256"
        }
      ],
      "name": "Withdrawn",
      "type": "event"
    },
    {
      "inputs": [],
      "name": "acceptOwnership",
      "outputs": [],
      "stateMutability": "nonpayable",
      "type": "function"
    },
    {
      "inputs": [],
      "name": "basePrice",
      "outputs": [
        {
          "internalType": "uint256",
          "name": "",
          "type": "uint256"
        }
      ],
      "stateMutability": "view",
      "type": "function"
    },
    {
      "inputs": [
        {
          "components": [
            {
              "internalType": "string",
              "name": "name",
              "type": "string"
            },
            {
              "internalType": "string",
              "name": "symbol",
              "type": "string"
            },
            {
              "internalType": "uint8",
              "name": "decimals",
              "type": "uint8"
            },
            {
              "internalType": "uint256",
              "name": "initialSupply",
              "type": "uint256"
            },
            {
              "internalType": "address",
              "name": "initialOwner",
              "type": "address"
            },
            {
              "internalType": "bool",
              "name": "mintable",
              "type": "bool"
            },
            {
              "internalType": "bool",
              "name": "burnable",
              "type": "bool"
            },
            {
              "internalType": "bool",
              "name": "pausable",
              "type": "bool"
            }
          ],
          "internalType": "struct TokenCafeFactory.TokenParams",
          "name": "params",
          "type": "tuple"
        }
      ],
      "name": "createToken",
      "outputs": [
        {
          "internalType": "address",
          "name": "token",
          "type": "address"
        }
      ],
      "stateMutability": "payable",
      "type": "function"
    },
    {
      "inputs": [
        {
          "components": [
            {
              "internalType": "string",
              "name": "name",
              "type": "string"
            },
            {
              "internalType": "string",
              "name": "symbol",
              "type": "string"
            },
            {
              "internalType": "uint8",
              "name": "decimals",
              "type": "uint8"
            },
            {
              "internalType": "uint256",
              "name": "initialSupply",
              "type": "uint256"
            },
            {
              "internalType": "address",
              "name": "initialOwner",
              "type": "address"
            },
            {
              "internalType": "bool",
              "name": "mintable",
              "type": "bool"
            },
            {
              "internalType": "bool",
              "name": "burnable",
              "type": "bool"
            },
            {
              "internalType": "bool",
              "name": "pausable",
              "type": "bool"
            }
          ],
          "internalType": "struct TokenCafeFactory.TokenParams",
          "name": "params",
          "type": "tuple"
        },
        {
          "internalType": "address",
          "name": "currency",
          "type": "address"
        }
      ],
      "name": "createTokenWithERC20",
      "outputs": [
        {
          "internalType": "address",
          "name": "token",
          "type": "address"
        }
      ],
      "stateMutability": "nonpayable",
      "type": "function"
    },
    {
      "inputs": [
        {
          "components": [
            {
              "internalType": "string",
              "name": "name",
              "type": "string"
            },
            {
              "internalType": "string",
              "name": "symbol",
              "type": "string"
            },
            {
              "internalType": "uint8",
              "name": "decimals",
              "type": "uint8"
            },
            {
              "internalType": "uint256",
              "name": "initialSupply",
              "type": "uint256"
            },
            {
              "internalType": "address",
              "name": "initialOwner",
              "type": "address"
            },
            {
              "internalType": "bool",
              "name": "mintable",
              "type": "bool"
            },
            {
              "internalType": "bool",
              "name": "burnable",
              "type": "bool"
            },
            {
              "internalType": "bool",
              "name": "pausable",
              "type": "bool"
            }
          ],
          "internalType": "struct TokenCafeFactory.TokenParams",
          "name": "params",
          "type": "tuple"
        },
        {
          "internalType": "address",
          "name": "currency",
          "type": "address"
        },
        {
          "internalType": "address",
          "name": "referrer",
          "type": "address"
        }
      ],
      "name": "createTokenWithERC20AndReferral",
      "outputs": [
        {
          "internalType": "address",
          "name": "token",
          "type": "address"
        }
      ],
      "stateMutability": "nonpayable",
      "type": "function"
    },
    {
      "inputs": [
        {
          "components": [
            {
              "internalType": "string",
              "name": "name",
              "type": "string"
            },
            {
              "internalType": "string",
              "name": "symbol",
              "type": "string"
            },
            {
              "internalType": "uint8",
              "name": "decimals",
              "type": "uint8"
            },
            {
              "internalType": "uint256",
              "name": "initialSupply",
              "type": "uint256"
            },
            {
              "internalType": "address",
              "name": "initialOwner",
              "type": "address"
            },
            {
              "internalType": "bool",
              "name": "mintable",
              "type": "bool"
            },
            {
              "internalType": "bool",
              "name": "burnable",
              "type": "bool"
            },
            {
              "internalType": "bool",
              "name": "pausable",
              "type": "bool"
            }
          ],
          "internalType": "struct TokenCafeFactory.TokenParams",
          "name": "params",
          "type": "tuple"
        },
        {
          "internalType": "address",
          "name": "referrer",
          "type": "address"
        }
      ],
      "name": "createTokenWithReferral",
      "outputs": [
        {
          "internalType": "address",
          "name": "token",
          "type": "address"
        }
      ],
      "stateMutability": "payable",
      "type": "function"
    },
    {
      "inputs": [
        {
          "internalType": "address",
          "name": "",
          "type": "address"
        }
      ],
      "name": "currencyPrice",
      "outputs": [
        {
          "internalType": "uint256",
          "name": "",
          "type": "uint256"
        }
      ],
      "stateMutability": "view",
      "type": "function"
    },
    {
      "inputs": [],
      "name": "discountedPrice",
      "outputs": [
        {
          "internalType": "uint256",
          "name": "",
          "type": "uint256"
        }
      ],
      "stateMutability": "view",
      "type": "function"
    },
    {
      "inputs": [
        {
          "internalType": "address",
          "name": "currency",
          "type": "address"
        }
      ],
      "name": "discountedPriceERC20",
      "outputs": [
        {
          "internalType": "uint256",
          "name": "",
          "type": "uint256"
        }
      ],
      "stateMutability": "view",
      "type": "function"
    },
    {
      "inputs": [],
      "name": "owner",
      "outputs": [
        {
          "internalType": "address",
          "name": "",
          "type": "address"
        }
      ],
      "stateMutability": "view",
      "type": "function"
    },
    {
      "inputs": [],
      "name": "paused",
      "outputs": [
        {
          "internalType": "bool",
          "name": "",
          "type": "bool"
        }
      ],
      "stateMutability": "view",
      "type": "function"
    },
    {
      "inputs": [],
      "name": "pendingOwner",
      "outputs": [
        {
          "internalType": "address",
          "name": "",
          "type": "address"
        }
      ],
      "stateMutability": "view",
      "type": "function"
    },
    {
      "inputs": [],
      "name": "platformWallet",
      "outputs": [
        {
          "internalType": "address",
          "name": "",
          "type": "address"
        }
      ],
      "stateMutability": "view",
      "type": "function"
    },
    {
      "inputs": [],
      "name": "renounceOwnership",
      "outputs": [],
      "stateMutability": "nonpayable",
      "type": "function"
    },
    {
      "inputs": [
        {
          "internalType": "uint256",
          "name": "newPrice",
          "type": "uint256"
        }
      ],
      "name": "setBasePrice",
      "outputs": [],
      "stateMutability": "nonpayable",
      "type": "function"
    },
    {
      "inputs": [
        {
          "internalType": "address",
          "name": "currency",
          "type": "address"
        },
        {
          "internalType": "uint256",
          "name": "price",
          "type": "uint256"
        }
      ],
      "name": "setCurrencyPrice",
      "outputs": [],
      "stateMutability": "nonpayable",
      "type": "function"
    },
    {
      "inputs": [
        {
          "internalType": "bool",
          "name": "_paused",
          "type": "bool"
        }
      ],
      "name": "setPaused",
      "outputs": [],
      "stateMutability": "nonpayable",
      "type": "function"
    },
    {
      "inputs": [
        {
          "internalType": "address",
          "name": "newWallet",
          "type": "address"
        }
      ],
      "name": "setPlatformWallet",
      "outputs": [],
      "stateMutability": "nonpayable",
      "type": "function"
    },
    {
      "inputs": [
        {
          "internalType": "address",
          "name": "newOwner",
          "type": "address"
        }
      ],
      "name": "transferOwnership",
      "outputs": [],
      "stateMutability": "nonpayable",
      "type": "function"
    },
    {
      "inputs": [],
      "name": "withdraw",
      "outputs": [],
      "stateMutability": "nonpayable",
      "type": "function"
    },
    {
      "stateMutability": "payable",
      "type": "receive"
    }
  ],
  "bytecode": "0x6080604052600160005534801561001557600080fd5b50604051613284380380613284833981016040819052610034916100b8565b6001600160a01b0382166100815760405162461bcd60e51b815260206004820152601060248201526f1510d18e881e995c9bc81dd85b1b195d60821b604482015260640160405180910390fd5b60018054336001600160a01b031991821617909155600380549091166001600160a01b0393909316929092179091556004556100f2565b600080604083850312156100cb57600080fd5b82516001600160a01b03811681146100e257600080fd5b6020939093015192949293505050565b613183806101016000396000f3fe6080604052600436106200013b5760003560e01c8063932ebf2d11620000ad578063e30c3978116200006c578063e30c39781462000357578063edb12d8a1462000379578063f2fde38b14620003aa578063f9ca78b614620003cf578063fa2af9da14620003e657600080fd5b8063932ebf2d14620002a9578063c00fa4bd14620002ce578063c7876ea41462000302578063c8788134146200031a578063de4b3262146200033257600080fd5b8063715018a611620000fa578063715018a6146200020d57806374aba253146200022557806379ba5097146200024a5780638831e9cf14620002625780638da5cb5b146200028757600080fd5b8063090376c2146200014857806316c38b3c146200016f5780632bc6dedb14620001945780633ccfd60b14620001c85780635c975abb14620001e057600080fd5b366200014357005b600080fd5b3480156200015557600080fd5b506200016d62000167366004620013e4565b62000408565b005b3480156200017c57600080fd5b506200016d6200018e36600462001423565b620004e5565b620001ab620001a53660046200145d565b62000525565b6040516001600160a01b0390911681526020015b60405180910390f35b348015620001d557600080fd5b506200016d62000647565b348015620001ed57600080fd5b50600554620001fc9060ff1681565b6040519015158152602001620001bf565b3480156200021a57600080fd5b506200016d62000741565b3480156200023257600080fd5b50620001ab620002443660046200149e565b620007c4565b3480156200025757600080fd5b506200016d62000ad5565b3480156200026f57600080fd5b506200016d6200028136600462001504565b62000b90565b3480156200029457600080fd5b50600154620001ab906001600160a01b031681565b348015620002b657600080fd5b50620001ab620002c836600462001522565b62000c65565b348015620002db57600080fd5b50620002f3620002ed36600462001504565b62000df9565b604051908152602001620001bf565b3480156200030f57600080fd5b50620002f360045481565b3480156200032757600080fd5b50620002f362000e7e565b3480156200033f57600080fd5b506200016d6200035136600462001576565b62000e8f565b3480156200036457600080fd5b50600254620001ab906001600160a01b031681565b3480156200038657600080fd5b50620002f36200039836600462001504565b60066020526000908152604090205481565b348015620003b757600080fd5b506200016d620003c936600462001504565b62000efd565b620001ab620003e036600462001522565b62000fc8565b348015620003f357600080fd5b50600354620001ab906001600160a01b031681565b6001546001600160a01b031633146200043e5760405162461bcd60e51b8152600401620004359062001590565b60405180910390fd5b6001600160a01b0382166200048b5760405162461bcd60e51b81526020600482015260126024820152715443463a207a65726f2063757272656e637960701b604482015260640162000435565b6001600160a01b03821660008181526006602052604090819020839055517fe7012f76ce1a8904f23971a02c0dd6e315fa1ada78f5a8054f4e35e9edc9d57f90620004d99084815260200190565b60405180910390a25050565b6001546001600160a01b03163314620005125760405162461bcd60e51b8152600401620004359062001590565b6005805460ff1916911515919091179055565b600080546001146200054b5760405162461bcd60e51b81526004016200043590620015b8565b600260005560055460ff1615620005765760405162461bcd60e51b81526004016200043590620015e5565b6004543414620005c05760405162461bcd60e51b81526020600482015260146024820152735443463a2076616c6f7220696e636f727265746f60601b604482015260640162000435565b620005cb8262001196565b600354909150620005e6906001600160a01b03163462001289565b6000336001600160a01b0383166000805160206200312e8339815191526200060f86806200160a565b6200061e60208901896200160a565b346000604051620006359695949392919062001684565b60405180910390a46001600055919050565b6001546001600160a01b03163314620006745760405162461bcd60e51b8152600401620004359062001590565b600054600114620006995760405162461bcd60e51b81526004016200043590620015b8565b60026000554780620006df5760405162461bcd60e51b815260206004820152600e60248201526d5443463a2073656d2073616c646f60901b604482015260640162000435565b600154620006f7906001600160a01b03168262001289565b6001546040518281526001600160a01b03909116907f7084f5476618d8e60b11ef0d7d3f06914655adb8793e28ff7f018d4c76d505d59060200160405180910390a2506001600055565b6001546001600160a01b031633146200076e5760405162461bcd60e51b8152600401620004359062001590565b6001546040516000916001600160a01b0316907f8be0079c531659141344cd1fd0a4f28419497f9722a3daafe3b4186f6b6457e0908390a3600180546001600160a01b0319908116909155600280549091169055565b60008054600114620007ea5760405162461bcd60e51b81526004016200043590620015b8565b600260005560055460ff1615620008155760405162461bcd60e51b81526004016200043590620015e5565b6001600160a01b038216158015906200083757506001600160a01b0382163314155b6200087e5760405162461bcd60e51b81526020600482015260166024820152755443463a20726566657272657220696e76616c69646f60501b604482015260640162000435565b60006200088b8462001335565b905060006200089c600a83620016e9565b905060006005620008af8460046200170c565b620008bb9190620016e9565b9050620008c88762001196565b6003546040516323b872dd60e01b81523360048201526001600160a01b039182166024820152604481018490529195508716906323b872dd906064016020604051808303816000875af115801562000924573d6000803e3d6000fd5b505050506040513d601f19601f820116820180604052508101906200094a91906200172c565b620009985760405162461bcd60e51b815260206004820152601f60248201527f5443463a207472616e7366657220706c617461666f726d612066616c686f7500604482015260640162000435565b6040516323b872dd60e01b81523360048201526001600160a01b038681166024830152604482018490528716906323b872dd906064016020604051808303816000875af1158015620009ee573d6000803e3d6000fd5b505050506040513d601f19601f8201168201806040525081019062000a1491906200172c565b62000a625760405162461bcd60e51b815260206004820152601e60248201527f5443463a207472616e7366657220696e64696361646f722066616c686f750000604482015260640162000435565b6001600160a01b0380861690339086166000805160206200312e83398151915262000a8e8b806200160a565b62000a9d60208e018e6200160a565b62000aa98a8a6200174c565b8e60405162000abe9695949392919062001684565b60405180910390a450506001600055509392505050565b6002546001600160a01b0316331462000b2a5760405162461bcd60e51b81526020600482015260166024820152752a21a31d103737ba103832b73234b7339037bbb732b960511b604482015260640162000435565b6002546001546040516001600160a01b0392831692909116907f8be0079c531659141344cd1fd0a4f28419497f9722a3daafe3b4186f6b6457e090600090a360028054600180546001600160a01b03199081166001600160a01b03841617909155169055565b6001546001600160a01b0316331462000bbd5760405162461bcd60e51b8152600401620004359062001590565b6001600160a01b03811662000c095760405162461bcd60e51b81526020600482015260116024820152705443463a207a65726f206164647265737360781b604482015260640162000435565b6003546040516001600160a01b038084169216907ff84f6b525c89a18c80bbbc0c62a7eb5390956d6b8432ab067b49963a98f8c38f90600090a3600380546001600160a01b0319166001600160a01b0392909216919091179055565b6000805460011462000c8b5760405162461bcd60e51b81526004016200043590620015b8565b600260005560055460ff161562000cb65760405162461bcd60e51b81526004016200043590620015e5565b600062000cc38362001335565b905062000cd08462001196565b6003546040516323b872dd60e01b81523360048201526001600160a01b039182166024820152604481018490529193508416906323b872dd906064016020604051808303816000875af115801562000d2c573d6000803e3d6000fd5b505050506040513d601f19601f8201168201806040525081019062000d5291906200172c565b62000d975760405162461bcd60e51b81526020600482015260146024820152735443463a207472616e736665722066616c686f7560601b604482015260640162000435565b6000336001600160a01b0384166000805160206200312e83398151915262000dc088806200160a565b62000dcf60208b018b6200160a565b888b60405162000de59695949392919062001684565b60405180910390a450600160005592915050565b6001600160a01b0381166000908152600660205260408120548062000e5c5760405162461bcd60e51b81526020600482015260186024820152775443463a206d6f656461206e616f207375706f727461646160401b604482015260640162000435565b600a62000e6b8260096200170c565b62000e779190620016e9565b9392505050565b600062000e8a6200139d565b905090565b6001546001600160a01b0316331462000ebc5760405162461bcd60e51b8152600401620004359062001590565b60045460408051918252602082018390527f25de84a545fa2e920c87ed61608c1a1e73712c6f83720133126e05145a028cc4910160405180910390a1600455565b6001546001600160a01b0316331462000f2a5760405162461bcd60e51b8152600401620004359062001590565b6001600160a01b03811662000f765760405162461bcd60e51b81526020600482015260116024820152705443463a207a65726f206164647265737360781b604482015260640162000435565b600280546001600160a01b0319166001600160a01b03838116918217909255600154604051919216907f38d16b8cac22d99fc7c124b9cd0de2d3fa1faef420bfe791d8c362d765e2270090600090a350565b6000805460011462000fee5760405162461bcd60e51b81526004016200043590620015b8565b600260005560055460ff1615620010195760405162461bcd60e51b81526004016200043590620015e5565b6001600160a01b038216158015906200103b57506001600160a01b0382163314155b620010825760405162461bcd60e51b81526020600482015260166024820152755443463a20726566657272657220696e76616c69646f60501b604482015260640162000435565b60006200108e6200139d565b9050803414620010d85760405162461bcd60e51b81526020600482015260146024820152735443463a2076616c6f7220696e636f727265746f60601b604482015260640162000435565b620010e38462001196565b91506000600a600454620010f89190620016e9565b9050600062001108823462001762565b905062001116858362001289565b6003546200112e906001600160a01b03168262001289565b6001600160a01b0380861690339086166000805160206200312e8339815191526200115a8a806200160a565b6200116960208d018d6200160a565b346000604051620011809695949392919062001684565b60405180910390a4505060016000555092915050565b60008080620011ac60a085016080860162001504565b6001600160a01b031614620011d357620011cd60a084016080850162001504565b620011d5565b335b9050620011e383806200160a565b620011f260208601866200160a565b62001204606088016040890162001778565b6060880135866200121c60c08b0160a08c0162001423565b6200122e60e08c0160c08d0162001423565b620012416101008d0160e08e0162001423565b6040516200124f90620013be565b620012649a999897969594939291906200179d565b604051809103906000f08015801562001281573d6000803e3d6000fd5b509392505050565b6000826001600160a01b03168260405160006040518083038185875af1925050503d8060008114620012d8576040519150601f19603f3d011682016040523d82523d6000602084013e620012dd565b606091505b5050905080620013305760405162461bcd60e51b815260206004820152601960248201527f5443463a207472616e73666572656e6369612066616c686f7500000000000000604482015260640162000435565b505050565b6001600160a01b03811660009081526006602052604090205480620013985760405162461bcd60e51b81526020600482015260186024820152775443463a206d6f656461206e616f207375706f727461646160401b604482015260640162000435565b919050565b6000600a6004546009620013b291906200170c565b62000e8a9190620016e9565b61191d806200181183390190565b80356001600160a01b03811681146200139857600080fd5b60008060408385031215620013f857600080fd5b6200140383620013cc565b946020939093013593505050565b80151581146200142057600080fd5b50565b6000602082840312156200143657600080fd5b813562000e778162001411565b600061010082840312156200145757600080fd5b50919050565b6000602082840312156200147057600080fd5b813567ffffffffffffffff8111156200148857600080fd5b620014968482850162001443565b949350505050565b600080600060608486031215620014b457600080fd5b833567ffffffffffffffff811115620014cc57600080fd5b620014da8682870162001443565b935050620014eb60208501620013cc565b9150620014fb60408501620013cc565b90509250925092565b6000602082840312156200151757600080fd5b62000e7782620013cc565b600080604083850312156200153657600080fd5b823567ffffffffffffffff8111156200154e57600080fd5b6200155c8582860162001443565b9250506200156d60208401620013cc565b90509250929050565b6000602082840312156200158957600080fd5b5035919050565b6020808252600e908201526d2a21a31d103737ba1037bbb732b960911b604082015260600190565b6020808252601390820152721510d18e881c99595b9d1c985b9d0818d85b1b606a1b604082015260600190565b6020808252600b908201526a1510d18e881c185d5cd95960aa1b604082015260600190565b6000808335601e198436030181126200162257600080fd5b83018035915067ffffffffffffffff8211156200163e57600080fd5b6020019150368190038213156200165457600080fd5b9250929050565b81835281816020850137506000828201602090810191909152601f909101601f19169091010190565b6080815260006200169a60808301888a6200165b565b8281036020840152620016af8187896200165b565b604084019590955250506001600160a01b0391909116606090910152949350505050565b634e487b7160e01b600052601160045260246000fd5b6000826200170757634e487b7160e01b600052601260045260246000fd5b500490565b8082028115828204841417620017265762001726620016d3565b92915050565b6000602082840312156200173f57600080fd5b815162000e778162001411565b80820180821115620017265762001726620016d3565b81810381811115620017265762001726620016d3565b6000602082840312156200178b57600080fd5b813560ff8116811462000e7757600080fd5b6000610100808352620017b48184018d8f6200165b565b90508281036020840152620017cb818b8d6200165b565b60ff999099166040840152505060608101959095526001600160a01b0393909316608085015290151560a0840152151560c0830152151560e09091015294935050505056fe60806040523480156200001157600080fd5b506040516200191d3803806200191d833981016040819052620000349162000400565b6001600160a01b038416620000845760405162461bcd60e51b81526020600482015260116024820152702a21a299181d103d32b9379037bbb732b960791b60448201526064015b60405180910390fd5b6000885111620000cb5760405162461bcd60e51b815260206004820152601160248201527054434532303a20656d707479206e616d6560781b60448201526064016200007b565b60008751116200011e5760405162461bcd60e51b815260206004820152601360248201527f54434532303a20656d7074792073796d626f6c0000000000000000000000000060448201526064016200007b565b60128660ff161115620001745760405162461bcd60e51b815260206004820152601460248201527f54434532303a20646563696d616c73203e20313800000000000000000000000060448201526064016200007b565b600062000182898262000568565b50600162000191888262000568565b506002805460ff881661ffff1990911617610100851515021763ffff00001916620100008415150263ff00000019161763010000008315150217600160201b600160c01b0319166401000000006001600160a01b0387160217905584156200021a576200021a846200020860ff8916600a62000749565b6200021490886200075e565b62000228565b50505050505050506200078e565b6001600160a01b038216620002805760405162461bcd60e51b815260206004820152601360248201527f54434532303a206d696e7420746f207a65726f0000000000000000000000000060448201526064016200007b565b806004600082825462000294919062000778565b90915550506001600160a01b03821660009081526005602052604081208054839290620002c390849062000778565b90915550506040518181526001600160a01b038316906000907fddf252ad1be2c89b69c2b068fc378daa952ba7f163c4a11628f55a4df523b3ef9060200160405180910390a35050565b634e487b7160e01b600052604160045260246000fd5b600082601f8301126200033557600080fd5b81516001600160401b03808211156200035257620003526200030d565b604051601f8301601f19908116603f011681019082821181831017156200037d576200037d6200030d565b816040528381526020925086838588010111156200039a57600080fd5b600091505b83821015620003be57858201830151818301840152908201906200039f565b600093810190920192909252949350505050565b80516001600160a01b0381168114620003ea57600080fd5b919050565b80518015158114620003ea57600080fd5b600080600080600080600080610100898b0312156200041e57600080fd5b88516001600160401b03808211156200043657600080fd5b620004448c838d0162000323565b995060208b01519150808211156200045b57600080fd5b506200046a8b828c0162000323565b975050604089015160ff811681146200048257600080fd5b60608a015190965094506200049a60808a01620003d2565b9350620004aa60a08a01620003ef565b9250620004ba60c08a01620003ef565b9150620004ca60e08a01620003ef565b90509295985092959890939650565b600181811c90821680620004ee57607f821691505b6020821081036200050f57634e487b7160e01b600052602260045260246000fd5b50919050565b601f8211156200056357600081815260208120601f850160051c810160208610156200053e5750805b601f850160051c820191505b818110156200055f578281556001016200054a565b5050505b505050565b81516001600160401b038111156200058457620005846200030d565b6200059c81620005958454620004d9565b8462000515565b602080601f831160018114620005d45760008415620005bb5750858301515b600019600386901b1c1916600185901b1785556200055f565b600085815260208120601f198616915b828110156200060557888601518255948401946001909101908401620005e4565b5085821015620006245787850151600019600388901b60f8161c191681555b5050505050600190811b01905550565b634e487b7160e01b600052601160045260246000fd5b600181815b808511156200068b5781600019048211156200066f576200066f62000634565b808516156200067d57918102915b93841c93908002906200064f565b509250929050565b600082620006a45750600162000743565b81620006b35750600062000743565b8160018114620006cc5760028114620006d757620006f7565b600191505062000743565b60ff841115620006eb57620006eb62000634565b50506001821b62000743565b5060208310610133831016604e8410600b84101617156200071c575081810a62000743565b6200072883836200064a565b80600019048211156200073f576200073f62000634565b0290505b92915050565b600062000757838362000693565b9392505050565b808202811582820484141762000743576200074362000634565b8082018082111562000743576200074362000634565b61117f806200079e6000396000f3fe608060405234801561001057600080fd5b506004361061014d5760003560e01c806370a08231116100c357806395d89b411161007c57806395d89b41146102b5578063a07c7ce4146102bd578063a9059cbb146102d0578063dd62ed3e146102e3578063e30c39781461031c578063f2fde38b1461032d57600080fd5b806370a0823114610235578063715018a61461025e57806379ba50971461026657806379cc67901461026e5780638456cb59146102815780638da5cb5b1461028957600080fd5b8063367758471161011557806336775847146101cd5780633f4ba83a146101e157806340c10f19146101eb57806342966c68146101fe5780634bf365df146102115780635c975abb1461022357600080fd5b806306fdde0314610152578063095ea7b31461017057806318160ddd1461019357806323b872dd146101a5578063313ce567146101b8575b600080fd5b61015a610340565b6040516101679190610f6b565b60405180910390f35b61018361017e366004610fd5565b6103d2565b6040519015158152602001610167565b6004545b604051908152602001610167565b6101836101b3366004610fff565b61043f565b60025460405160ff9091168152602001610167565b600254610183906301000000900460ff1681565b6101e9610543565b005b6101e96101f9366004610fd5565b610655565b6101e961020c36600461103b565b6106eb565b60025461018390610100900460ff1681565b600354600160a01b900460ff16610183565b610197610243366004611054565b6001600160a01b031660009081526005602052604090205490565b6101e961074a565b6101e96107e0565b6101e961027c366004610fd5565b6108b8565b6101e96109b5565b600254600160201b90046001600160a01b03165b6040516001600160a01b039091168152602001610167565b61015a610acc565b6002546101839062010000900460ff1681565b6101836102de366004610fd5565b610adb565b6101976102f1366004611076565b6001600160a01b03918216600090815260066020908152604080832093909416825291909152205490565b6003546001600160a01b031661029d565b6101e961033b366004611054565b610b3c565b60606000805461034f906110a9565b80601f016020809104026020016040519081016040528092919081815260200182805461037b906110a9565b80156103c85780601f1061039d576101008083540402835291602001916103c8565b820191906000526020600020905b8154815290600101906020018083116103ab57829003601f168201915b5050505050905090565b3360008181526006602090815260408083206001600160a01b038716808552925280832085905551919290917f8c5be1e5ebec7d5bd14f71427d1e84f3dd0314c0f7b2291e5b200ac8c7c3b9259061042d9086815260200190565b60405180910390a35060015b92915050565b600354600090600160a01b900460ff16156104915760405162461bcd60e51b815260206004820152600d60248201526c1510d14c8c0e881c185d5cd959609a1b60448201526064015b60405180910390fd5b6001600160a01b0384166000908152600660209081526040808320338452909152902054828110156105055760405162461bcd60e51b815260206004820152601d60248201527f54434532303a20696e73756666696369656e7420616c6c6f77616e63650000006044820152606401610488565b6001600160a01b038516600090815260066020908152604080832033845290915290208382039055610538858585610c13565b506001949350505050565b600254600160201b90046001600160a01b031633146105745760405162461bcd60e51b8152600401610488906110e3565b6002546301000000900460ff166105c55760405162461bcd60e51b81526020600482015260156024820152741510d14c8c0e881c185d5cd948191a5cd8589b1959605a1b6044820152606401610488565b600354600160a01b900460ff166106125760405162461bcd60e51b81526020600482015260116024820152701510d14c8c0e881b9bdd081c185d5cd959607a1b6044820152606401610488565b6003805460ff60a01b191690556040513381527f5db9ee0a495bf2e6ff9c91a7834c1ba4fdd244a5e8aa4e537bd38aeae4b073aa906020015b60405180910390a1565b600254600160201b90046001600160a01b031633146106865760405162461bcd60e51b8152600401610488906110e3565b600254610100900460ff166106dd5760405162461bcd60e51b815260206004820152601760248201527f54434532303a206d696e74696e672064697361626c65640000000000000000006044820152606401610488565b6106e78282610db9565b5050565b60025462010000900460ff1661073d5760405162461bcd60e51b81526020600482015260176024820152761510d14c8c0e88189d5c9b9a5b99c8191a5cd8589b1959604a1b6044820152606401610488565b6107473382610e8f565b50565b600254600160201b90046001600160a01b0316331461077b5760405162461bcd60e51b8152600401610488906110e3565b600254604051600091600160201b90046001600160a01b0316907f8be0079c531659141344cd1fd0a4f28419497f9722a3daafe3b4186f6b6457e0908390a360028054640100000000600160c01b0319169055600380546001600160a01b0319169055565b6003546001600160a01b0316331461083a5760405162461bcd60e51b815260206004820152601860248201527f54434532303a206e6f742070656e64696e67206f776e657200000000000000006044820152606401610488565b6003546002546040516001600160a01b0392831692600160201b909204909116907f8be0079c531659141344cd1fd0a4f28419497f9722a3daafe3b4186f6b6457e090600090a36003805460028054640100000000600160c01b0319166001600160a01b038316600160201b021790556001600160a01b0319169055565b60025462010000900460ff1661090a5760405162461bcd60e51b81526020600482015260176024820152761510d14c8c0e88189d5c9b9a5b99c8191a5cd8589b1959604a1b6044820152606401610488565b6001600160a01b03821660009081526006602090815260408083203384529091529020548181101561097e5760405162461bcd60e51b815260206004820152601d60248201527f54434532303a20696e73756666696369656e7420616c6c6f77616e63650000006044820152606401610488565b6001600160a01b0383166000908152600660209081526040808320338452909152902082820390556109b08383610e8f565b505050565b600254600160201b90046001600160a01b031633146109e65760405162461bcd60e51b8152600401610488906110e3565b6002546301000000900460ff16610a375760405162461bcd60e51b81526020600482015260156024820152741510d14c8c0e881c185d5cd948191a5cd8589b1959605a1b6044820152606401610488565b600354600160a01b900460ff1615610a895760405162461bcd60e51b81526020600482015260156024820152741510d14c8c0e88185b1c9958591e481c185d5cd959605a1b6044820152606401610488565b6003805460ff60a01b1916600160a01b1790556040513381527f62e78cea01bee320cd4e420270b5ea74000d11b0c9f74754ebdbfc544b05a2589060200161064b565b60606001805461034f906110a9565b600354600090600160a01b900460ff1615610b285760405162461bcd60e51b815260206004820152600d60248201526c1510d14c8c0e881c185d5cd959609a1b6044820152606401610488565b610b33338484610c13565b50600192915050565b600254600160201b90046001600160a01b03163314610b6d5760405162461bcd60e51b8152600401610488906110e3565b6001600160a01b038116610bb95760405162461bcd60e51b815260206004820152601360248201527254434532303a207a65726f206164647265737360681b6044820152606401610488565b600380546001600160a01b0319166001600160a01b038381169182179092556002546040519192600160201b90910416907f38d16b8cac22d99fc7c124b9cd0de2d3fa1faef420bfe791d8c362d765e2270090600090a350565b6001600160a01b038316610c695760405162461bcd60e51b815260206004820152601960248201527f54434532303a207472616e736665722066726f6d207a65726f000000000000006044820152606401610488565b6001600160a01b038216610cbf5760405162461bcd60e51b815260206004820152601760248201527f54434532303a207472616e7366657220746f207a65726f0000000000000000006044820152606401610488565b6001600160a01b038316600090815260056020526040902054811115610d275760405162461bcd60e51b815260206004820152601b60248201527f54434532303a20696e73756666696369656e742062616c616e636500000000006044820152606401610488565b6001600160a01b038084166000908152600560205260408082208054859003905591841681529081208054839290610d60908490611123565b92505081905550816001600160a01b0316836001600160a01b03167fddf252ad1be2c89b69c2b068fc378daa952ba7f163c4a11628f55a4df523b3ef83604051610dac91815260200190565b60405180910390a3505050565b6001600160a01b038216610e055760405162461bcd60e51b815260206004820152601360248201527254434532303a206d696e7420746f207a65726f60681b6044820152606401610488565b8060046000828254610e179190611123565b90915550506001600160a01b03821660009081526005602052604081208054839290610e44908490611123565b90915550506040518181526001600160a01b038316906000907fddf252ad1be2c89b69c2b068fc378daa952ba7f163c4a11628f55a4df523b3ef906020015b60405180910390a35050565b6001600160a01b038216600090815260056020526040902054811115610ef75760405162461bcd60e51b815260206004820152601b60248201527f54434532303a206275726e20657863656564732062616c616e636500000000006044820152606401610488565b6001600160a01b03821660009081526005602052604081208054839003905560048054839290610f28908490611136565b90915550506040518181526000906001600160a01b038416907fddf252ad1be2c89b69c2b068fc378daa952ba7f163c4a11628f55a4df523b3ef90602001610e83565b600060208083528351808285015260005b81811015610f9857858101830151858201604001528201610f7c565b506000604082860101526040601f19601f8301168501019250505092915050565b80356001600160a01b0381168114610fd057600080fd5b919050565b60008060408385031215610fe857600080fd5b610ff183610fb9565b946020939093013593505050565b60008060006060848603121561101457600080fd5b61101d84610fb9565b925061102b60208501610fb9565b9150604084013590509250925092565b60006020828403121561104d57600080fd5b5035919050565b60006020828403121561106657600080fd5b61106f82610fb9565b9392505050565b6000806040838503121561108957600080fd5b61109283610fb9565b91506110a060208401610fb9565b90509250929050565b600181811c908216806110bd57607f821691505b6020821081036110dd57634e487b7160e01b600052602260045260246000fd5b50919050565b60208082526010908201526f2a21a299181d103737ba1037bbb732b960811b604082015260600190565b634e487b7160e01b600052601160045260246000fd5b808201808211156104395761043961110d565b818103818111156104395761043961110d56fea2646970667358221220c647b0bc1403dfa720af2aa871388302892a61cd1f440cdf9031bc9b1a8f7a4c64736f6c63430008140033d646a91d1f5a49d7c5a8de17b74f1f455ae7fdafeafc0d8621daaaef060f8594a2646970667358221220d3547b63510710d4643fbd1b338a15d7a1418bf0915fdde3844c81ebfe79c4cc64736f6c63430008140033",
  "linkReferences": {},
  "deployedLinkReferences": {}
}